{"abi":[{"inputs":[{"internalType":"bytes[]","name":"proposalNames","type":"bytes[]"},{"internalType":"address[]","name":"_eligibleVoters","type":"address[]"},{"internalType":"address","name":"creator","type":"address"}],"stateMutability":"nonpayable","type":"constructor"},{"anonymous":false,"inputs":[{"indexed":true,"internalType":"address","name":"voter","type":"address"},{"indexed":true,"internalType":"bytes","name":"candidateName","type":"bytes"}],"name":"Vote","type":"event"},{"inputs":[],"name":"admin","outputs":[{"internalType":"address","name":"","type":"address"}],"stateMutability":"view","type":"function"},{"inputs":[{"internalType":"uint256","name":"","type":"uint256"}],"name":"candidates","outputs":[{"internalType":"bytes","name":"name","type":"bytes"},{"internalType":"uint256","name":"voteCount","type":"uint256"}],"stateMutability":"view","type":"function"},{"inputs":[{"internalType":"bytes","name":"candidateName","type":"bytes"}],"name":"candidatesVotesCount","outputs":[{"internalType":"uint256","name":"","type":"uint256"}],"stateMutability":"view","type":"function"},{"inputs":[{"internalType":"uint256","name":"","type":"uint256"}],"name":"eligibleVoters","outputs":[{"internalType":"address","name":"","type":"address"}],"stateMutability":"view","type":"function"},{"inputs":[],"name":"getResult","outputs":[{"internalType":"bytes","name":"winner","type":"bytes"}],"stateMutability":"view","type":"function"},{"inputs":[{"internalType":"address","name":"voter","type":"address"},{"internalType":"bytes","name":"candidateName","type":"bytes"}],"name":"vote","outputs":[],"stateMutability":"nonpayable","type":"function"},{"inputs":[{"internalType":"address","name":"","type":"address"}],"name":"voters","outputs":[{"internalType":"bool","name":"hasVoted","type":"bool"},{"internalType":"uint256","name":"vote","type":"uint256"}],"stateMutability":"view","type":"function"}],"devdoc":{"kind":"dev","methods":{},"version":1},"evm":{"assembly":"    /* \"Election.sol\":520:3816  contract Election {... */\n  mstore(0x40, 0x80)\n    /* \"Election.sol\":1242:1941  constructor(bytes[] memory proposalNames, address[] memory _eligibleVoters, address creator) {... */\n  callvalue\n  dup1\n  iszero\n  tag_1\n  jumpi\n  0x00\n  dup1\n  revert\ntag_1:\n  pop\n  mload(0x40)\n  sub(codesize, bytecodeSize)\n  dup1\n  bytecodeSize\n  dup4\n  codecopy\n  dup2\n  dup2\n  add\n  0x40\n  mstore\n  dup2\n  add\n  swap1\n  tag_2\n  swap2\n  swap1\n  tag_3\n  jump\t// in\ntag_2:\n    /* \"Election.sol\":1354:1361  creator */\n  dup1\n    /* \"Election.sol\":1346:1351  admin */\n  0x00\n  dup1\n    /* \"Election.sol\":1346:1361  admin = creator */\n  0x0100\n  exp\n  dup2\n  sload\n  dup2\n  0xffffffffffffffffffffffffffffffffffffffff\n  mul\n  not\n  and\n  swap1\n  dup4\n  0xffffffffffffffffffffffffffffffffffffffff\n  and\n  mul\n  or\n  swap1\n  sstore\n  pop\n    /* \"Election.sol\":1379:1385  uint i */\n  0x00\n    /* \"Election.sol\":1374:1609  for (uint i = 0; i < proposalNames.length; i++) {... */\ntag_6:\n    /* \"Election.sol\":1395:1408  proposalNames */\n  dup4\n    /* \"Election.sol\":1395:1415  proposalNames.length */\n  mload\n    /* \"Election.sol\":1391:1392  i */\n  dup2\n    /* \"Election.sol\":1391:1415  i < proposalNames.length */\n  lt\n    /* \"Election.sol\":1374:1609  for (uint i = 0; i < proposalNames.length; i++) {... */\n  iszero\n  tag_7\n  jumpi\n    /* \"Election.sol\":1437:1447  candidates */\n  0x02\n    /* \"Election.sol\":1471:1582  Candidates({... */\n  mload(0x40)\n  dup1\n  0x40\n  add\n  0x40\n  mstore\n  dup1\n    /* \"Election.sol\":1511:1524  proposalNames */\n  dup7\n    /* \"Election.sol\":1525:1526  i */\n  dup5\n    /* \"Election.sol\":1511:1527  proposalNames[i] */\n  dup2\n  mload\n  dup2\n  lt\n  tag_9\n  jumpi\n  tag_10\n  tag_11\n  jump\t// in\ntag_10:\ntag_9:\n  0x20\n  mul\n  0x20\n  add\n  add\n  mload\n    /* \"Election.sol\":1471:1582  Candidates({... */\n  dup2\n  mstore\n  0x20\n  add\n    /* \"Election.sol\":1561:1562  0 */\n  0x00\n    /* \"Election.sol\":1471:1582  Candidates({... */\n  dup2\n  mstore\n  pop\n    /* \"Election.sol\":1437:1597  candidates.push(... */\n  swap1\n  dup1\n  0x01\n  dup2\n  sload\n  add\n  dup1\n  dup3\n  sstore\n  dup1\n  swap2\n  pop\n  pop\n  0x01\n  swap1\n  sub\n  swap1\n  0x00\n  mstore\n  keccak256(0x00, 0x20)\n  swap1\n  0x02\n  mul\n  add\n  0x00\n  swap1\n  swap2\n  swap1\n  swap2\n  swap1\n  swap2\n  pop\n  0x00\n  dup3\n  add\n  mload\n  dup2\n  0x00\n  add\n  swap1\n  dup2\n  tag_13\n  swap2\n  swap1\n  tag_14\n  jump\t// in\ntag_13:\n  pop\n  0x20\n  dup3\n  add\n  mload\n  dup2\n  0x01\n  add\n  sstore\n  pop\n  pop\n    /* \"Election.sol\":1417:1420  i++ */\n  dup1\n  dup1\n  0x01\n  add\n  swap2\n  pop\n  pop\n    /* \"Election.sol\":1374:1609  for (uint i = 0; i < proposalNames.length; i++) {... */\n  jump(tag_6)\ntag_7:\n  pop\n    /* \"Election.sol\":1638:1653  _eligibleVoters */\n  dup2\n    /* \"Election.sol\":1621:1635  eligibleVoters */\n  0x03\n    /* \"Election.sol\":1621:1653  eligibleVoters = _eligibleVoters */\n  swap1\n  dup1\n  mload\n  swap1\n  0x20\n  add\n  swap1\n  tag_15\n  swap3\n  swap2\n  swap1\n  tag_16\n  jump\t// in\ntag_15:\n  pop\n    /* \"Election.sol\":1752:1758  uint i */\n  0x00\n    /* \"Election.sol\":1747:1934  for (uint i = 0; i < eligibleVoters.length; i++) {... */\ntag_17:\n    /* \"Election.sol\":1768:1782  eligibleVoters */\n  0x03\n    /* \"Election.sol\":1768:1789  eligibleVoters.length */\n  dup1\n  sload\n  swap1\n  pop\n    /* \"Election.sol\":1764:1765  i */\n  dup2\n    /* \"Election.sol\":1764:1789  i < eligibleVoters.length */\n  lt\n    /* \"Election.sol\":1747:1934  for (uint i = 0; i < eligibleVoters.length; i++) {... */\n  iszero\n  tag_18\n  jumpi\n    /* \"Election.sol\":1839:1922  Voters({... */\n  mload(0x40)\n  dup1\n  0x40\n  add\n  0x40\n  mstore\n  dup1\n    /* \"Election.sol\":1875:1880  false */\n  0x00\n    /* \"Election.sol\":1839:1922  Voters({... */\n  iszero\n  iszero\n  dup2\n  mstore\n  0x20\n  add\n    /* \"Election.sol\":1905:1906  0 */\n  0x00\n    /* \"Election.sol\":1839:1922  Voters({... */\n  dup2\n  mstore\n  pop\n    /* \"Election.sol\":1811:1817  voters */\n  0x01\n    /* \"Election.sol\":1811:1836  voters[eligibleVoters[i]] */\n  0x00\n    /* \"Election.sol\":1818:1832  eligibleVoters */\n  0x03\n    /* \"Election.sol\":1833:1834  i */\n  dup5\n    /* \"Election.sol\":1818:1835  eligibleVoters[i] */\n  dup2\n  sload\n  dup2\n  lt\n  tag_20\n  jumpi\n  tag_21\n  tag_11\n  jump\t// in\ntag_21:\ntag_20:\n  swap1\n  0x00\n  mstore\n  keccak256(0x00, 0x20)\n  add\n  0x00\n  swap1\n  sload\n  swap1\n  0x0100\n  exp\n  swap1\n  div\n  0xffffffffffffffffffffffffffffffffffffffff\n  and\n    /* \"Election.sol\":1811:1836  voters[eligibleVoters[i]] */\n  0xffffffffffffffffffffffffffffffffffffffff\n  and\n  0xffffffffffffffffffffffffffffffffffffffff\n  and\n  dup2\n  mstore\n  0x20\n  add\n  swap1\n  dup2\n  mstore\n  0x20\n  add\n  0x00\n  keccak256\n    /* \"Election.sol\":1811:1922  voters[eligibleVoters[i]] = Voters({... */\n  0x00\n  dup3\n  add\n  mload\n  dup2\n  0x00\n  add\n  exp(0x0100, 0x00)\n  dup2\n  sload\n  dup2\n  0xff\n  mul\n  not\n  and\n  swap1\n  dup4\n  iszero\n  iszero\n  mul\n  or\n  swap1\n  sstore\n  pop\n  0x20\n  dup3\n  add\n  mload\n  dup2\n  0x01\n  add\n  sstore\n  swap1\n  pop\n  pop\n    /* \"Election.sol\":1791:1794  i++ */\n  dup1\n  dup1\n  0x01\n  add\n  swap2\n  pop\n  pop\n    /* \"Election.sol\":1747:1934  for (uint i = 0; i < eligibleVoters.length; i++) {... */\n  jump(tag_17)\ntag_18:\n  pop\n    /* \"Election.sol\":1242:1941  constructor(bytes[] memory proposalNames, address[] memory _eligibleVoters, address creator) {... */\n  pop\n  pop\n  pop\n    /* \"Election.sol\":520:3816  contract Election {... */\n  jump(tag_23)\ntag_16:\n  dup3\n  dup1\n  sload\n  dup3\n  dup3\n  sstore\n  swap1\n  0x00\n  mstore\n  keccak256(0x00, 0x20)\n  swap1\n  dup2\n  add\n  swap3\n  dup3\n  iszero\n  tag_24\n  jumpi\n  swap2\n  0x20\n  mul\n  dup3\n  add\ntag_25:\n  dup3\n  dup2\n  gt\n  iszero\n  tag_26\n  jumpi\n  dup3\n  mload\n  dup3\n  exp(0x0100, 0x00)\n  dup2\n  sload\n  dup2\n  0xffffffffffffffffffffffffffffffffffffffff\n  mul\n  not\n  and\n  swap1\n  dup4\n  0xffffffffffffffffffffffffffffffffffffffff\n  and\n  mul\n  or\n  swap1\n  sstore\n  pop\n  swap2\n  0x20\n  add\n  swap2\n  swap1\n  0x01\n  add\n  swap1\n  jump(tag_25)\ntag_26:\ntag_24:\n  pop\n  swap1\n  pop\n  tag_27\n  swap2\n  swap1\n  tag_28\n  jump\t// in\ntag_27:\n  pop\n  swap1\n  jump\t// out\ntag_28:\ntag_29:\n  dup1\n  dup3\n  gt\n  iszero\n  tag_30\n  jumpi\n  0x00\n  dup2\n  0x00\n  swap1\n  sstore\n  pop\n  0x01\n  add\n  jump(tag_29)\ntag_30:\n  pop\n  swap1\n  jump\t// out\n    /* \"#utility.yul\":7:82   */\ntag_31:\n    /* \"#utility.yul\":40:46   */\n  0x00\n    /* \"#utility.yul\":73:75   */\n  0x40\n    /* \"#utility.yul\":67:76   */\n  mload\n    /* \"#utility.yul\":57:76   */\n  swap1\n  pop\n    /* \"#utility.yul\":7:82   */\n  swap1\n  jump\t// out\n    /* \"#utility.yul\":88:205   */\ntag_32:\n    /* \"#utility.yul\":197:198   */\n  0x00\n    /* \"#utility.yul\":194:195   */\n  dup1\n    /* \"#utility.yul\":187:199   */\n  revert\n    /* \"#utility.yul\":211:328   */\ntag_33:\n    /* \"#utility.yul\":320:321   */\n  0x00\n    /* \"#utility.yul\":317:318   */\n  dup1\n    /* \"#utility.yul\":310:322   */\n  revert\n    /* \"#utility.yul\":334:451   */\ntag_34:\n    /* \"#utility.yul\":443:444   */\n  0x00\n    /* \"#utility.yul\":440:441   */\n  dup1\n    /* \"#utility.yul\":433:445   */\n  revert\n    /* \"#utility.yul\":457:559   */\ntag_35:\n    /* \"#utility.yul\":498:504   */\n  0x00\n    /* \"#utility.yul\":549:551   */\n  0x1f\n    /* \"#utility.yul\":545:552   */\n  not\n    /* \"#utility.yul\":540:542   */\n  0x1f\n    /* \"#utility.yul\":533:538   */\n  dup4\n    /* \"#utility.yul\":529:543   */\n  add\n    /* \"#utility.yul\":525:553   */\n  and\n    /* \"#utility.yul\":515:553   */\n  swap1\n  pop\n    /* \"#utility.yul\":457:559   */\n  swap2\n  swap1\n  pop\n  jump\t// out\n    /* \"#utility.yul\":565:745   */\ntag_36:\n    /* \"#utility.yul\":613:690   */\n  0x4e487b7100000000000000000000000000000000000000000000000000000000\n    /* \"#utility.yul\":610:611   */\n  0x00\n    /* \"#utility.yul\":603:691   */\n  mstore\n    /* \"#utility.yul\":710:714   */\n  0x41\n    /* \"#utility.yul\":707:708   */\n  0x04\n    /* \"#utility.yul\":700:715   */\n  mstore\n    /* \"#utility.yul\":734:738   */\n  0x24\n    /* \"#utility.yul\":731:732   */\n  0x00\n    /* \"#utility.yul\":724:739   */\n  revert\n    /* \"#utility.yul\":751:1032   */\ntag_37:\n    /* \"#utility.yul\":834:861   */\n  tag_82\n    /* \"#utility.yul\":856:860   */\n  dup3\n    /* \"#utility.yul\":834:861   */\n  tag_35\n  jump\t// in\ntag_82:\n    /* \"#utility.yul\":826:832   */\n  dup2\n    /* \"#utility.yul\":822:862   */\n  add\n    /* \"#utility.yul\":964:970   */\n  dup2\n    /* \"#utility.yul\":952:962   */\n  dup2\n    /* \"#utility.yul\":949:971   */\n  lt\n    /* \"#utility.yul\":928:946   */\n  0xffffffffffffffff\n    /* \"#utility.yul\":916:926   */\n  dup3\n    /* \"#utility.yul\":913:947   */\n  gt\n    /* \"#utility.yul\":910:972   */\n  or\n    /* \"#utility.yul\":907:995   */\n  iszero\n  tag_83\n  jumpi\n    /* \"#utility.yul\":975:993   */\n  tag_84\n  tag_36\n  jump\t// in\ntag_84:\n    /* \"#utility.yul\":907:995   */\ntag_83:\n    /* \"#utility.yul\":1015:1025   */\n  dup1\n    /* \"#utility.yul\":1011:1013   */\n  0x40\n    /* \"#utility.yul\":1004:1026   */\n  mstore\n    /* \"#utility.yul\":794:1032   */\n  pop\n    /* \"#utility.yul\":751:1032   */\n  pop\n  pop\n  jump\t// out\n    /* \"#utility.yul\":1038:1167   */\ntag_38:\n    /* \"#utility.yul\":1072:1078   */\n  0x00\n    /* \"#utility.yul\":1099:1119   */\n  tag_86\n  tag_31\n  jump\t// in\ntag_86:\n    /* \"#utility.yul\":1089:1119   */\n  swap1\n  pop\n    /* \"#utility.yul\":1128:1161   */\n  tag_87\n    /* \"#utility.yul\":1156:1160   */\n  dup3\n    /* \"#utility.yul\":1148:1154   */\n  dup3\n    /* \"#utility.yul\":1128:1161   */\n  tag_37\n  jump\t// in\ntag_87:\n    /* \"#utility.yul\":1038:1167   */\n  swap2\n  swap1\n  pop\n  jump\t// out\n    /* \"#utility.yul\":1173:1493   */\ntag_39:\n    /* \"#utility.yul\":1259:1263   */\n  0x00\n    /* \"#utility.yul\":1349:1367   */\n  0xffffffffffffffff\n    /* \"#utility.yul\":1341:1347   */\n  dup3\n    /* \"#utility.yul\":1338:1368   */\n  gt\n    /* \"#utility.yul\":1335:1391   */\n  iszero\n  tag_89\n  jumpi\n    /* \"#utility.yul\":1371:1389   */\n  tag_90\n  tag_36\n  jump\t// in\ntag_90:\n    /* \"#utility.yul\":1335:1391   */\ntag_89:\n    /* \"#utility.yul\":1421:1425   */\n  0x20\n    /* \"#utility.yul\":1413:1419   */\n  dup3\n    /* \"#utility.yul\":1409:1426   */\n  mul\n    /* \"#utility.yul\":1401:1426   */\n  swap1\n  pop\n    /* \"#utility.yul\":1481:1485   */\n  0x20\n    /* \"#utility.yul\":1475:1479   */\n  dup2\n    /* \"#utility.yul\":1471:1486   */\n  add\n    /* \"#utility.yul\":1463:1486   */\n  swap1\n  pop\n    /* \"#utility.yul\":1173:1493   */\n  swap2\n  swap1\n  pop\n  jump\t// out\n    /* \"#utility.yul\":1499:1616   */\ntag_40:\n    /* \"#utility.yul\":1608:1609   */\n  0x00\n    /* \"#utility.yul\":1605:1606   */\n  dup1\n    /* \"#utility.yul\":1598:1610   */\n  revert\n    /* \"#utility.yul\":1622:1739   */\ntag_41:\n    /* \"#utility.yul\":1731:1732   */\n  0x00\n    /* \"#utility.yul\":1728:1729   */\n  dup1\n    /* \"#utility.yul\":1721:1733   */\n  revert\n    /* \"#utility.yul\":1745:2052   */\ntag_42:\n    /* \"#utility.yul\":1806:1810   */\n  0x00\n    /* \"#utility.yul\":1896:1914   */\n  0xffffffffffffffff\n    /* \"#utility.yul\":1888:1894   */\n  dup3\n    /* \"#utility.yul\":1885:1915   */\n  gt\n    /* \"#utility.yul\":1882:1938   */\n  iszero\n  tag_94\n  jumpi\n    /* \"#utility.yul\":1918:1936   */\n  tag_95\n  tag_36\n  jump\t// in\ntag_95:\n    /* \"#utility.yul\":1882:1938   */\ntag_94:\n    /* \"#utility.yul\":1956:1985   */\n  tag_96\n    /* \"#utility.yul\":1978:1984   */\n  dup3\n    /* \"#utility.yul\":1956:1985   */\n  tag_35\n  jump\t// in\ntag_96:\n    /* \"#utility.yul\":1948:1985   */\n  swap1\n  pop\n    /* \"#utility.yul\":2040:2044   */\n  0x20\n    /* \"#utility.yul\":2034:2038   */\n  dup2\n    /* \"#utility.yul\":2030:2045   */\n  add\n    /* \"#utility.yul\":2022:2045   */\n  swap1\n  pop\n    /* \"#utility.yul\":1745:2052   */\n  swap2\n  swap1\n  pop\n  jump\t// out\n    /* \"#utility.yul\":2058:2304   */\ntag_43:\n    /* \"#utility.yul\":2139:2140   */\n  0x00\n    /* \"#utility.yul\":2149:2262   */\ntag_98:\n    /* \"#utility.yul\":2163:2169   */\n  dup4\n    /* \"#utility.yul\":2160:2161   */\n  dup2\n    /* \"#utility.yul\":2157:2170   */\n  lt\n    /* \"#utility.yul\":2149:2262   */\n  iszero\n  tag_100\n  jumpi\n    /* \"#utility.yul\":2248:2249   */\n  dup1\n    /* \"#utility.yul\":2243:2246   */\n  dup3\n    /* \"#utility.yul\":2239:2250   */\n  add\n    /* \"#utility.yul\":2233:2251   */\n  mload\n    /* \"#utility.yul\":2229:2230   */\n  dup2\n    /* \"#utility.yul\":2224:2227   */\n  dup5\n    /* \"#utility.yul\":2220:2231   */\n  add\n    /* \"#utility.yul\":2213:2252   */\n  mstore\n    /* \"#utility.yul\":2185:2187   */\n  0x20\n    /* \"#utility.yul\":2182:2183   */\n  dup2\n    /* \"#utility.yul\":2178:2188   */\n  add\n    /* \"#utility.yul\":2173:2188   */\n  swap1\n  pop\n    /* \"#utility.yul\":2149:2262   */\n  jump(tag_98)\ntag_100:\n    /* \"#utility.yul\":2296:2297   */\n  0x00\n    /* \"#utility.yul\":2287:2293   */\n  dup5\n    /* \"#utility.yul\":2282:2285   */\n  dup5\n    /* \"#utility.yul\":2278:2294   */\n  add\n    /* \"#utility.yul\":2271:2298   */\n  mstore\n    /* \"#utility.yul\":2120:2304   */\n  pop\n    /* \"#utility.yul\":2058:2304   */\n  pop\n  pop\n  pop\n  jump\t// out\n    /* \"#utility.yul\":2310:2742   */\ntag_44:\n    /* \"#utility.yul\":2398:2403   */\n  0x00\n    /* \"#utility.yul\":2423:2488   */\n  tag_102\n    /* \"#utility.yul\":2439:2487   */\n  tag_103\n    /* \"#utility.yul\":2480:2486   */\n  dup5\n    /* \"#utility.yul\":2439:2487   */\n  tag_42\n  jump\t// in\ntag_103:\n    /* \"#utility.yul\":2423:2488   */\n  tag_38\n  jump\t// in\ntag_102:\n    /* \"#utility.yul\":2414:2488   */\n  swap1\n  pop\n    /* \"#utility.yul\":2511:2517   */\n  dup3\n    /* \"#utility.yul\":2504:2509   */\n  dup2\n    /* \"#utility.yul\":2497:2518   */\n  mstore\n    /* \"#utility.yul\":2549:2553   */\n  0x20\n    /* \"#utility.yul\":2542:2547   */\n  dup2\n    /* \"#utility.yul\":2538:2554   */\n  add\n    /* \"#utility.yul\":2587:2590   */\n  dup5\n    /* \"#utility.yul\":2578:2584   */\n  dup5\n    /* \"#utility.yul\":2573:2576   */\n  dup5\n    /* \"#utility.yul\":2569:2585   */\n  add\n    /* \"#utility.yul\":2566:2591   */\n  gt\n    /* \"#utility.yul\":2563:2675   */\n  iszero\n  tag_104\n  jumpi\n    /* \"#utility.yul\":2594:2673   */\n  tag_105\n  tag_41\n  jump\t// in\ntag_105:\n    /* \"#utility.yul\":2563:2675   */\ntag_104:\n    /* \"#utility.yul\":2684:2736   */\n  tag_106\n    /* \"#utility.yul\":2729:2735   */\n  dup5\n    /* \"#utility.yul\":2724:2727   */\n  dup3\n    /* \"#utility.yul\":2719:2722   */\n  dup6\n    /* \"#utility.yul\":2684:2736   */\n  tag_43\n  jump\t// in\ntag_106:\n    /* \"#utility.yul\":2404:2742   */\n  pop\n    /* \"#utility.yul\":2310:2742   */\n  swap4\n  swap3\n  pop\n  pop\n  pop\n  jump\t// out\n    /* \"#utility.yul\":2761:3114   */\ntag_45:\n    /* \"#utility.yul\":2827:2832   */\n  0x00\n    /* \"#utility.yul\":2876:2879   */\n  dup3\n    /* \"#utility.yul\":2869:2873   */\n  0x1f\n    /* \"#utility.yul\":2861:2867   */\n  dup4\n    /* \"#utility.yul\":2857:2874   */\n  add\n    /* \"#utility.yul\":2853:2880   */\n  slt\n    /* \"#utility.yul\":2843:2965   */\n  tag_108\n  jumpi\n    /* \"#utility.yul\":2884:2963   */\n  tag_109\n  tag_34\n  jump\t// in\ntag_109:\n    /* \"#utility.yul\":2843:2965   */\ntag_108:\n    /* \"#utility.yul\":2994:3000   */\n  dup2\n    /* \"#utility.yul\":2988:3001   */\n  mload\n    /* \"#utility.yul\":3019:3108   */\n  tag_110\n    /* \"#utility.yul\":3104:3107   */\n  dup5\n    /* \"#utility.yul\":3096:3102   */\n  dup3\n    /* \"#utility.yul\":3089:3093   */\n  0x20\n    /* \"#utility.yul\":3081:3087   */\n  dup7\n    /* \"#utility.yul\":3077:3094   */\n  add\n    /* \"#utility.yul\":3019:3108   */\n  tag_44\n  jump\t// in\ntag_110:\n    /* \"#utility.yul\":3010:3108   */\n  swap2\n  pop\n    /* \"#utility.yul\":2833:3114   */\n  pop\n    /* \"#utility.yul\":2761:3114   */\n  swap3\n  swap2\n  pop\n  pop\n  jump\t// out\n    /* \"#utility.yul\":3135:4092   */\ntag_46:\n    /* \"#utility.yul\":3251:3256   */\n  0x00\n    /* \"#utility.yul\":3276:3366   */\n  tag_112\n    /* \"#utility.yul\":3292:3365   */\n  tag_113\n    /* \"#utility.yul\":3358:3364   */\n  dup5\n    /* \"#utility.yul\":3292:3365   */\n  tag_39\n  jump\t// in\ntag_113:\n    /* \"#utility.yul\":3276:3366   */\n  tag_38\n  jump\t// in\ntag_112:\n    /* \"#utility.yul\":3267:3366   */\n  swap1\n  pop\n    /* \"#utility.yul\":3386:3391   */\n  dup1\n    /* \"#utility.yul\":3415:3421   */\n  dup4\n    /* \"#utility.yul\":3408:3413   */\n  dup3\n    /* \"#utility.yul\":3401:3422   */\n  mstore\n    /* \"#utility.yul\":3449:3453   */\n  0x20\n    /* \"#utility.yul\":3442:3447   */\n  dup3\n    /* \"#utility.yul\":3438:3454   */\n  add\n    /* \"#utility.yul\":3431:3454   */\n  swap1\n  pop\n    /* \"#utility.yul\":3502:3506   */\n  0x20\n    /* \"#utility.yul\":3494:3500   */\n  dup5\n    /* \"#utility.yul\":3490:3507   */\n  mul\n    /* \"#utility.yul\":3482:3488   */\n  dup4\n    /* \"#utility.yul\":3478:3508   */\n  add\n    /* \"#utility.yul\":3531:3534   */\n  dup6\n    /* \"#utility.yul\":3523:3529   */\n  dup2\n    /* \"#utility.yul\":3520:3535   */\n  gt\n    /* \"#utility.yul\":3517:3639   */\n  iszero\n  tag_114\n  jumpi\n    /* \"#utility.yul\":3550:3629   */\n  tag_115\n  tag_40\n  jump\t// in\ntag_115:\n    /* \"#utility.yul\":3517:3639   */\ntag_114:\n    /* \"#utility.yul\":3665:3671   */\n  dup4\n    /* \"#utility.yul\":3648:4086   */\ntag_116:\n    /* \"#utility.yul\":3682:3688   */\n  dup2\n    /* \"#utility.yul\":3677:3680   */\n  dup2\n    /* \"#utility.yul\":3674:3689   */\n  lt\n    /* \"#utility.yul\":3648:4086   */\n  iszero\n  tag_118\n  jumpi\n    /* \"#utility.yul\":3764:3767   */\n  dup1\n    /* \"#utility.yul\":3758:3768   */\n  mload\n    /* \"#utility.yul\":3800:3818   */\n  0xffffffffffffffff\n    /* \"#utility.yul\":3787:3798   */\n  dup2\n    /* \"#utility.yul\":3784:3819   */\n  gt\n    /* \"#utility.yul\":3781:3903   */\n  iszero\n  tag_119\n  jumpi\n    /* \"#utility.yul\":3822:3901   */\n  tag_120\n  tag_34\n  jump\t// in\ntag_120:\n    /* \"#utility.yul\":3781:3903   */\ntag_119:\n    /* \"#utility.yul\":3946:3957   */\n  dup1\n    /* \"#utility.yul\":3938:3944   */\n  dup7\n    /* \"#utility.yul\":3934:3958   */\n  add\n    /* \"#utility.yul\":3984:4041   */\n  tag_121\n    /* \"#utility.yul\":4037:4040   */\n  dup10\n    /* \"#utility.yul\":4025:4035   */\n  dup3\n    /* \"#utility.yul\":3984:4041   */\n  tag_45\n  jump\t// in\ntag_121:\n    /* \"#utility.yul\":3979:3982   */\n  dup6\n    /* \"#utility.yul\":3972:4042   */\n  mstore\n    /* \"#utility.yul\":4071:4075   */\n  0x20\n    /* \"#utility.yul\":4066:4069   */\n  dup6\n    /* \"#utility.yul\":4062:4076   */\n  add\n    /* \"#utility.yul\":4055:4076   */\n  swap5\n  pop\n    /* \"#utility.yul\":3724:4086   */\n  pop\n  pop\n    /* \"#utility.yul\":3708:3712   */\n  0x20\n    /* \"#utility.yul\":3703:3706   */\n  dup2\n    /* \"#utility.yul\":3699:3713   */\n  add\n    /* \"#utility.yul\":3692:3713   */\n  swap1\n  pop\n    /* \"#utility.yul\":3648:4086   */\n  jump(tag_116)\ntag_118:\n    /* \"#utility.yul\":3652:3673   */\n  pop\n    /* \"#utility.yul\":3257:4092   */\n  pop\n  pop\n    /* \"#utility.yul\":3135:4092   */\n  swap4\n  swap3\n  pop\n  pop\n  pop\n  jump\t// out\n    /* \"#utility.yul\":4113:4516   */\ntag_47:\n    /* \"#utility.yul\":4204:4209   */\n  0x00\n    /* \"#utility.yul\":4253:4256   */\n  dup3\n    /* \"#utility.yul\":4246:4250   */\n  0x1f\n    /* \"#utility.yul\":4238:4244   */\n  dup4\n    /* \"#utility.yul\":4234:4251   */\n  add\n    /* \"#utility.yul\":4230:4257   */\n  slt\n    /* \"#utility.yul\":4220:4342   */\n  tag_123\n  jumpi\n    /* \"#utility.yul\":4261:4340   */\n  tag_124\n  tag_34\n  jump\t// in\ntag_124:\n    /* \"#utility.yul\":4220:4342   */\ntag_123:\n    /* \"#utility.yul\":4371:4377   */\n  dup2\n    /* \"#utility.yul\":4365:4378   */\n  mload\n    /* \"#utility.yul\":4396:4510   */\n  tag_125\n    /* \"#utility.yul\":4506:4509   */\n  dup5\n    /* \"#utility.yul\":4498:4504   */\n  dup3\n    /* \"#utility.yul\":4491:4495   */\n  0x20\n    /* \"#utility.yul\":4483:4489   */\n  dup7\n    /* \"#utility.yul\":4479:4496   */\n  add\n    /* \"#utility.yul\":4396:4510   */\n  tag_46\n  jump\t// in\ntag_125:\n    /* \"#utility.yul\":4387:4510   */\n  swap2\n  pop\n    /* \"#utility.yul\":4210:4516   */\n  pop\n    /* \"#utility.yul\":4113:4516   */\n  swap3\n  swap2\n  pop\n  pop\n  jump\t// out\n    /* \"#utility.yul\":4522:4833   */\ntag_48:\n    /* \"#utility.yul\":4599:4603   */\n  0x00\n    /* \"#utility.yul\":4689:4707   */\n  0xffffffffffffffff\n    /* \"#utility.yul\":4681:4687   */\n  dup3\n    /* \"#utility.yul\":4678:4708   */\n  gt\n    /* \"#utility.yul\":4675:4731   */\n  iszero\n  tag_127\n  jumpi\n    /* \"#utility.yul\":4711:4729   */\n  tag_128\n  tag_36\n  jump\t// in\ntag_128:\n    /* \"#utility.yul\":4675:4731   */\ntag_127:\n    /* \"#utility.yul\":4761:4765   */\n  0x20\n    /* \"#utility.yul\":4753:4759   */\n  dup3\n    /* \"#utility.yul\":4749:4766   */\n  mul\n    /* \"#utility.yul\":4741:4766   */\n  swap1\n  pop\n    /* \"#utility.yul\":4821:4825   */\n  0x20\n    /* \"#utility.yul\":4815:4819   */\n  dup2\n    /* \"#utility.yul\":4811:4826   */\n  add\n    /* \"#utility.yul\":4803:4826   */\n  swap1\n  pop\n    /* \"#utility.yul\":4522:4833   */\n  swap2\n  swap1\n  pop\n  jump\t// out\n    /* \"#utility.yul\":4839:4965   */\ntag_49:\n    /* \"#utility.yul\":4876:4883   */\n  0x00\n    /* \"#utility.yul\":4916:4958   */\n  0xffffffffffffffffffffffffffffffffffffffff\n    /* \"#utility.yul\":4909:4914   */\n  dup3\n    /* \"#utility.yul\":4905:4959   */\n  and\n    /* \"#utility.yul\":4894:4959   */\n  swap1\n  pop\n    /* \"#utility.yul\":4839:4965   */\n  swap2\n  swap1\n  pop\n  jump\t// out\n    /* \"#utility.yul\":4971:5067   */\ntag_50:\n    /* \"#utility.yul\":5008:5015   */\n  0x00\n    /* \"#utility.yul\":5037:5061   */\n  tag_131\n    /* \"#utility.yul\":5055:5060   */\n  dup3\n    /* \"#utility.yul\":5037:5061   */\n  tag_49\n  jump\t// in\ntag_131:\n    /* \"#utility.yul\":5026:5061   */\n  swap1\n  pop\n    /* \"#utility.yul\":4971:5067   */\n  swap2\n  swap1\n  pop\n  jump\t// out\n    /* \"#utility.yul\":5073:5195   */\ntag_51:\n    /* \"#utility.yul\":5146:5170   */\n  tag_133\n    /* \"#utility.yul\":5164:5169   */\n  dup2\n    /* \"#utility.yul\":5146:5170   */\n  tag_50\n  jump\t// in\ntag_133:\n    /* \"#utility.yul\":5139:5144   */\n  dup2\n    /* \"#utility.yul\":5136:5171   */\n  eq\n    /* \"#utility.yul\":5126:5189   */\n  tag_134\n  jumpi\n    /* \"#utility.yul\":5185:5186   */\n  0x00\n    /* \"#utility.yul\":5182:5183   */\n  dup1\n    /* \"#utility.yul\":5175:5187   */\n  revert\n    /* \"#utility.yul\":5126:5189   */\ntag_134:\n    /* \"#utility.yul\":5073:5195   */\n  pop\n  jump\t// out\n    /* \"#utility.yul\":5201:5344   */\ntag_52:\n    /* \"#utility.yul\":5258:5263   */\n  0x00\n    /* \"#utility.yul\":5289:5295   */\n  dup2\n    /* \"#utility.yul\":5283:5296   */\n  mload\n    /* \"#utility.yul\":5274:5296   */\n  swap1\n  pop\n    /* \"#utility.yul\":5305:5338   */\n  tag_136\n    /* \"#utility.yul\":5332:5337   */\n  dup2\n    /* \"#utility.yul\":5305:5338   */\n  tag_51\n  jump\t// in\ntag_136:\n    /* \"#utility.yul\":5201:5344   */\n  swap3\n  swap2\n  pop\n  pop\n  jump\t// out\n    /* \"#utility.yul\":5367:6099   */\ntag_53:\n    /* \"#utility.yul\":5474:5479   */\n  0x00\n    /* \"#utility.yul\":5499:5580   */\n  tag_138\n    /* \"#utility.yul\":5515:5579   */\n  tag_139\n    /* \"#utility.yul\":5572:5578   */\n  dup5\n    /* \"#utility.yul\":5515:5579   */\n  tag_48\n  jump\t// in\ntag_139:\n    /* \"#utility.yul\":5499:5580   */\n  tag_38\n  jump\t// in\ntag_138:\n    /* \"#utility.yul\":5490:5580   */\n  swap1\n  pop\n    /* \"#utility.yul\":5600:5605   */\n  dup1\n    /* \"#utility.yul\":5629:5635   */\n  dup4\n    /* \"#utility.yul\":5622:5627   */\n  dup3\n    /* \"#utility.yul\":5615:5636   */\n  mstore\n    /* \"#utility.yul\":5663:5667   */\n  0x20\n    /* \"#utility.yul\":5656:5661   */\n  dup3\n    /* \"#utility.yul\":5652:5668   */\n  add\n    /* \"#utility.yul\":5645:5668   */\n  swap1\n  pop\n    /* \"#utility.yul\":5716:5720   */\n  0x20\n    /* \"#utility.yul\":5708:5714   */\n  dup5\n    /* \"#utility.yul\":5704:5721   */\n  mul\n    /* \"#utility.yul\":5696:5702   */\n  dup4\n    /* \"#utility.yul\":5692:5722   */\n  add\n    /* \"#utility.yul\":5745:5748   */\n  dup6\n    /* \"#utility.yul\":5737:5743   */\n  dup2\n    /* \"#utility.yul\":5734:5749   */\n  gt\n    /* \"#utility.yul\":5731:5853   */\n  iszero\n  tag_140\n  jumpi\n    /* \"#utility.yul\":5764:5843   */\n  tag_141\n  tag_40\n  jump\t// in\ntag_141:\n    /* \"#utility.yul\":5731:5853   */\ntag_140:\n    /* \"#utility.yul\":5879:5885   */\n  dup4\n    /* \"#utility.yul\":5862:6093   */\ntag_142:\n    /* \"#utility.yul\":5896:5902   */\n  dup2\n    /* \"#utility.yul\":5891:5894   */\n  dup2\n    /* \"#utility.yul\":5888:5903   */\n  lt\n    /* \"#utility.yul\":5862:6093   */\n  iszero\n  tag_144\n  jumpi\n    /* \"#utility.yul\":5971:5974   */\n  dup1\n    /* \"#utility.yul\":6000:6048   */\n  tag_145\n    /* \"#utility.yul\":6044:6047   */\n  dup9\n    /* \"#utility.yul\":6032:6042   */\n  dup3\n    /* \"#utility.yul\":6000:6048   */\n  tag_52\n  jump\t// in\ntag_145:\n    /* \"#utility.yul\":5995:5998   */\n  dup5\n    /* \"#utility.yul\":5988:6049   */\n  mstore\n    /* \"#utility.yul\":6078:6082   */\n  0x20\n    /* \"#utility.yul\":6073:6076   */\n  dup5\n    /* \"#utility.yul\":6069:6083   */\n  add\n    /* \"#utility.yul\":6062:6083   */\n  swap4\n  pop\n    /* \"#utility.yul\":5938:6093   */\n  pop\n    /* \"#utility.yul\":5922:5926   */\n  0x20\n    /* \"#utility.yul\":5917:5920   */\n  dup2\n    /* \"#utility.yul\":5913:5927   */\n  add\n    /* \"#utility.yul\":5906:5927   */\n  swap1\n  pop\n    /* \"#utility.yul\":5862:6093   */\n  jump(tag_142)\ntag_144:\n    /* \"#utility.yul\":5866:5887   */\n  pop\n    /* \"#utility.yul\":5480:6099   */\n  pop\n  pop\n    /* \"#utility.yul\":5367:6099   */\n  swap4\n  swap3\n  pop\n  pop\n  pop\n  jump\t// out\n    /* \"#utility.yul\":6122:6507   */\ntag_54:\n    /* \"#utility.yul\":6204:6209   */\n  0x00\n    /* \"#utility.yul\":6253:6256   */\n  dup3\n    /* \"#utility.yul\":6246:6250   */\n  0x1f\n    /* \"#utility.yul\":6238:6244   */\n  dup4\n    /* \"#utility.yul\":6234:6251   */\n  add\n    /* \"#utility.yul\":6230:6257   */\n  slt\n    /* \"#utility.yul\":6220:6342   */\n  tag_147\n  jumpi\n    /* \"#utility.yul\":6261:6340   */\n  tag_148\n  tag_34\n  jump\t// in\ntag_148:\n    /* \"#utility.yul\":6220:6342   */\ntag_147:\n    /* \"#utility.yul\":6371:6377   */\n  dup2\n    /* \"#utility.yul\":6365:6378   */\n  mload\n    /* \"#utility.yul\":6396:6501   */\n  tag_149\n    /* \"#utility.yul\":6497:6500   */\n  dup5\n    /* \"#utility.yul\":6489:6495   */\n  dup3\n    /* \"#utility.yul\":6482:6486   */\n  0x20\n    /* \"#utility.yul\":6474:6480   */\n  dup7\n    /* \"#utility.yul\":6470:6487   */\n  add\n    /* \"#utility.yul\":6396:6501   */\n  tag_53\n  jump\t// in\ntag_149:\n    /* \"#utility.yul\":6387:6501   */\n  swap2\n  pop\n    /* \"#utility.yul\":6210:6507   */\n  pop\n    /* \"#utility.yul\":6122:6507   */\n  swap3\n  swap2\n  pop\n  pop\n  jump\t// out\n    /* \"#utility.yul\":6513:7600   */\ntag_3:\n    /* \"#utility.yul\":6660:6666   */\n  0x00\n    /* \"#utility.yul\":6668:6674   */\n  dup1\n    /* \"#utility.yul\":6676:6682   */\n  0x00\n    /* \"#utility.yul\":6725:6727   */\n  0x60\n    /* \"#utility.yul\":6713:6722   */\n  dup5\n    /* \"#utility.yul\":6704:6711   */\n  dup7\n    /* \"#utility.yul\":6700:6723   */\n  sub\n    /* \"#utility.yul\":6696:6728   */\n  slt\n    /* \"#utility.yul\":6693:6812   */\n  iszero\n  tag_151\n  jumpi\n    /* \"#utility.yul\":6731:6810   */\n  tag_152\n  tag_32\n  jump\t// in\ntag_152:\n    /* \"#utility.yul\":6693:6812   */\ntag_151:\n    /* \"#utility.yul\":6872:6873   */\n  0x00\n    /* \"#utility.yul\":6861:6870   */\n  dup5\n    /* \"#utility.yul\":6857:6874   */\n  add\n    /* \"#utility.yul\":6851:6875   */\n  mload\n    /* \"#utility.yul\":6902:6920   */\n  0xffffffffffffffff\n    /* \"#utility.yul\":6894:6900   */\n  dup2\n    /* \"#utility.yul\":6891:6921   */\n  gt\n    /* \"#utility.yul\":6888:7005   */\n  iszero\n  tag_153\n  jumpi\n    /* \"#utility.yul\":6924:7003   */\n  tag_154\n  tag_33\n  jump\t// in\ntag_154:\n    /* \"#utility.yul\":6888:7005   */\ntag_153:\n    /* \"#utility.yul\":7029:7127   */\n  tag_155\n    /* \"#utility.yul\":7119:7126   */\n  dup7\n    /* \"#utility.yul\":7110:7116   */\n  dup3\n    /* \"#utility.yul\":7099:7108   */\n  dup8\n    /* \"#utility.yul\":7095:7117   */\n  add\n    /* \"#utility.yul\":7029:7127   */\n  tag_47\n  jump\t// in\ntag_155:\n    /* \"#utility.yul\":7019:7127   */\n  swap4\n  pop\n    /* \"#utility.yul\":6822:7137   */\n  pop\n    /* \"#utility.yul\":7197:7199   */\n  0x20\n    /* \"#utility.yul\":7186:7195   */\n  dup5\n    /* \"#utility.yul\":7182:7200   */\n  add\n    /* \"#utility.yul\":7176:7201   */\n  mload\n    /* \"#utility.yul\":7228:7246   */\n  0xffffffffffffffff\n    /* \"#utility.yul\":7220:7226   */\n  dup2\n    /* \"#utility.yul\":7217:7247   */\n  gt\n    /* \"#utility.yul\":7214:7331   */\n  iszero\n  tag_156\n  jumpi\n    /* \"#utility.yul\":7250:7329   */\n  tag_157\n  tag_33\n  jump\t// in\ntag_157:\n    /* \"#utility.yul\":7214:7331   */\ntag_156:\n    /* \"#utility.yul\":7355:7444   */\n  tag_158\n    /* \"#utility.yul\":7436:7443   */\n  dup7\n    /* \"#utility.yul\":7427:7433   */\n  dup3\n    /* \"#utility.yul\":7416:7425   */\n  dup8\n    /* \"#utility.yul\":7412:7434   */\n  add\n    /* \"#utility.yul\":7355:7444   */\n  tag_54\n  jump\t// in\ntag_158:\n    /* \"#utility.yul\":7345:7444   */\n  swap3\n  pop\n    /* \"#utility.yul\":7147:7454   */\n  pop\n    /* \"#utility.yul\":7493:7495   */\n  0x40\n    /* \"#utility.yul\":7519:7583   */\n  tag_159\n    /* \"#utility.yul\":7575:7582   */\n  dup7\n    /* \"#utility.yul\":7566:7572   */\n  dup3\n    /* \"#utility.yul\":7555:7564   */\n  dup8\n    /* \"#utility.yul\":7551:7573   */\n  add\n    /* \"#utility.yul\":7519:7583   */\n  tag_52\n  jump\t// in\ntag_159:\n    /* \"#utility.yul\":7509:7583   */\n  swap2\n  pop\n    /* \"#utility.yul\":7464:7593   */\n  pop\n    /* \"#utility.yul\":6513:7600   */\n  swap3\n  pop\n  swap3\n  pop\n  swap3\n  jump\t// out\n    /* \"#utility.yul\":7606:7786   */\ntag_11:\n    /* \"#utility.yul\":7654:7731   */\n  0x4e487b7100000000000000000000000000000000000000000000000000000000\n    /* \"#utility.yul\":7651:7652   */\n  0x00\n    /* \"#utility.yul\":7644:7732   */\n  mstore\n    /* \"#utility.yul\":7751:7755   */\n  0x32\n    /* \"#utility.yul\":7748:7749   */\n  0x04\n    /* \"#utility.yul\":7741:7756   */\n  mstore\n    /* \"#utility.yul\":7775:7779   */\n  0x24\n    /* \"#utility.yul\":7772:7773   */\n  0x00\n    /* \"#utility.yul\":7765:7780   */\n  revert\n    /* \"#utility.yul\":7792:7890   */\ntag_55:\n    /* \"#utility.yul\":7843:7849   */\n  0x00\n    /* \"#utility.yul\":7877:7882   */\n  dup2\n    /* \"#utility.yul\":7871:7883   */\n  mload\n    /* \"#utility.yul\":7861:7883   */\n  swap1\n  pop\n    /* \"#utility.yul\":7792:7890   */\n  swap2\n  swap1\n  pop\n  jump\t// out\n    /* \"#utility.yul\":7896:8076   */\ntag_56:\n    /* \"#utility.yul\":7944:8021   */\n  0x4e487b7100000000000000000000000000000000000000000000000000000000\n    /* \"#utility.yul\":7941:7942   */\n  0x00\n    /* \"#utility.yul\":7934:8022   */\n  mstore\n    /* \"#utility.yul\":8041:8045   */\n  0x22\n    /* \"#utility.yul\":8038:8039   */\n  0x04\n    /* \"#utility.yul\":8031:8046   */\n  mstore\n    /* \"#utility.yul\":8065:8069   */\n  0x24\n    /* \"#utility.yul\":8062:8063   */\n  0x00\n    /* \"#utility.yul\":8055:8070   */\n  revert\n    /* \"#utility.yul\":8082:8402   */\ntag_57:\n    /* \"#utility.yul\":8126:8132   */\n  0x00\n    /* \"#utility.yul\":8163:8164   */\n  0x02\n    /* \"#utility.yul\":8157:8161   */\n  dup3\n    /* \"#utility.yul\":8153:8165   */\n  div\n    /* \"#utility.yul\":8143:8165   */\n  swap1\n  pop\n    /* \"#utility.yul\":8210:8211   */\n  0x01\n    /* \"#utility.yul\":8204:8208   */\n  dup3\n    /* \"#utility.yul\":8200:8212   */\n  and\n    /* \"#utility.yul\":8231:8249   */\n  dup1\n    /* \"#utility.yul\":8221:8302   */\n  tag_164\n  jumpi\n    /* \"#utility.yul\":8287:8291   */\n  0x7f\n    /* \"#utility.yul\":8279:8285   */\n  dup3\n    /* \"#utility.yul\":8275:8292   */\n  and\n    /* \"#utility.yul\":8265:8292   */\n  swap2\n  pop\n    /* \"#utility.yul\":8221:8302   */\ntag_164:\n    /* \"#utility.yul\":8349:8351   */\n  0x20\n    /* \"#utility.yul\":8341:8347   */\n  dup3\n    /* \"#utility.yul\":8338:8352   */\n  lt\n    /* \"#utility.yul\":8318:8336   */\n  dup2\n    /* \"#utility.yul\":8315:8353   */\n  sub\n    /* \"#utility.yul\":8312:8396   */\n  tag_165\n  jumpi\n    /* \"#utility.yul\":8368:8386   */\n  tag_166\n  tag_56\n  jump\t// in\ntag_166:\n    /* \"#utility.yul\":8312:8396   */\ntag_165:\n    /* \"#utility.yul\":8133:8402   */\n  pop\n    /* \"#utility.yul\":8082:8402   */\n  swap2\n  swap1\n  pop\n  jump\t// out\n    /* \"#utility.yul\":8408:8548   */\ntag_58:\n    /* \"#utility.yul\":8456:8460   */\n  0x00\n    /* \"#utility.yul\":8479:8482   */\n  dup2\n    /* \"#utility.yul\":8471:8482   */\n  swap1\n  pop\n    /* \"#utility.yul\":8502:8505   */\n  dup2\n    /* \"#utility.yul\":8499:8500   */\n  0x00\n    /* \"#utility.yul\":8492:8506   */\n  mstore\n    /* \"#utility.yul\":8536:8540   */\n  0x20\n    /* \"#utility.yul\":8533:8534   */\n  0x00\n    /* \"#utility.yul\":8523:8541   */\n  keccak256\n    /* \"#utility.yul\":8515:8541   */\n  swap1\n  pop\n    /* \"#utility.yul\":8408:8548   */\n  swap2\n  swap1\n  pop\n  jump\t// out\n    /* \"#utility.yul\":8554:8647   */\ntag_59:\n    /* \"#utility.yul\":8591:8597   */\n  0x00\n    /* \"#utility.yul\":8638:8640   */\n  0x20\n    /* \"#utility.yul\":8633:8635   */\n  0x1f\n    /* \"#utility.yul\":8626:8631   */\n  dup4\n    /* \"#utility.yul\":8622:8636   */\n  add\n    /* \"#utility.yul\":8618:8641   */\n  div\n    /* \"#utility.yul\":8608:8641   */\n  swap1\n  pop\n    /* \"#utility.yul\":8554:8647   */\n  swap2\n  swap1\n  pop\n  jump\t// out\n    /* \"#utility.yul\":8653:8760   */\ntag_60:\n    /* \"#utility.yul\":8697:8705   */\n  0x00\n    /* \"#utility.yul\":8747:8752   */\n  dup3\n    /* \"#utility.yul\":8741:8745   */\n  dup3\n    /* \"#utility.yul\":8737:8753   */\n  shl\n    /* \"#utility.yul\":8716:8753   */\n  swap1\n  pop\n    /* \"#utility.yul\":8653:8760   */\n  swap3\n  swap2\n  pop\n  pop\n  jump\t// out\n    /* \"#utility.yul\":8766:9159   */\ntag_61:\n    /* \"#utility.yul\":8835:8841   */\n  0x00\n    /* \"#utility.yul\":8885:8886   */\n  0x08\n    /* \"#utility.yul\":8873:8883   */\n  dup4\n    /* \"#utility.yul\":8869:8887   */\n  mul\n    /* \"#utility.yul\":8908:9005   */\n  tag_171\n    /* \"#utility.yul\":8938:9004   */\n  0xffffffffffffffffffffffffffffffffffffffffffffffffffffffffffffffff\n    /* \"#utility.yul\":8927:8936   */\n  dup3\n    /* \"#utility.yul\":8908:9005   */\n  tag_60\n  jump\t// in\ntag_171:\n    /* \"#utility.yul\":9026:9065   */\n  tag_172\n    /* \"#utility.yul\":9056:9064   */\n  dup7\n    /* \"#utility.yul\":9045:9054   */\n  dup4\n    /* \"#utility.yul\":9026:9065   */\n  tag_60\n  jump\t// in\ntag_172:\n    /* \"#utility.yul\":9014:9065   */\n  swap6\n  pop\n    /* \"#utility.yul\":9098:9102   */\n  dup1\n    /* \"#utility.yul\":9094:9103   */\n  not\n    /* \"#utility.yul\":9087:9092   */\n  dup5\n    /* \"#utility.yul\":9083:9104   */\n  and\n    /* \"#utility.yul\":9074:9104   */\n  swap4\n  pop\n    /* \"#utility.yul\":9147:9151   */\n  dup1\n    /* \"#utility.yul\":9137:9145   */\n  dup7\n    /* \"#utility.yul\":9133:9152   */\n  and\n    /* \"#utility.yul\":9126:9131   */\n  dup5\n    /* \"#utility.yul\":9123:9153   */\n  or\n    /* \"#utility.yul\":9113:9153   */\n  swap3\n  pop\n    /* \"#utility.yul\":8842:9159   */\n  pop\n  pop\n    /* \"#utility.yul\":8766:9159   */\n  swap4\n  swap3\n  pop\n  pop\n  pop\n  jump\t// out\n    /* \"#utility.yul\":9165:9242   */\ntag_62:\n    /* \"#utility.yul\":9202:9209   */\n  0x00\n    /* \"#utility.yul\":9231:9236   */\n  dup2\n    /* \"#utility.yul\":9220:9236   */\n  swap1\n  pop\n    /* \"#utility.yul\":9165:9242   */\n  swap2\n  swap1\n  pop\n  jump\t// out\n    /* \"#utility.yul\":9248:9308   */\ntag_63:\n    /* \"#utility.yul\":9276:9279   */\n  0x00\n    /* \"#utility.yul\":9297:9302   */\n  dup2\n    /* \"#utility.yul\":9290:9302   */\n  swap1\n  pop\n    /* \"#utility.yul\":9248:9308   */\n  swap2\n  swap1\n  pop\n  jump\t// out\n    /* \"#utility.yul\":9314:9456   */\ntag_64:\n    /* \"#utility.yul\":9364:9373   */\n  0x00\n    /* \"#utility.yul\":9397:9450   */\n  tag_176\n    /* \"#utility.yul\":9415:9449   */\n  tag_177\n    /* \"#utility.yul\":9424:9448   */\n  tag_178\n    /* \"#utility.yul\":9442:9447   */\n  dup5\n    /* \"#utility.yul\":9424:9448   */\n  tag_62\n  jump\t// in\ntag_178:\n    /* \"#utility.yul\":9415:9449   */\n  tag_63\n  jump\t// in\ntag_177:\n    /* \"#utility.yul\":9397:9450   */\n  tag_62\n  jump\t// in\ntag_176:\n    /* \"#utility.yul\":9384:9450   */\n  swap1\n  pop\n    /* \"#utility.yul\":9314:9456   */\n  swap2\n  swap1\n  pop\n  jump\t// out\n    /* \"#utility.yul\":9462:9537   */\ntag_65:\n    /* \"#utility.yul\":9505:9508   */\n  0x00\n    /* \"#utility.yul\":9526:9531   */\n  dup2\n    /* \"#utility.yul\":9519:9531   */\n  swap1\n  pop\n    /* \"#utility.yul\":9462:9537   */\n  swap2\n  swap1\n  pop\n  jump\t// out\n    /* \"#utility.yul\":9543:9812   */\ntag_66:\n    /* \"#utility.yul\":9653:9692   */\n  tag_181\n    /* \"#utility.yul\":9684:9691   */\n  dup4\n    /* \"#utility.yul\":9653:9692   */\n  tag_64\n  jump\t// in\ntag_181:\n    /* \"#utility.yul\":9714:9805   */\n  tag_182\n    /* \"#utility.yul\":9763:9804   */\n  tag_183\n    /* \"#utility.yul\":9787:9803   */\n  dup3\n    /* \"#utility.yul\":9763:9804   */\n  tag_65\n  jump\t// in\ntag_183:\n    /* \"#utility.yul\":9755:9761   */\n  dup5\n    /* \"#utility.yul\":9748:9752   */\n  dup5\n    /* \"#utility.yul\":9742:9753   */\n  sload\n    /* \"#utility.yul\":9714:9805   */\n  tag_61\n  jump\t// in\ntag_182:\n    /* \"#utility.yul\":9708:9712   */\n  dup3\n    /* \"#utility.yul\":9701:9806   */\n  sstore\n    /* \"#utility.yul\":9619:9812   */\n  pop\n    /* \"#utility.yul\":9543:9812   */\n  pop\n  pop\n  pop\n  jump\t// out\n    /* \"#utility.yul\":9818:9891   */\ntag_67:\n    /* \"#utility.yul\":9863:9866   */\n  0x00\n    /* \"#utility.yul\":9818:9891   */\n  swap1\n  jump\t// out\n    /* \"#utility.yul\":9897:10086   */\ntag_68:\n    /* \"#utility.yul\":9974:10006   */\n  tag_186\n  tag_67\n  jump\t// in\ntag_186:\n    /* \"#utility.yul\":10015:10080   */\n  tag_187\n    /* \"#utility.yul\":10073:10079   */\n  dup2\n    /* \"#utility.yul\":10065:10071   */\n  dup5\n    /* \"#utility.yul\":10059:10063   */\n  dup5\n    /* \"#utility.yul\":10015:10080   */\n  tag_66\n  jump\t// in\ntag_187:\n    /* \"#utility.yul\":9950:10086   */\n  pop\n    /* \"#utility.yul\":9897:10086   */\n  pop\n  pop\n  jump\t// out\n    /* \"#utility.yul\":10092:10278   */\ntag_69:\n    /* \"#utility.yul\":10152:10272   */\ntag_189:\n    /* \"#utility.yul\":10169:10172   */\n  dup2\n    /* \"#utility.yul\":10162:10167   */\n  dup2\n    /* \"#utility.yul\":10159:10173   */\n  lt\n    /* \"#utility.yul\":10152:10272   */\n  iszero\n  tag_191\n  jumpi\n    /* \"#utility.yul\":10223:10262   */\n  tag_192\n    /* \"#utility.yul\":10260:10261   */\n  0x00\n    /* \"#utility.yul\":10253:10258   */\n  dup3\n    /* \"#utility.yul\":10223:10262   */\n  tag_68\n  jump\t// in\ntag_192:\n    /* \"#utility.yul\":10196:10197   */\n  0x01\n    /* \"#utility.yul\":10189:10194   */\n  dup2\n    /* \"#utility.yul\":10185:10198   */\n  add\n    /* \"#utility.yul\":10176:10198   */\n  swap1\n  pop\n    /* \"#utility.yul\":10152:10272   */\n  jump(tag_189)\ntag_191:\n    /* \"#utility.yul\":10092:10278   */\n  pop\n  pop\n  jump\t// out\n    /* \"#utility.yul\":10284:10825   */\ntag_70:\n    /* \"#utility.yul\":10384:10386   */\n  0x1f\n    /* \"#utility.yul\":10379:10382   */\n  dup3\n    /* \"#utility.yul\":10376:10387   */\n  gt\n    /* \"#utility.yul\":10373:10818   */\n  iszero\n  tag_194\n  jumpi\n    /* \"#utility.yul\":10418:10455   */\n  tag_195\n    /* \"#utility.yul\":10449:10454   */\n  dup2\n    /* \"#utility.yul\":10418:10455   */\n  tag_58\n  jump\t// in\ntag_195:\n    /* \"#utility.yul\":10501:10530   */\n  tag_196\n    /* \"#utility.yul\":10519:10529   */\n  dup5\n    /* \"#utility.yul\":10501:10530   */\n  tag_59\n  jump\t// in\ntag_196:\n    /* \"#utility.yul\":10491:10499   */\n  dup2\n    /* \"#utility.yul\":10487:10531   */\n  add\n    /* \"#utility.yul\":10684:10686   */\n  0x20\n    /* \"#utility.yul\":10672:10682   */\n  dup6\n    /* \"#utility.yul\":10669:10687   */\n  lt\n    /* \"#utility.yul\":10666:10715   */\n  iszero\n  tag_197\n  jumpi\n    /* \"#utility.yul\":10705:10713   */\n  dup2\n    /* \"#utility.yul\":10690:10713   */\n  swap1\n  pop\n    /* \"#utility.yul\":10666:10715   */\ntag_197:\n    /* \"#utility.yul\":10728:10808   */\n  tag_198\n    /* \"#utility.yul\":10784:10806   */\n  tag_199\n    /* \"#utility.yul\":10802:10805   */\n  dup6\n    /* \"#utility.yul\":10784:10806   */\n  tag_59\n  jump\t// in\ntag_199:\n    /* \"#utility.yul\":10774:10782   */\n  dup4\n    /* \"#utility.yul\":10770:10807   */\n  add\n    /* \"#utility.yul\":10757:10768   */\n  dup3\n    /* \"#utility.yul\":10728:10808   */\n  tag_69\n  jump\t// in\ntag_198:\n    /* \"#utility.yul\":10388:10818   */\n  pop\n  pop\n    /* \"#utility.yul\":10373:10818   */\ntag_194:\n    /* \"#utility.yul\":10284:10825   */\n  pop\n  pop\n  pop\n  jump\t// out\n    /* \"#utility.yul\":10831:10948   */\ntag_71:\n    /* \"#utility.yul\":10885:10893   */\n  0x00\n    /* \"#utility.yul\":10935:10940   */\n  dup3\n    /* \"#utility.yul\":10929:10933   */\n  dup3\n    /* \"#utility.yul\":10925:10941   */\n  shr\n    /* \"#utility.yul\":10904:10941   */\n  swap1\n  pop\n    /* \"#utility.yul\":10831:10948   */\n  swap3\n  swap2\n  pop\n  pop\n  jump\t// out\n    /* \"#utility.yul\":10954:11123   */\ntag_72:\n    /* \"#utility.yul\":10998:11004   */\n  0x00\n    /* \"#utility.yul\":11031:11082   */\n  tag_202\n    /* \"#utility.yul\":11079:11080   */\n  0x00\n    /* \"#utility.yul\":11075:11081   */\n  not\n    /* \"#utility.yul\":11067:11072   */\n  dup5\n    /* \"#utility.yul\":11064:11065   */\n  0x08\n    /* \"#utility.yul\":11060:11073   */\n  mul\n    /* \"#utility.yul\":11031:11082   */\n  tag_71\n  jump\t// in\ntag_202:\n    /* \"#utility.yul\":11027:11083   */\n  not\n    /* \"#utility.yul\":11112:11116   */\n  dup1\n    /* \"#utility.yul\":11106:11110   */\n  dup4\n    /* \"#utility.yul\":11102:11117   */\n  and\n    /* \"#utility.yul\":11092:11117   */\n  swap2\n  pop\n    /* \"#utility.yul\":11005:11123   */\n  pop\n    /* \"#utility.yul\":10954:11123   */\n  swap3\n  swap2\n  pop\n  pop\n  jump\t// out\n    /* \"#utility.yul\":11128:11423   */\ntag_73:\n    /* \"#utility.yul\":11204:11208   */\n  0x00\n    /* \"#utility.yul\":11350:11379   */\n  tag_204\n    /* \"#utility.yul\":11375:11378   */\n  dup4\n    /* \"#utility.yul\":11369:11373   */\n  dup4\n    /* \"#utility.yul\":11350:11379   */\n  tag_72\n  jump\t// in\ntag_204:\n    /* \"#utility.yul\":11342:11379   */\n  swap2\n  pop\n    /* \"#utility.yul\":11412:11415   */\n  dup3\n    /* \"#utility.yul\":11409:11410   */\n  0x02\n    /* \"#utility.yul\":11405:11416   */\n  mul\n    /* \"#utility.yul\":11399:11403   */\n  dup3\n    /* \"#utility.yul\":11396:11417   */\n  or\n    /* \"#utility.yul\":11388:11417   */\n  swap1\n  pop\n    /* \"#utility.yul\":11128:11423   */\n  swap3\n  swap2\n  pop\n  pop\n  jump\t// out\n    /* \"#utility.yul\":11428:12818   */\ntag_14:\n    /* \"#utility.yul\":11543:11579   */\n  tag_206\n    /* \"#utility.yul\":11575:11578   */\n  dup3\n    /* \"#utility.yul\":11543:11579   */\n  tag_55\n  jump\t// in\ntag_206:\n    /* \"#utility.yul\":11644:11662   */\n  0xffffffffffffffff\n    /* \"#utility.yul\":11636:11642   */\n  dup2\n    /* \"#utility.yul\":11633:11663   */\n  gt\n    /* \"#utility.yul\":11630:11686   */\n  iszero\n  tag_207\n  jumpi\n    /* \"#utility.yul\":11666:11684   */\n  tag_208\n  tag_36\n  jump\t// in\ntag_208:\n    /* \"#utility.yul\":11630:11686   */\ntag_207:\n    /* \"#utility.yul\":11710:11748   */\n  tag_209\n    /* \"#utility.yul\":11742:11746   */\n  dup3\n    /* \"#utility.yul\":11736:11747   */\n  sload\n    /* \"#utility.yul\":11710:11748   */\n  tag_57\n  jump\t// in\ntag_209:\n    /* \"#utility.yul\":11795:11861   */\n  tag_210\n    /* \"#utility.yul\":11854:11860   */\n  dup3\n    /* \"#utility.yul\":11846:11852   */\n  dup3\n    /* \"#utility.yul\":11840:11844   */\n  dup6\n    /* \"#utility.yul\":11795:11861   */\n  tag_70\n  jump\t// in\ntag_210:\n    /* \"#utility.yul\":11888:11889   */\n  0x00\n    /* \"#utility.yul\":11912:11916   */\n  0x20\n    /* \"#utility.yul\":11899:11916   */\n  swap1\n  pop\n    /* \"#utility.yul\":11944:11946   */\n  0x1f\n    /* \"#utility.yul\":11936:11942   */\n  dup4\n    /* \"#utility.yul\":11933:11947   */\n  gt\n    /* \"#utility.yul\":11961:11962   */\n  0x01\n    /* \"#utility.yul\":11956:12573   */\n  dup2\n  eq\n  tag_212\n  jumpi\n    /* \"#utility.yul\":12617:12618   */\n  0x00\n    /* \"#utility.yul\":12634:12640   */\n  dup5\n    /* \"#utility.yul\":12631:12708   */\n  iszero\n  tag_213\n  jumpi\n    /* \"#utility.yul\":12683:12692   */\n  dup3\n    /* \"#utility.yul\":12678:12681   */\n  dup8\n    /* \"#utility.yul\":12674:12693   */\n  add\n    /* \"#utility.yul\":12668:12694   */\n  mload\n    /* \"#utility.yul\":12659:12694   */\n  swap1\n  pop\n    /* \"#utility.yul\":12631:12708   */\ntag_213:\n    /* \"#utility.yul\":12734:12801   */\n  tag_214\n    /* \"#utility.yul\":12794:12800   */\n  dup6\n    /* \"#utility.yul\":12787:12792   */\n  dup3\n    /* \"#utility.yul\":12734:12801   */\n  tag_73\n  jump\t// in\ntag_214:\n    /* \"#utility.yul\":12728:12732   */\n  dup7\n    /* \"#utility.yul\":12721:12802   */\n  sstore\n    /* \"#utility.yul\":12590:12812   */\n  pop\n    /* \"#utility.yul\":11926:12812   */\n  jump(tag_211)\n    /* \"#utility.yul\":11956:12573   */\ntag_212:\n    /* \"#utility.yul\":12008:12012   */\n  0x1f\n    /* \"#utility.yul\":12004:12013   */\n  not\n    /* \"#utility.yul\":11996:12002   */\n  dup5\n    /* \"#utility.yul\":11992:12014   */\n  and\n    /* \"#utility.yul\":12042:12078   */\n  tag_215\n    /* \"#utility.yul\":12073:12077   */\n  dup7\n    /* \"#utility.yul\":12042:12078   */\n  tag_58\n  jump\t// in\ntag_215:\n    /* \"#utility.yul\":12100:12101   */\n  0x00\n    /* \"#utility.yul\":12114:12322   */\ntag_216:\n    /* \"#utility.yul\":12128:12135   */\n  dup3\n    /* \"#utility.yul\":12125:12126   */\n  dup2\n    /* \"#utility.yul\":12122:12136   */\n  lt\n    /* \"#utility.yul\":12114:12322   */\n  iszero\n  tag_218\n  jumpi\n    /* \"#utility.yul\":12207:12216   */\n  dup5\n    /* \"#utility.yul\":12202:12205   */\n  dup10\n    /* \"#utility.yul\":12198:12217   */\n  add\n    /* \"#utility.yul\":12192:12218   */\n  mload\n    /* \"#utility.yul\":12184:12190   */\n  dup3\n    /* \"#utility.yul\":12177:12219   */\n  sstore\n    /* \"#utility.yul\":12258:12259   */\n  0x01\n    /* \"#utility.yul\":12250:12256   */\n  dup3\n    /* \"#utility.yul\":12246:12260   */\n  add\n    /* \"#utility.yul\":12236:12260   */\n  swap2\n  pop\n    /* \"#utility.yul\":12305:12307   */\n  0x20\n    /* \"#utility.yul\":12294:12303   */\n  dup6\n    /* \"#utility.yul\":12290:12308   */\n  add\n    /* \"#utility.yul\":12277:12308   */\n  swap5\n  pop\n    /* \"#utility.yul\":12151:12155   */\n  0x20\n    /* \"#utility.yul\":12148:12149   */\n  dup2\n    /* \"#utility.yul\":12144:12156   */\n  add\n    /* \"#utility.yul\":12139:12156   */\n  swap1\n  pop\n    /* \"#utility.yul\":12114:12322   */\n  jump(tag_216)\ntag_218:\n    /* \"#utility.yul\":12350:12356   */\n  dup7\n    /* \"#utility.yul\":12341:12348   */\n  dup4\n    /* \"#utility.yul\":12338:12357   */\n  lt\n    /* \"#utility.yul\":12335:12514   */\n  iszero\n  tag_219\n  jumpi\n    /* \"#utility.yul\":12408:12417   */\n  dup5\n    /* \"#utility.yul\":12403:12406   */\n  dup10\n    /* \"#utility.yul\":12399:12418   */\n  add\n    /* \"#utility.yul\":12393:12419   */\n  mload\n    /* \"#utility.yul\":12451:12499   */\n  tag_220\n    /* \"#utility.yul\":12493:12497   */\n  0x1f\n    /* \"#utility.yul\":12485:12491   */\n  dup10\n    /* \"#utility.yul\":12481:12498   */\n  and\n    /* \"#utility.yul\":12470:12479   */\n  dup3\n    /* \"#utility.yul\":12451:12499   */\n  tag_72\n  jump\t// in\ntag_220:\n    /* \"#utility.yul\":12443:12449   */\n  dup4\n    /* \"#utility.yul\":12436:12500   */\n  sstore\n    /* \"#utility.yul\":12358:12514   */\n  pop\n    /* \"#utility.yul\":12335:12514   */\ntag_219:\n    /* \"#utility.yul\":12560:12561   */\n  0x01\n    /* \"#utility.yul\":12556:12557   */\n  0x02\n    /* \"#utility.yul\":12548:12554   */\n  dup9\n    /* \"#utility.yul\":12544:12558   */\n  mul\n    /* \"#utility.yul\":12540:12562   */\n  add\n    /* \"#utility.yul\":12534:12538   */\n  dup9\n    /* \"#utility.yul\":12527:12563   */\n  sstore\n    /* \"#utility.yul\":11963:12573   */\n  pop\n  pop\n  pop\n    /* \"#utility.yul\":11926:12812   */\ntag_211:\n  pop\n    /* \"#utility.yul\":11518:12818   */\n  pop\n  pop\n  pop\n    /* \"#utility.yul\":11428:12818   */\n  pop\n  pop\n  jump\t// out\n    /* \"Election.sol\":520:3816  contract Election {... */\ntag_23:\n  dataSize(sub_0)\n  dup1\n  dataOffset(sub_0)\n  0x00\n  codecopy\n  0x00\n  return\nstop\n\nsub_0: assembly {\n        /* \"Election.sol\":520:3816  contract Election {... */\n      mstore(0x40, 0x80)\n      callvalue\n      dup1\n      iszero\n      tag_1\n      jumpi\n      0x00\n      dup1\n      revert\n    tag_1:\n      pop\n      jumpi(tag_2, lt(calldatasize, 0x04))\n      shr(0xe0, calldataload(0x00))\n      dup1\n      0xa3ec138d\n      gt\n      tag_10\n      jumpi\n      dup1\n      0xa3ec138d\n      eq\n      tag_6\n      jumpi\n      dup1\n      0xd3ae3e1d\n      eq\n      tag_7\n      jumpi\n      dup1\n      0xde292789\n      eq\n      tag_8\n      jumpi\n      dup1\n      0xf851a440\n      eq\n      tag_9\n      jumpi\n      jump(tag_2)\n    tag_10:\n      dup1\n      0x3477ee2e\n      eq\n      tag_3\n      jumpi\n      dup1\n      0x6241aed9\n      eq\n      tag_4\n      jumpi\n      dup1\n      0x90caf298\n      eq\n      tag_5\n      jumpi\n    tag_2:\n      0x00\n      dup1\n      revert\n        /* \"Election.sol\":775:805  Candidates[] public candidates */\n    tag_3:\n      tag_11\n      0x04\n      dup1\n      calldatasize\n      sub\n      dup2\n      add\n      swap1\n      tag_12\n      swap2\n      swap1\n      tag_13\n      jump\t// in\n    tag_12:\n      tag_14\n      jump\t// in\n    tag_11:\n      mload(0x40)\n      tag_15\n      swap3\n      swap2\n      swap1\n      tag_16\n      jump\t// in\n    tag_15:\n      mload(0x40)\n      dup1\n      swap2\n      sub\n      swap1\n      return\n        /* \"Election.sol\":2706:2980  function candidatesVotesCount(bytes memory candidateName) public view returns (uint) {... */\n    tag_4:\n      tag_17\n      0x04\n      dup1\n      calldatasize\n      sub\n      dup2\n      add\n      swap1\n      tag_18\n      swap2\n      swap1\n      tag_19\n      jump\t// in\n    tag_18:\n      tag_20\n      jump\t// in\n    tag_17:\n      mload(0x40)\n      tag_21\n      swap2\n      swap1\n      tag_22\n      jump\t// in\n    tag_21:\n      mload(0x40)\n      dup1\n      swap2\n      sub\n      swap1\n      return\n        /* \"Election.sol\":857:888  address[] public eligibleVoters */\n    tag_5:\n      tag_23\n      0x04\n      dup1\n      calldatasize\n      sub\n      dup2\n      add\n      swap1\n      tag_24\n      swap2\n      swap1\n      tag_13\n      jump\t// in\n    tag_24:\n      tag_25\n      jump\t// in\n    tag_23:\n      mload(0x40)\n      tag_26\n      swap2\n      swap1\n      tag_27\n      jump\t// in\n    tag_26:\n      mload(0x40)\n      dup1\n      swap2\n      sub\n      swap1\n      return\n        /* \"Election.sol\":728:768  mapping(address => Voters) public voters */\n    tag_6:\n      tag_28\n      0x04\n      dup1\n      calldatasize\n      sub\n      dup2\n      add\n      swap1\n      tag_29\n      swap2\n      swap1\n      tag_30\n      jump\t// in\n    tag_29:\n      tag_31\n      jump\t// in\n    tag_28:\n      mload(0x40)\n      tag_32\n      swap3\n      swap2\n      swap1\n      tag_33\n      jump\t// in\n    tag_32:\n      mload(0x40)\n      dup1\n      swap2\n      sub\n      swap1\n      return\n        /* \"Election.sol\":2220:2698  function vote(address voter, bytes memory candidateName) public onlyEligibleVoters(voter) {... */\n    tag_7:\n      tag_34\n      0x04\n      dup1\n      calldatasize\n      sub\n      dup2\n      add\n      swap1\n      tag_35\n      swap2\n      swap1\n      tag_36\n      jump\t// in\n    tag_35:\n      tag_37\n      jump\t// in\n    tag_34:\n      stop\n        /* \"Election.sol\":3383:3742  function getResult() public view returns (bytes memory winner) {... */\n    tag_8:\n      tag_38\n      tag_39\n      jump\t// in\n    tag_38:\n      mload(0x40)\n      tag_40\n      swap2\n      swap1\n      tag_41\n      jump\t// in\n    tag_40:\n      mload(0x40)\n      dup1\n      swap2\n      sub\n      swap1\n      return\n        /* \"Election.sol\":545:565  address public admin */\n    tag_9:\n      tag_42\n      tag_43\n      jump\t// in\n    tag_42:\n      mload(0x40)\n      tag_44\n      swap2\n      swap1\n      tag_27\n      jump\t// in\n    tag_44:\n      mload(0x40)\n      dup1\n      swap2\n      sub\n      swap1\n      return\n        /* \"Election.sol\":775:805  Candidates[] public candidates */\n    tag_14:\n      0x02\n      dup2\n      dup2\n      sload\n      dup2\n      lt\n      tag_45\n      jumpi\n      0x00\n      dup1\n      revert\n    tag_45:\n      swap1\n      0x00\n      mstore\n      keccak256(0x00, 0x20)\n      swap1\n      0x02\n      mul\n      add\n      0x00\n      swap2\n      pop\n      swap1\n      pop\n      dup1\n      0x00\n      add\n      dup1\n      sload\n      tag_47\n      swap1\n      tag_48\n      jump\t// in\n    tag_47:\n      dup1\n      0x1f\n      add\n      0x20\n      dup1\n      swap2\n      div\n      mul\n      0x20\n      add\n      mload(0x40)\n      swap1\n      dup2\n      add\n      0x40\n      mstore\n      dup1\n      swap3\n      swap2\n      swap1\n      dup2\n      dup2\n      mstore\n      0x20\n      add\n      dup3\n      dup1\n      sload\n      tag_49\n      swap1\n      tag_48\n      jump\t// in\n    tag_49:\n      dup1\n      iszero\n      tag_50\n      jumpi\n      dup1\n      0x1f\n      lt\n      tag_51\n      jumpi\n      0x0100\n      dup1\n      dup4\n      sload\n      div\n      mul\n      dup4\n      mstore\n      swap2\n      0x20\n      add\n      swap2\n      jump(tag_50)\n    tag_51:\n      dup3\n      add\n      swap2\n      swap1\n      0x00\n      mstore\n      keccak256(0x00, 0x20)\n      swap1\n    tag_52:\n      dup2\n      sload\n      dup2\n      mstore\n      swap1\n      0x01\n      add\n      swap1\n      0x20\n      add\n      dup1\n      dup4\n      gt\n      tag_52\n      jumpi\n      dup3\n      swap1\n      sub\n      0x1f\n      and\n      dup3\n      add\n      swap2\n    tag_50:\n      pop\n      pop\n      pop\n      pop\n      pop\n      swap1\n      dup1\n      0x01\n      add\n      sload\n      swap1\n      pop\n      dup3\n      jump\t// out\n        /* \"Election.sol\":2706:2980  function candidatesVotesCount(bytes memory candidateName) public view returns (uint) {... */\n    tag_20:\n        /* \"Election.sol\":2785:2789  uint */\n      0x00\n        /* \"Election.sol\":2864:2883  uint candidateIndex */\n      dup1\n        /* \"Election.sol\":2886:2918  getCandidateIndex(candidateName) */\n      tag_54\n        /* \"Election.sol\":2904:2917  candidateName */\n      dup4\n        /* \"Election.sol\":2886:2903  getCandidateIndex */\n      tag_55\n        /* \"Election.sol\":2886:2918  getCandidateIndex(candidateName) */\n      jump\t// in\n    tag_54:\n        /* \"Election.sol\":2864:2918  uint candidateIndex = getCandidateIndex(candidateName) */\n      swap1\n      pop\n        /* \"Election.sol\":2936:2946  candidates */\n      0x02\n        /* \"Election.sol\":2947:2961  candidateIndex */\n      dup2\n        /* \"Election.sol\":2936:2962  candidates[candidateIndex] */\n      dup2\n      sload\n      dup2\n      lt\n      tag_56\n      jumpi\n      tag_57\n      tag_58\n      jump\t// in\n    tag_57:\n    tag_56:\n      swap1\n      0x00\n      mstore\n      keccak256(0x00, 0x20)\n      swap1\n      0x02\n      mul\n      add\n        /* \"Election.sol\":2936:2972  candidates[candidateIndex].voteCount */\n      0x01\n      add\n      sload\n        /* \"Election.sol\":2929:2972  return candidates[candidateIndex].voteCount */\n      swap2\n      pop\n      pop\n        /* \"Election.sol\":2706:2980  function candidatesVotesCount(bytes memory candidateName) public view returns (uint) {... */\n      swap2\n      swap1\n      pop\n      jump\t// out\n        /* \"Election.sol\":857:888  address[] public eligibleVoters */\n    tag_25:\n      0x03\n      dup2\n      dup2\n      sload\n      dup2\n      lt\n      tag_60\n      jumpi\n      0x00\n      dup1\n      revert\n    tag_60:\n      swap1\n      0x00\n      mstore\n      keccak256(0x00, 0x20)\n      add\n      0x00\n      swap2\n      pop\n      sload\n      swap1\n      0x0100\n      exp\n      swap1\n      div\n      0xffffffffffffffffffffffffffffffffffffffff\n      and\n      dup2\n      jump\t// out\n        /* \"Election.sol\":728:768  mapping(address => Voters) public voters */\n    tag_31:\n      mstore(0x20, 0x01)\n      dup1\n      0x00\n      mstore\n      keccak256(0x00, 0x40)\n      0x00\n      swap2\n      pop\n      swap1\n      pop\n      dup1\n      0x00\n      add\n      0x00\n      swap1\n      sload\n      swap1\n      0x0100\n      exp\n      swap1\n      div\n      0xff\n      and\n      swap1\n      dup1\n      0x01\n      add\n      sload\n      swap1\n      pop\n      dup3\n      jump\t// out\n        /* \"Election.sol\":2220:2698  function vote(address voter, bytes memory candidateName) public onlyEligibleVoters(voter) {... */\n    tag_37:\n        /* \"Election.sol\":2303:2308  voter */\n      dup2\n        /* \"Election.sol\":1089:1095  voters */\n      0x01\n        /* \"Election.sol\":1089:1102  voters[voter] */\n      0x00\n        /* \"Election.sol\":1096:1101  voter */\n      dup3\n        /* \"Election.sol\":1089:1102  voters[voter] */\n      0xffffffffffffffffffffffffffffffffffffffff\n      and\n      0xffffffffffffffffffffffffffffffffffffffff\n      and\n      dup2\n      mstore\n      0x20\n      add\n      swap1\n      dup2\n      mstore\n      0x20\n      add\n      0x00\n      keccak256\n        /* \"Election.sol\":1089:1111  voters[voter].hasVoted */\n      0x00\n      add\n      0x00\n      swap1\n      sload\n      swap1\n      0x0100\n      exp\n      swap1\n      div\n      0xff\n      and\n        /* \"Election.sol\":1088:1111  !voters[voter].hasVoted */\n      iszero\n        /* \"Election.sol\":1080:1139  require(!voters[voter].hasVoted, \"You have already voted.\") */\n      tag_63\n      jumpi\n      mload(0x40)\n      0x08c379a000000000000000000000000000000000000000000000000000000000\n      dup2\n      mstore\n      0x04\n      add\n      tag_64\n      swap1\n      tag_65\n      jump\t// in\n    tag_64:\n      mload(0x40)\n      dup1\n      swap2\n      sub\n      swap1\n      revert\n    tag_63:\n        /* \"Election.sol\":1158:1180  isVoterEligible(voter) */\n      tag_66\n        /* \"Election.sol\":1174:1179  voter */\n      dup2\n        /* \"Election.sol\":1158:1173  isVoterEligible */\n      tag_67\n        /* \"Election.sol\":1158:1180  isVoterEligible(voter) */\n      jump\t// in\n    tag_66:\n        /* \"Election.sol\":1150:1214  require(isVoterEligible(voter), \"You are not eligible to vote.\") */\n      tag_68\n      jumpi\n      mload(0x40)\n      0x08c379a000000000000000000000000000000000000000000000000000000000\n      dup2\n      mstore\n      0x04\n      add\n      tag_69\n      swap1\n      tag_70\n      jump\t// in\n    tag_69:\n      mload(0x40)\n      dup1\n      swap2\n      sub\n      swap1\n      revert\n    tag_68:\n        /* \"Election.sol\":2363:2398  candidatesVotesCount(candidateName) */\n      tag_72\n        /* \"Election.sol\":2384:2397  candidateName */\n      dup3\n        /* \"Election.sol\":2363:2383  candidatesVotesCount */\n      tag_20\n        /* \"Election.sol\":2363:2398  candidatesVotesCount(candidateName) */\n      jump\t// in\n    tag_72:\n      pop\n        /* \"Election.sol\":2409:2419  candidates */\n      0x02\n        /* \"Election.sol\":2420:2452  getCandidateIndex(candidateName) */\n      tag_73\n        /* \"Election.sol\":2438:2451  candidateName */\n      dup4\n        /* \"Election.sol\":2420:2437  getCandidateIndex */\n      tag_55\n        /* \"Election.sol\":2420:2452  getCandidateIndex(candidateName) */\n      jump\t// in\n    tag_73:\n        /* \"Election.sol\":2409:2453  candidates[getCandidateIndex(candidateName)] */\n      dup2\n      sload\n      dup2\n      lt\n      tag_74\n      jumpi\n      tag_75\n      tag_58\n      jump\t// in\n    tag_75:\n    tag_74:\n      swap1\n      0x00\n      mstore\n      keccak256(0x00, 0x20)\n      swap1\n      0x02\n      mul\n      add\n        /* \"Election.sol\":2409:2463  candidates[getCandidateIndex(candidateName)].voteCount */\n      0x01\n      add\n      0x00\n        /* \"Election.sol\":2409:2465  candidates[getCandidateIndex(candidateName)].voteCount++ */\n      dup2\n      sload\n      dup1\n      swap3\n      swap2\n      swap1\n      tag_77\n      swap1\n      tag_78\n      jump\t// in\n    tag_77:\n      swap2\n      swap1\n      pop\n      sstore\n      pop\n        /* \"Election.sol\":2546:2550  true */\n      0x01\n        /* \"Election.sol\":2521:2527  voters */\n      dup1\n        /* \"Election.sol\":2521:2534  voters[voter] */\n      0x00\n        /* \"Election.sol\":2528:2533  voter */\n      dup6\n        /* \"Election.sol\":2521:2534  voters[voter] */\n      0xffffffffffffffffffffffffffffffffffffffff\n      and\n      0xffffffffffffffffffffffffffffffffffffffff\n      and\n      dup2\n      mstore\n      0x20\n      add\n      swap1\n      dup2\n      mstore\n      0x20\n      add\n      0x00\n      keccak256\n        /* \"Election.sol\":2521:2543  voters[voter].hasVoted */\n      0x00\n      add\n      0x00\n        /* \"Election.sol\":2521:2550  voters[voter].hasVoted = true */\n      0x0100\n      exp\n      dup2\n      sload\n      dup2\n      0xff\n      mul\n      not\n      and\n      swap1\n      dup4\n      iszero\n      iszero\n      mul\n      or\n      swap1\n      sstore\n      pop\n        /* \"Election.sol\":2582:2614  getCandidateIndex(candidateName) */\n      tag_79\n        /* \"Election.sol\":2600:2613  candidateName */\n      dup3\n        /* \"Election.sol\":2582:2599  getCandidateIndex */\n      tag_55\n        /* \"Election.sol\":2582:2614  getCandidateIndex(candidateName) */\n      jump\t// in\n    tag_79:\n        /* \"Election.sol\":2561:2567  voters */\n      0x01\n        /* \"Election.sol\":2561:2574  voters[voter] */\n      0x00\n        /* \"Election.sol\":2568:2573  voter */\n      dup6\n        /* \"Election.sol\":2561:2574  voters[voter] */\n      0xffffffffffffffffffffffffffffffffffffffff\n      and\n      0xffffffffffffffffffffffffffffffffffffffff\n      and\n      dup2\n      mstore\n      0x20\n      add\n      swap1\n      dup2\n      mstore\n      0x20\n      add\n      0x00\n      keccak256\n        /* \"Election.sol\":2561:2579  voters[voter].vote */\n      0x01\n      add\n        /* \"Election.sol\":2561:2614  voters[voter].vote = getCandidateIndex(candidateName) */\n      dup2\n      swap1\n      sstore\n      pop\n        /* \"Election.sol\":2676:2689  candidateName */\n      dup2\n        /* \"Election.sol\":2664:2690  Vote(voter, candidateName) */\n      mload(0x40)\n      tag_80\n      swap2\n      swap1\n      tag_81\n      jump\t// in\n    tag_80:\n      mload(0x40)\n      dup1\n      swap2\n      sub\n      swap1\n      keccak256\n        /* \"Election.sol\":2669:2674  voter */\n      dup4\n        /* \"Election.sol\":2664:2690  Vote(voter, candidateName) */\n      0xffffffffffffffffffffffffffffffffffffffff\n      and\n      0x1bacfd660758a6eee44b9973ba8e452aad60edbcffc67bbae34e8cb3fa3e52da\n      mload(0x40)\n      mload(0x40)\n      dup1\n      swap2\n      sub\n      swap1\n      log3\n        /* \"Election.sol\":2220:2698  function vote(address voter, bytes memory candidateName) public onlyEligibleVoters(voter) {... */\n      pop\n      pop\n      pop\n      jump\t// out\n        /* \"Election.sol\":3383:3742  function getResult() public view returns (bytes memory winner) {... */\n    tag_39:\n        /* \"Election.sol\":3425:3444  bytes memory winner */\n      0x60\n        /* \"Election.sol\":3457:3470  uint maxVotes */\n      0x00\n        /* \"Election.sol\":3490:3496  uint i */\n      dup1\n        /* \"Election.sol\":3485:3711  for (uint i = 0; i < candidates.length; i++) {... */\n    tag_83:\n        /* \"Election.sol\":3506:3516  candidates */\n      0x02\n        /* \"Election.sol\":3506:3523  candidates.length */\n      dup1\n      sload\n      swap1\n      pop\n        /* \"Election.sol\":3502:3503  i */\n      dup2\n        /* \"Election.sol\":3502:3523  i < candidates.length */\n      lt\n        /* \"Election.sol\":3485:3711  for (uint i = 0; i < candidates.length; i++) {... */\n      iszero\n      tag_84\n      jumpi\n        /* \"Election.sol\":3575:3583  maxVotes */\n      dup2\n        /* \"Election.sol\":3549:3559  candidates */\n      0x02\n        /* \"Election.sol\":3560:3561  i */\n      dup3\n        /* \"Election.sol\":3549:3562  candidates[i] */\n      dup2\n      sload\n      dup2\n      lt\n      tag_86\n      jumpi\n      tag_87\n      tag_58\n      jump\t// in\n    tag_87:\n    tag_86:\n      swap1\n      0x00\n      mstore\n      keccak256(0x00, 0x20)\n      swap1\n      0x02\n      mul\n      add\n        /* \"Election.sol\":3549:3572  candidates[i].voteCount */\n      0x01\n      add\n      sload\n        /* \"Election.sol\":3549:3583  candidates[i].voteCount > maxVotes */\n      gt\n        /* \"Election.sol\":3545:3700  if (candidates[i].voteCount > maxVotes) {... */\n      iszero\n      tag_89\n      jumpi\n        /* \"Election.sol\":3615:3625  candidates */\n      0x02\n        /* \"Election.sol\":3626:3627  i */\n      dup2\n        /* \"Election.sol\":3615:3628  candidates[i] */\n      dup2\n      sload\n      dup2\n      lt\n      tag_90\n      jumpi\n      tag_91\n      tag_58\n      jump\t// in\n    tag_91:\n    tag_90:\n      swap1\n      0x00\n      mstore\n      keccak256(0x00, 0x20)\n      swap1\n      0x02\n      mul\n      add\n        /* \"Election.sol\":3615:3638  candidates[i].voteCount */\n      0x01\n      add\n      sload\n        /* \"Election.sol\":3604:3638  maxVotes = candidates[i].voteCount */\n      swap2\n      pop\n        /* \"Election.sol\":3666:3676  candidates */\n      0x02\n        /* \"Election.sol\":3677:3678  i */\n      dup2\n        /* \"Election.sol\":3666:3679  candidates[i] */\n      dup2\n      sload\n      dup2\n      lt\n      tag_93\n      jumpi\n      tag_94\n      tag_58\n      jump\t// in\n    tag_94:\n    tag_93:\n      swap1\n      0x00\n      mstore\n      keccak256(0x00, 0x20)\n      swap1\n      0x02\n      mul\n      add\n        /* \"Election.sol\":3666:3684  candidates[i].name */\n      0x00\n      add\n        /* \"Election.sol\":3657:3684  winner = candidates[i].name */\n      dup1\n      sload\n      tag_96\n      swap1\n      tag_48\n      jump\t// in\n    tag_96:\n      dup1\n      0x1f\n      add\n      0x20\n      dup1\n      swap2\n      div\n      mul\n      0x20\n      add\n      mload(0x40)\n      swap1\n      dup2\n      add\n      0x40\n      mstore\n      dup1\n      swap3\n      swap2\n      swap1\n      dup2\n      dup2\n      mstore\n      0x20\n      add\n      dup3\n      dup1\n      sload\n      tag_97\n      swap1\n      tag_48\n      jump\t// in\n    tag_97:\n      dup1\n      iszero\n      tag_98\n      jumpi\n      dup1\n      0x1f\n      lt\n      tag_99\n      jumpi\n      0x0100\n      dup1\n      dup4\n      sload\n      div\n      mul\n      dup4\n      mstore\n      swap2\n      0x20\n      add\n      swap2\n      jump(tag_98)\n    tag_99:\n      dup3\n      add\n      swap2\n      swap1\n      0x00\n      mstore\n      keccak256(0x00, 0x20)\n      swap1\n    tag_100:\n      dup2\n      sload\n      dup2\n      mstore\n      swap1\n      0x01\n      add\n      swap1\n      0x20\n      add\n      dup1\n      dup4\n      gt\n      tag_100\n      jumpi\n      dup3\n      swap1\n      sub\n      0x1f\n      and\n      dup3\n      add\n      swap2\n    tag_98:\n      pop\n      pop\n      pop\n      pop\n      pop\n      swap3\n      pop\n        /* \"Election.sol\":3545:3700  if (candidates[i].voteCount > maxVotes) {... */\n    tag_89:\n        /* \"Election.sol\":3525:3528  i++ */\n      dup1\n      dup1\n      0x01\n      add\n      swap2\n      pop\n      pop\n        /* \"Election.sol\":3485:3711  for (uint i = 0; i < candidates.length; i++) {... */\n      jump(tag_83)\n    tag_84:\n      pop\n        /* \"Election.sol\":3721:3734  return winner */\n      pop\n        /* \"Election.sol\":3383:3742  function getResult() public view returns (bytes memory winner) {... */\n      swap1\n      jump\t// out\n        /* \"Election.sol\":545:565  address public admin */\n    tag_43:\n      0x00\n      dup1\n      sload\n      swap1\n      0x0100\n      exp\n      swap1\n      div\n      0xffffffffffffffffffffffffffffffffffffffff\n      and\n      dup2\n      jump\t// out\n        /* \"Election.sol\":2988:3375  function getCandidateIndex(bytes memory candidateName) internal view returns (uint) {... */\n    tag_55:\n        /* \"Election.sol\":3066:3070  uint */\n      0x00\n        /* \"Election.sol\":3156:3162  uint i */\n      dup1\n        /* \"Election.sol\":3165:3166  0 */\n      0x00\n        /* \"Election.sol\":3156:3166  uint i = 0 */\n      swap1\n      pop\n        /* \"Election.sol\":3151:3328  for (uint i = 0; i < candidates.length; i++) {... */\n    tag_102:\n        /* \"Election.sol\":3172:3182  candidates */\n      0x02\n        /* \"Election.sol\":3172:3189  candidates.length */\n      dup1\n      sload\n      swap1\n      pop\n        /* \"Election.sol\":3168:3169  i */\n      dup2\n        /* \"Election.sol\":3168:3189  i < candidates.length */\n      lt\n        /* \"Election.sol\":3151:3328  for (uint i = 0; i < candidates.length; i++) {... */\n      iszero\n      tag_103\n      jumpi\n        /* \"Election.sol\":3258:3271  candidateName */\n      dup3\n        /* \"Election.sol\":3248:3272  keccak256(candidateName) */\n      dup1\n      mload\n      swap1\n      0x20\n      add\n      keccak256\n        /* \"Election.sol\":3225:3235  candidates */\n      0x02\n        /* \"Election.sol\":3236:3237  i */\n      dup3\n        /* \"Election.sol\":3225:3238  candidates[i] */\n      dup2\n      sload\n      dup2\n      lt\n      tag_105\n      jumpi\n      tag_106\n      tag_58\n      jump\t// in\n    tag_106:\n    tag_105:\n      swap1\n      0x00\n      mstore\n      keccak256(0x00, 0x20)\n      swap1\n      0x02\n      mul\n      add\n        /* \"Election.sol\":3225:3243  candidates[i].name */\n      0x00\n      add\n        /* \"Election.sol\":3215:3244  keccak256(candidates[i].name) */\n      mload(0x40)\n      tag_108\n      swap2\n      swap1\n      tag_109\n      jump\t// in\n    tag_108:\n      mload(0x40)\n      dup1\n      swap2\n      sub\n      swap1\n      keccak256\n        /* \"Election.sol\":3215:3272  keccak256(candidates[i].name) == keccak256(candidateName) */\n      sub\n        /* \"Election.sol\":3211:3317  if (keccak256(candidates[i].name) == keccak256(candidateName)) {... */\n      tag_110\n      jumpi\n        /* \"Election.sol\":3300:3301  i */\n      dup1\n        /* \"Election.sol\":3293:3301  return i */\n      swap2\n      pop\n      pop\n      jump(tag_101)\n        /* \"Election.sol\":3211:3317  if (keccak256(candidates[i].name) == keccak256(candidateName)) {... */\n    tag_110:\n        /* \"Election.sol\":3191:3194  i++ */\n      dup1\n      dup1\n      0x01\n      add\n      swap2\n      pop\n      pop\n        /* \"Election.sol\":3151:3328  for (uint i = 0; i < candidates.length; i++) {... */\n      jump(tag_102)\n    tag_103:\n      pop\n        /* \"Election.sol\":3338:3367  revert(\"Candidate not found\") */\n      mload(0x40)\n      0x08c379a000000000000000000000000000000000000000000000000000000000\n      dup2\n      mstore\n      0x04\n      add\n      tag_111\n      swap1\n      tag_112\n      jump\t// in\n    tag_111:\n      mload(0x40)\n      dup1\n      swap2\n      sub\n      swap1\n      revert\n        /* \"Election.sol\":2988:3375  function getCandidateIndex(bytes memory candidateName) internal view returns (uint) {... */\n    tag_101:\n      swap2\n      swap1\n      pop\n      jump\t// out\n        /* \"Election.sol\":1949:2212  function isVoterEligible(address voter) internal view returns (bool) {... */\n    tag_67:\n        /* \"Election.sol\":2012:2016  bool */\n      0x00\n        /* \"Election.sol\":2034:2040  uint i */\n      dup1\n        /* \"Election.sol\":2043:2044  0 */\n      0x00\n        /* \"Election.sol\":2034:2044  uint i = 0 */\n      swap1\n      pop\n        /* \"Election.sol\":2029:2182  for (uint i = 0; i < eligibleVoters.length; i++) {... */\n    tag_114:\n        /* \"Election.sol\":2050:2064  eligibleVoters */\n      0x03\n        /* \"Election.sol\":2050:2071  eligibleVoters.length */\n      dup1\n      sload\n      swap1\n      pop\n        /* \"Election.sol\":2046:2047  i */\n      dup2\n        /* \"Election.sol\":2046:2071  i < eligibleVoters.length */\n      lt\n        /* \"Election.sol\":2029:2182  for (uint i = 0; i < eligibleVoters.length; i++) {... */\n      iszero\n      tag_115\n      jumpi\n        /* \"Election.sol\":2118:2123  voter */\n      dup3\n        /* \"Election.sol\":2097:2123  eligibleVoters[i] == voter */\n      0xffffffffffffffffffffffffffffffffffffffff\n      and\n        /* \"Election.sol\":2097:2111  eligibleVoters */\n      0x03\n        /* \"Election.sol\":2112:2113  i */\n      dup3\n        /* \"Election.sol\":2097:2114  eligibleVoters[i] */\n      dup2\n      sload\n      dup2\n      lt\n      tag_117\n      jumpi\n      tag_118\n      tag_58\n      jump\t// in\n    tag_118:\n    tag_117:\n      swap1\n      0x00\n      mstore\n      keccak256(0x00, 0x20)\n      add\n      0x00\n      swap1\n      sload\n      swap1\n      0x0100\n      exp\n      swap1\n      div\n      0xffffffffffffffffffffffffffffffffffffffff\n      and\n        /* \"Election.sol\":2097:2123  eligibleVoters[i] == voter */\n      0xffffffffffffffffffffffffffffffffffffffff\n      and\n      sub\n        /* \"Election.sol\":2093:2171  if (eligibleVoters[i] == voter) {... */\n      tag_120\n      jumpi\n        /* \"Election.sol\":2151:2155  true */\n      0x01\n        /* \"Election.sol\":2144:2155  return true */\n      swap2\n      pop\n      pop\n      jump(tag_113)\n        /* \"Election.sol\":2093:2171  if (eligibleVoters[i] == voter) {... */\n    tag_120:\n        /* \"Election.sol\":2073:2076  i++ */\n      dup1\n      dup1\n      0x01\n      add\n      swap2\n      pop\n      pop\n        /* \"Election.sol\":2029:2182  for (uint i = 0; i < eligibleVoters.length; i++) {... */\n      jump(tag_114)\n    tag_115:\n      pop\n        /* \"Election.sol\":2199:2204  false */\n      0x00\n        /* \"Election.sol\":2192:2204  return false */\n      swap1\n      pop\n        /* \"Election.sol\":1949:2212  function isVoterEligible(address voter) internal view returns (bool) {... */\n    tag_113:\n      swap2\n      swap1\n      pop\n      jump\t// out\n        /* \"#utility.yul\":7:82   */\n    tag_121:\n        /* \"#utility.yul\":40:46   */\n      0x00\n        /* \"#utility.yul\":73:75   */\n      0x40\n        /* \"#utility.yul\":67:76   */\n      mload\n        /* \"#utility.yul\":57:76   */\n      swap1\n      pop\n        /* \"#utility.yul\":7:82   */\n      swap1\n      jump\t// out\n        /* \"#utility.yul\":88:205   */\n    tag_122:\n        /* \"#utility.yul\":197:198   */\n      0x00\n        /* \"#utility.yul\":194:195   */\n      dup1\n        /* \"#utility.yul\":187:199   */\n      revert\n        /* \"#utility.yul\":211:328   */\n    tag_123:\n        /* \"#utility.yul\":320:321   */\n      0x00\n        /* \"#utility.yul\":317:318   */\n      dup1\n        /* \"#utility.yul\":310:322   */\n      revert\n        /* \"#utility.yul\":334:411   */\n    tag_124:\n        /* \"#utility.yul\":371:378   */\n      0x00\n        /* \"#utility.yul\":400:405   */\n      dup2\n        /* \"#utility.yul\":389:405   */\n      swap1\n      pop\n        /* \"#utility.yul\":334:411   */\n      swap2\n      swap1\n      pop\n      jump\t// out\n        /* \"#utility.yul\":417:539   */\n    tag_125:\n        /* \"#utility.yul\":490:514   */\n      tag_168\n        /* \"#utility.yul\":508:513   */\n      dup2\n        /* \"#utility.yul\":490:514   */\n      tag_124\n      jump\t// in\n    tag_168:\n        /* \"#utility.yul\":483:488   */\n      dup2\n        /* \"#utility.yul\":480:515   */\n      eq\n        /* \"#utility.yul\":470:533   */\n      tag_169\n      jumpi\n        /* \"#utility.yul\":529:530   */\n      0x00\n        /* \"#utility.yul\":526:527   */\n      dup1\n        /* \"#utility.yul\":519:531   */\n      revert\n        /* \"#utility.yul\":470:533   */\n    tag_169:\n        /* \"#utility.yul\":417:539   */\n      pop\n      jump\t// out\n        /* \"#utility.yul\":545:684   */\n    tag_126:\n        /* \"#utility.yul\":591:596   */\n      0x00\n        /* \"#utility.yul\":629:635   */\n      dup2\n        /* \"#utility.yul\":616:636   */\n      calldataload\n        /* \"#utility.yul\":607:636   */\n      swap1\n      pop\n        /* \"#utility.yul\":645:678   */\n      tag_171\n        /* \"#utility.yul\":672:677   */\n      dup2\n        /* \"#utility.yul\":645:678   */\n      tag_125\n      jump\t// in\n    tag_171:\n        /* \"#utility.yul\":545:684   */\n      swap3\n      swap2\n      pop\n      pop\n      jump\t// out\n        /* \"#utility.yul\":690:1019   */\n    tag_13:\n        /* \"#utility.yul\":749:755   */\n      0x00\n        /* \"#utility.yul\":798:800   */\n      0x20\n        /* \"#utility.yul\":786:795   */\n      dup3\n        /* \"#utility.yul\":777:784   */\n      dup5\n        /* \"#utility.yul\":773:796   */\n      sub\n        /* \"#utility.yul\":769:801   */\n      slt\n        /* \"#utility.yul\":766:885   */\n      iszero\n      tag_173\n      jumpi\n        /* \"#utility.yul\":804:883   */\n      tag_174\n      tag_122\n      jump\t// in\n    tag_174:\n        /* \"#utility.yul\":766:885   */\n    tag_173:\n        /* \"#utility.yul\":924:925   */\n      0x00\n        /* \"#utility.yul\":949:1002   */\n      tag_175\n        /* \"#utility.yul\":994:1001   */\n      dup5\n        /* \"#utility.yul\":985:991   */\n      dup3\n        /* \"#utility.yul\":974:983   */\n      dup6\n        /* \"#utility.yul\":970:992   */\n      add\n        /* \"#utility.yul\":949:1002   */\n      tag_126\n      jump\t// in\n    tag_175:\n        /* \"#utility.yul\":939:1002   */\n      swap2\n      pop\n        /* \"#utility.yul\":895:1012   */\n      pop\n        /* \"#utility.yul\":690:1019   */\n      swap3\n      swap2\n      pop\n      pop\n      jump\t// out\n        /* \"#utility.yul\":1025:1123   */\n    tag_127:\n        /* \"#utility.yul\":1076:1082   */\n      0x00\n        /* \"#utility.yul\":1110:1115   */\n      dup2\n        /* \"#utility.yul\":1104:1116   */\n      mload\n        /* \"#utility.yul\":1094:1116   */\n      swap1\n      pop\n        /* \"#utility.yul\":1025:1123   */\n      swap2\n      swap1\n      pop\n      jump\t// out\n        /* \"#utility.yul\":1129:1297   */\n    tag_128:\n        /* \"#utility.yul\":1212:1223   */\n      0x00\n        /* \"#utility.yul\":1246:1252   */\n      dup3\n        /* \"#utility.yul\":1241:1244   */\n      dup3\n        /* \"#utility.yul\":1234:1253   */\n      mstore\n        /* \"#utility.yul\":1286:1290   */\n      0x20\n        /* \"#utility.yul\":1281:1284   */\n      dup3\n        /* \"#utility.yul\":1277:1291   */\n      add\n        /* \"#utility.yul\":1262:1291   */\n      swap1\n      pop\n        /* \"#utility.yul\":1129:1297   */\n      swap3\n      swap2\n      pop\n      pop\n      jump\t// out\n        /* \"#utility.yul\":1303:1549   */\n    tag_129:\n        /* \"#utility.yul\":1384:1385   */\n      0x00\n        /* \"#utility.yul\":1394:1507   */\n    tag_179:\n        /* \"#utility.yul\":1408:1414   */\n      dup4\n        /* \"#utility.yul\":1405:1406   */\n      dup2\n        /* \"#utility.yul\":1402:1415   */\n      lt\n        /* \"#utility.yul\":1394:1507   */\n      iszero\n      tag_181\n      jumpi\n        /* \"#utility.yul\":1493:1494   */\n      dup1\n        /* \"#utility.yul\":1488:1491   */\n      dup3\n        /* \"#utility.yul\":1484:1495   */\n      add\n        /* \"#utility.yul\":1478:1496   */\n      mload\n        /* \"#utility.yul\":1474:1475   */\n      dup2\n        /* \"#utility.yul\":1469:1472   */\n      dup5\n        /* \"#utility.yul\":1465:1476   */\n      add\n        /* \"#utility.yul\":1458:1497   */\n      mstore\n        /* \"#utility.yul\":1430:1432   */\n      0x20\n        /* \"#utility.yul\":1427:1428   */\n      dup2\n        /* \"#utility.yul\":1423:1433   */\n      add\n        /* \"#utility.yul\":1418:1433   */\n      swap1\n      pop\n        /* \"#utility.yul\":1394:1507   */\n      jump(tag_179)\n    tag_181:\n        /* \"#utility.yul\":1541:1542   */\n      0x00\n        /* \"#utility.yul\":1532:1538   */\n      dup5\n        /* \"#utility.yul\":1527:1530   */\n      dup5\n        /* \"#utility.yul\":1523:1539   */\n      add\n        /* \"#utility.yul\":1516:1543   */\n      mstore\n        /* \"#utility.yul\":1365:1549   */\n      pop\n        /* \"#utility.yul\":1303:1549   */\n      pop\n      pop\n      pop\n      jump\t// out\n        /* \"#utility.yul\":1555:1657   */\n    tag_130:\n        /* \"#utility.yul\":1596:1602   */\n      0x00\n        /* \"#utility.yul\":1647:1649   */\n      0x1f\n        /* \"#utility.yul\":1643:1650   */\n      not\n        /* \"#utility.yul\":1638:1640   */\n      0x1f\n        /* \"#utility.yul\":1631:1636   */\n      dup4\n        /* \"#utility.yul\":1627:1641   */\n      add\n        /* \"#utility.yul\":1623:1651   */\n      and\n        /* \"#utility.yul\":1613:1651   */\n      swap1\n      pop\n        /* \"#utility.yul\":1555:1657   */\n      swap2\n      swap1\n      pop\n      jump\t// out\n        /* \"#utility.yul\":1663:2036   */\n    tag_131:\n        /* \"#utility.yul\":1749:1752   */\n      0x00\n        /* \"#utility.yul\":1777:1815   */\n      tag_184\n        /* \"#utility.yul\":1809:1814   */\n      dup3\n        /* \"#utility.yul\":1777:1815   */\n      tag_127\n      jump\t// in\n    tag_184:\n        /* \"#utility.yul\":1831:1901   */\n      tag_185\n        /* \"#utility.yul\":1894:1900   */\n      dup2\n        /* \"#utility.yul\":1889:1892   */\n      dup6\n        /* \"#utility.yul\":1831:1901   */\n      tag_128\n      jump\t// in\n    tag_185:\n        /* \"#utility.yul\":1824:1901   */\n      swap4\n      pop\n        /* \"#utility.yul\":1910:1975   */\n      tag_186\n        /* \"#utility.yul\":1968:1974   */\n      dup2\n        /* \"#utility.yul\":1963:1966   */\n      dup6\n        /* \"#utility.yul\":1956:1960   */\n      0x20\n        /* \"#utility.yul\":1949:1954   */\n      dup7\n        /* \"#utility.yul\":1945:1961   */\n      add\n        /* \"#utility.yul\":1910:1975   */\n      tag_129\n      jump\t// in\n    tag_186:\n        /* \"#utility.yul\":2000:2029   */\n      tag_187\n        /* \"#utility.yul\":2022:2028   */\n      dup2\n        /* \"#utility.yul\":2000:2029   */\n      tag_130\n      jump\t// in\n    tag_187:\n        /* \"#utility.yul\":1995:1998   */\n      dup5\n        /* \"#utility.yul\":1991:2030   */\n      add\n        /* \"#utility.yul\":1984:2030   */\n      swap2\n      pop\n        /* \"#utility.yul\":1753:2036   */\n      pop\n        /* \"#utility.yul\":1663:2036   */\n      swap3\n      swap2\n      pop\n      pop\n      jump\t// out\n        /* \"#utility.yul\":2042:2160   */\n    tag_132:\n        /* \"#utility.yul\":2129:2153   */\n      tag_189\n        /* \"#utility.yul\":2147:2152   */\n      dup2\n        /* \"#utility.yul\":2129:2153   */\n      tag_124\n      jump\t// in\n    tag_189:\n        /* \"#utility.yul\":2124:2127   */\n      dup3\n        /* \"#utility.yul\":2117:2154   */\n      mstore\n        /* \"#utility.yul\":2042:2160   */\n      pop\n      pop\n      jump\t// out\n        /* \"#utility.yul\":2166:2585   */\n    tag_16:\n        /* \"#utility.yul\":2305:2309   */\n      0x00\n        /* \"#utility.yul\":2343:2345   */\n      0x40\n        /* \"#utility.yul\":2332:2341   */\n      dup3\n        /* \"#utility.yul\":2328:2346   */\n      add\n        /* \"#utility.yul\":2320:2346   */\n      swap1\n      pop\n        /* \"#utility.yul\":2392:2401   */\n      dup2\n        /* \"#utility.yul\":2386:2390   */\n      dup2\n        /* \"#utility.yul\":2382:2402   */\n      sub\n        /* \"#utility.yul\":2378:2379   */\n      0x00\n        /* \"#utility.yul\":2367:2376   */\n      dup4\n        /* \"#utility.yul\":2363:2380   */\n      add\n        /* \"#utility.yul\":2356:2403   */\n      mstore\n        /* \"#utility.yul\":2420:2496   */\n      tag_191\n        /* \"#utility.yul\":2491:2495   */\n      dup2\n        /* \"#utility.yul\":2482:2488   */\n      dup6\n        /* \"#utility.yul\":2420:2496   */\n      tag_131\n      jump\t// in\n    tag_191:\n        /* \"#utility.yul\":2412:2496   */\n      swap1\n      pop\n        /* \"#utility.yul\":2506:2578   */\n      tag_192\n        /* \"#utility.yul\":2574:2576   */\n      0x20\n        /* \"#utility.yul\":2563:2572   */\n      dup4\n        /* \"#utility.yul\":2559:2577   */\n      add\n        /* \"#utility.yul\":2550:2556   */\n      dup5\n        /* \"#utility.yul\":2506:2578   */\n      tag_132\n      jump\t// in\n    tag_192:\n        /* \"#utility.yul\":2166:2585   */\n      swap4\n      swap3\n      pop\n      pop\n      pop\n      jump\t// out\n        /* \"#utility.yul\":2591:2708   */\n    tag_133:\n        /* \"#utility.yul\":2700:2701   */\n      0x00\n        /* \"#utility.yul\":2697:2698   */\n      dup1\n        /* \"#utility.yul\":2690:2702   */\n      revert\n        /* \"#utility.yul\":2714:2831   */\n    tag_134:\n        /* \"#utility.yul\":2823:2824   */\n      0x00\n        /* \"#utility.yul\":2820:2821   */\n      dup1\n        /* \"#utility.yul\":2813:2825   */\n      revert\n        /* \"#utility.yul\":2837:3017   */\n    tag_135:\n        /* \"#utility.yul\":2885:2962   */\n      0x4e487b7100000000000000000000000000000000000000000000000000000000\n        /* \"#utility.yul\":2882:2883   */\n      0x00\n        /* \"#utility.yul\":2875:2963   */\n      mstore\n        /* \"#utility.yul\":2982:2986   */\n      0x41\n        /* \"#utility.yul\":2979:2980   */\n      0x04\n        /* \"#utility.yul\":2972:2987   */\n      mstore\n        /* \"#utility.yul\":3006:3010   */\n      0x24\n        /* \"#utility.yul\":3003:3004   */\n      0x00\n        /* \"#utility.yul\":2996:3011   */\n      revert\n        /* \"#utility.yul\":3023:3304   */\n    tag_136:\n        /* \"#utility.yul\":3106:3133   */\n      tag_197\n        /* \"#utility.yul\":3128:3132   */\n      dup3\n        /* \"#utility.yul\":3106:3133   */\n      tag_130\n      jump\t// in\n    tag_197:\n        /* \"#utility.yul\":3098:3104   */\n      dup2\n        /* \"#utility.yul\":3094:3134   */\n      add\n        /* \"#utility.yul\":3236:3242   */\n      dup2\n        /* \"#utility.yul\":3224:3234   */\n      dup2\n        /* \"#utility.yul\":3221:3243   */\n      lt\n        /* \"#utility.yul\":3200:3218   */\n      0xffffffffffffffff\n        /* \"#utility.yul\":3188:3198   */\n      dup3\n        /* \"#utility.yul\":3185:3219   */\n      gt\n        /* \"#utility.yul\":3182:3244   */\n      or\n        /* \"#utility.yul\":3179:3267   */\n      iszero\n      tag_198\n      jumpi\n        /* \"#utility.yul\":3247:3265   */\n      tag_199\n      tag_135\n      jump\t// in\n    tag_199:\n        /* \"#utility.yul\":3179:3267   */\n    tag_198:\n        /* \"#utility.yul\":3287:3297   */\n      dup1\n        /* \"#utility.yul\":3283:3285   */\n      0x40\n        /* \"#utility.yul\":3276:3298   */\n      mstore\n        /* \"#utility.yul\":3066:3304   */\n      pop\n        /* \"#utility.yul\":3023:3304   */\n      pop\n      pop\n      jump\t// out\n        /* \"#utility.yul\":3310:3439   */\n    tag_137:\n        /* \"#utility.yul\":3344:3350   */\n      0x00\n        /* \"#utility.yul\":3371:3391   */\n      tag_201\n      tag_121\n      jump\t// in\n    tag_201:\n        /* \"#utility.yul\":3361:3391   */\n      swap1\n      pop\n        /* \"#utility.yul\":3400:3433   */\n      tag_202\n        /* \"#utility.yul\":3428:3432   */\n      dup3\n        /* \"#utility.yul\":3420:3426   */\n      dup3\n        /* \"#utility.yul\":3400:3433   */\n      tag_136\n      jump\t// in\n    tag_202:\n        /* \"#utility.yul\":3310:3439   */\n      swap2\n      swap1\n      pop\n      jump\t// out\n        /* \"#utility.yul\":3445:3752   */\n    tag_138:\n        /* \"#utility.yul\":3506:3510   */\n      0x00\n        /* \"#utility.yul\":3596:3614   */\n      0xffffffffffffffff\n        /* \"#utility.yul\":3588:3594   */\n      dup3\n        /* \"#utility.yul\":3585:3615   */\n      gt\n        /* \"#utility.yul\":3582:3638   */\n      iszero\n      tag_204\n      jumpi\n        /* \"#utility.yul\":3618:3636   */\n      tag_205\n      tag_135\n      jump\t// in\n    tag_205:\n        /* \"#utility.yul\":3582:3638   */\n    tag_204:\n        /* \"#utility.yul\":3656:3685   */\n      tag_206\n        /* \"#utility.yul\":3678:3684   */\n      dup3\n        /* \"#utility.yul\":3656:3685   */\n      tag_130\n      jump\t// in\n    tag_206:\n        /* \"#utility.yul\":3648:3685   */\n      swap1\n      pop\n        /* \"#utility.yul\":3740:3744   */\n      0x20\n        /* \"#utility.yul\":3734:3738   */\n      dup2\n        /* \"#utility.yul\":3730:3745   */\n      add\n        /* \"#utility.yul\":3722:3745   */\n      swap1\n      pop\n        /* \"#utility.yul\":3445:3752   */\n      swap2\n      swap1\n      pop\n      jump\t// out\n        /* \"#utility.yul\":3758:3904   */\n    tag_139:\n        /* \"#utility.yul\":3855:3861   */\n      dup3\n        /* \"#utility.yul\":3850:3853   */\n      dup2\n        /* \"#utility.yul\":3845:3848   */\n      dup4\n        /* \"#utility.yul\":3832:3862   */\n      calldatacopy\n        /* \"#utility.yul\":3896:3897   */\n      0x00\n        /* \"#utility.yul\":3887:3893   */\n      dup4\n        /* \"#utility.yul\":3882:3885   */\n      dup4\n        /* \"#utility.yul\":3878:3894   */\n      add\n        /* \"#utility.yul\":3871:3898   */\n      mstore\n        /* \"#utility.yul\":3758:3904   */\n      pop\n      pop\n      pop\n      jump\t// out\n        /* \"#utility.yul\":3910:4333   */\n    tag_140:\n        /* \"#utility.yul\":3987:3992   */\n      0x00\n        /* \"#utility.yul\":4012:4077   */\n      tag_209\n        /* \"#utility.yul\":4028:4076   */\n      tag_210\n        /* \"#utility.yul\":4069:4075   */\n      dup5\n        /* \"#utility.yul\":4028:4076   */\n      tag_138\n      jump\t// in\n    tag_210:\n        /* \"#utility.yul\":4012:4077   */\n      tag_137\n      jump\t// in\n    tag_209:\n        /* \"#utility.yul\":4003:4077   */\n      swap1\n      pop\n        /* \"#utility.yul\":4100:4106   */\n      dup3\n        /* \"#utility.yul\":4093:4098   */\n      dup2\n        /* \"#utility.yul\":4086:4107   */\n      mstore\n        /* \"#utility.yul\":4138:4142   */\n      0x20\n        /* \"#utility.yul\":4131:4136   */\n      dup2\n        /* \"#utility.yul\":4127:4143   */\n      add\n        /* \"#utility.yul\":4176:4179   */\n      dup5\n        /* \"#utility.yul\":4167:4173   */\n      dup5\n        /* \"#utility.yul\":4162:4165   */\n      dup5\n        /* \"#utility.yul\":4158:4174   */\n      add\n        /* \"#utility.yul\":4155:4180   */\n      gt\n        /* \"#utility.yul\":4152:4264   */\n      iszero\n      tag_211\n      jumpi\n        /* \"#utility.yul\":4183:4262   */\n      tag_212\n      tag_134\n      jump\t// in\n    tag_212:\n        /* \"#utility.yul\":4152:4264   */\n    tag_211:\n        /* \"#utility.yul\":4273:4327   */\n      tag_213\n        /* \"#utility.yul\":4320:4326   */\n      dup5\n        /* \"#utility.yul\":4315:4318   */\n      dup3\n        /* \"#utility.yul\":4310:4313   */\n      dup6\n        /* \"#utility.yul\":4273:4327   */\n      tag_139\n      jump\t// in\n    tag_213:\n        /* \"#utility.yul\":3993:4333   */\n      pop\n        /* \"#utility.yul\":3910:4333   */\n      swap4\n      swap3\n      pop\n      pop\n      pop\n      jump\t// out\n        /* \"#utility.yul\":4352:4690   */\n    tag_141:\n        /* \"#utility.yul\":4407:4412   */\n      0x00\n        /* \"#utility.yul\":4456:4459   */\n      dup3\n        /* \"#utility.yul\":4449:4453   */\n      0x1f\n        /* \"#utility.yul\":4441:4447   */\n      dup4\n        /* \"#utility.yul\":4437:4454   */\n      add\n        /* \"#utility.yul\":4433:4460   */\n      slt\n        /* \"#utility.yul\":4423:4545   */\n      tag_215\n      jumpi\n        /* \"#utility.yul\":4464:4543   */\n      tag_216\n      tag_133\n      jump\t// in\n    tag_216:\n        /* \"#utility.yul\":4423:4545   */\n    tag_215:\n        /* \"#utility.yul\":4581:4587   */\n      dup2\n        /* \"#utility.yul\":4568:4588   */\n      calldataload\n        /* \"#utility.yul\":4606:4684   */\n      tag_217\n        /* \"#utility.yul\":4680:4683   */\n      dup5\n        /* \"#utility.yul\":4672:4678   */\n      dup3\n        /* \"#utility.yul\":4665:4669   */\n      0x20\n        /* \"#utility.yul\":4657:4663   */\n      dup7\n        /* \"#utility.yul\":4653:4670   */\n      add\n        /* \"#utility.yul\":4606:4684   */\n      tag_140\n      jump\t// in\n    tag_217:\n        /* \"#utility.yul\":4597:4684   */\n      swap2\n      pop\n        /* \"#utility.yul\":4413:4690   */\n      pop\n        /* \"#utility.yul\":4352:4690   */\n      swap3\n      swap2\n      pop\n      pop\n      jump\t// out\n        /* \"#utility.yul\":4696:5203   */\n    tag_19:\n        /* \"#utility.yul\":4764:4770   */\n      0x00\n        /* \"#utility.yul\":4813:4815   */\n      0x20\n        /* \"#utility.yul\":4801:4810   */\n      dup3\n        /* \"#utility.yul\":4792:4799   */\n      dup5\n        /* \"#utility.yul\":4788:4811   */\n      sub\n        /* \"#utility.yul\":4784:4816   */\n      slt\n        /* \"#utility.yul\":4781:4900   */\n      iszero\n      tag_219\n      jumpi\n        /* \"#utility.yul\":4819:4898   */\n      tag_220\n      tag_122\n      jump\t// in\n    tag_220:\n        /* \"#utility.yul\":4781:4900   */\n    tag_219:\n        /* \"#utility.yul\":4967:4968   */\n      0x00\n        /* \"#utility.yul\":4956:4965   */\n      dup3\n        /* \"#utility.yul\":4952:4969   */\n      add\n        /* \"#utility.yul\":4939:4970   */\n      calldataload\n        /* \"#utility.yul\":4997:5015   */\n      0xffffffffffffffff\n        /* \"#utility.yul\":4989:4995   */\n      dup2\n        /* \"#utility.yul\":4986:5016   */\n      gt\n        /* \"#utility.yul\":4983:5100   */\n      iszero\n      tag_221\n      jumpi\n        /* \"#utility.yul\":5019:5098   */\n      tag_222\n      tag_123\n      jump\t// in\n    tag_222:\n        /* \"#utility.yul\":4983:5100   */\n    tag_221:\n        /* \"#utility.yul\":5124:5186   */\n      tag_223\n        /* \"#utility.yul\":5178:5185   */\n      dup5\n        /* \"#utility.yul\":5169:5175   */\n      dup3\n        /* \"#utility.yul\":5158:5167   */\n      dup6\n        /* \"#utility.yul\":5154:5176   */\n      add\n        /* \"#utility.yul\":5124:5186   */\n      tag_141\n      jump\t// in\n    tag_223:\n        /* \"#utility.yul\":5114:5186   */\n      swap2\n      pop\n        /* \"#utility.yul\":4910:5196   */\n      pop\n        /* \"#utility.yul\":4696:5203   */\n      swap3\n      swap2\n      pop\n      pop\n      jump\t// out\n        /* \"#utility.yul\":5209:5431   */\n    tag_22:\n        /* \"#utility.yul\":5302:5306   */\n      0x00\n        /* \"#utility.yul\":5340:5342   */\n      0x20\n        /* \"#utility.yul\":5329:5338   */\n      dup3\n        /* \"#utility.yul\":5325:5343   */\n      add\n        /* \"#utility.yul\":5317:5343   */\n      swap1\n      pop\n        /* \"#utility.yul\":5353:5424   */\n      tag_225\n        /* \"#utility.yul\":5421:5422   */\n      0x00\n        /* \"#utility.yul\":5410:5419   */\n      dup4\n        /* \"#utility.yul\":5406:5423   */\n      add\n        /* \"#utility.yul\":5397:5403   */\n      dup5\n        /* \"#utility.yul\":5353:5424   */\n      tag_132\n      jump\t// in\n    tag_225:\n        /* \"#utility.yul\":5209:5431   */\n      swap3\n      swap2\n      pop\n      pop\n      jump\t// out\n        /* \"#utility.yul\":5437:5563   */\n    tag_142:\n        /* \"#utility.yul\":5474:5481   */\n      0x00\n        /* \"#utility.yul\":5514:5556   */\n      0xffffffffffffffffffffffffffffffffffffffff\n        /* \"#utility.yul\":5507:5512   */\n      dup3\n        /* \"#utility.yul\":5503:5557   */\n      and\n        /* \"#utility.yul\":5492:5557   */\n      swap1\n      pop\n        /* \"#utility.yul\":5437:5563   */\n      swap2\n      swap1\n      pop\n      jump\t// out\n        /* \"#utility.yul\":5569:5665   */\n    tag_143:\n        /* \"#utility.yul\":5606:5613   */\n      0x00\n        /* \"#utility.yul\":5635:5659   */\n      tag_228\n        /* \"#utility.yul\":5653:5658   */\n      dup3\n        /* \"#utility.yul\":5635:5659   */\n      tag_142\n      jump\t// in\n    tag_228:\n        /* \"#utility.yul\":5624:5659   */\n      swap1\n      pop\n        /* \"#utility.yul\":5569:5665   */\n      swap2\n      swap1\n      pop\n      jump\t// out\n        /* \"#utility.yul\":5671:5789   */\n    tag_144:\n        /* \"#utility.yul\":5758:5782   */\n      tag_230\n        /* \"#utility.yul\":5776:5781   */\n      dup2\n        /* \"#utility.yul\":5758:5782   */\n      tag_143\n      jump\t// in\n    tag_230:\n        /* \"#utility.yul\":5753:5756   */\n      dup3\n        /* \"#utility.yul\":5746:5783   */\n      mstore\n        /* \"#utility.yul\":5671:5789   */\n      pop\n      pop\n      jump\t// out\n        /* \"#utility.yul\":5795:6017   */\n    tag_27:\n        /* \"#utility.yul\":5888:5892   */\n      0x00\n        /* \"#utility.yul\":5926:5928   */\n      0x20\n        /* \"#utility.yul\":5915:5924   */\n      dup3\n        /* \"#utility.yul\":5911:5929   */\n      add\n        /* \"#utility.yul\":5903:5929   */\n      swap1\n      pop\n        /* \"#utility.yul\":5939:6010   */\n      tag_232\n        /* \"#utility.yul\":6007:6008   */\n      0x00\n        /* \"#utility.yul\":5996:6005   */\n      dup4\n        /* \"#utility.yul\":5992:6009   */\n      add\n        /* \"#utility.yul\":5983:5989   */\n      dup5\n        /* \"#utility.yul\":5939:6010   */\n      tag_144\n      jump\t// in\n    tag_232:\n        /* \"#utility.yul\":5795:6017   */\n      swap3\n      swap2\n      pop\n      pop\n      jump\t// out\n        /* \"#utility.yul\":6023:6145   */\n    tag_145:\n        /* \"#utility.yul\":6096:6120   */\n      tag_234\n        /* \"#utility.yul\":6114:6119   */\n      dup2\n        /* \"#utility.yul\":6096:6120   */\n      tag_143\n      jump\t// in\n    tag_234:\n        /* \"#utility.yul\":6089:6094   */\n      dup2\n        /* \"#utility.yul\":6086:6121   */\n      eq\n        /* \"#utility.yul\":6076:6139   */\n      tag_235\n      jumpi\n        /* \"#utility.yul\":6135:6136   */\n      0x00\n        /* \"#utility.yul\":6132:6133   */\n      dup1\n        /* \"#utility.yul\":6125:6137   */\n      revert\n        /* \"#utility.yul\":6076:6139   */\n    tag_235:\n        /* \"#utility.yul\":6023:6145   */\n      pop\n      jump\t// out\n        /* \"#utility.yul\":6151:6290   */\n    tag_146:\n        /* \"#utility.yul\":6197:6202   */\n      0x00\n        /* \"#utility.yul\":6235:6241   */\n      dup2\n        /* \"#utility.yul\":6222:6242   */\n      calldataload\n        /* \"#utility.yul\":6213:6242   */\n      swap1\n      pop\n        /* \"#utility.yul\":6251:6284   */\n      tag_237\n        /* \"#utility.yul\":6278:6283   */\n      dup2\n        /* \"#utility.yul\":6251:6284   */\n      tag_145\n      jump\t// in\n    tag_237:\n        /* \"#utility.yul\":6151:6290   */\n      swap3\n      swap2\n      pop\n      pop\n      jump\t// out\n        /* \"#utility.yul\":6296:6625   */\n    tag_30:\n        /* \"#utility.yul\":6355:6361   */\n      0x00\n        /* \"#utility.yul\":6404:6406   */\n      0x20\n        /* \"#utility.yul\":6392:6401   */\n      dup3\n        /* \"#utility.yul\":6383:6390   */\n      dup5\n        /* \"#utility.yul\":6379:6402   */\n      sub\n        /* \"#utility.yul\":6375:6407   */\n      slt\n        /* \"#utility.yul\":6372:6491   */\n      iszero\n      tag_239\n      jumpi\n        /* \"#utility.yul\":6410:6489   */\n      tag_240\n      tag_122\n      jump\t// in\n    tag_240:\n        /* \"#utility.yul\":6372:6491   */\n    tag_239:\n        /* \"#utility.yul\":6530:6531   */\n      0x00\n        /* \"#utility.yul\":6555:6608   */\n      tag_241\n        /* \"#utility.yul\":6600:6607   */\n      dup5\n        /* \"#utility.yul\":6591:6597   */\n      dup3\n        /* \"#utility.yul\":6580:6589   */\n      dup6\n        /* \"#utility.yul\":6576:6598   */\n      add\n        /* \"#utility.yul\":6555:6608   */\n      tag_146\n      jump\t// in\n    tag_241:\n        /* \"#utility.yul\":6545:6608   */\n      swap2\n      pop\n        /* \"#utility.yul\":6501:6618   */\n      pop\n        /* \"#utility.yul\":6296:6625   */\n      swap3\n      swap2\n      pop\n      pop\n      jump\t// out\n        /* \"#utility.yul\":6631:6721   */\n    tag_147:\n        /* \"#utility.yul\":6665:6672   */\n      0x00\n        /* \"#utility.yul\":6708:6713   */\n      dup2\n        /* \"#utility.yul\":6701:6714   */\n      iszero\n        /* \"#utility.yul\":6694:6715   */\n      iszero\n        /* \"#utility.yul\":6683:6715   */\n      swap1\n      pop\n        /* \"#utility.yul\":6631:6721   */\n      swap2\n      swap1\n      pop\n      jump\t// out\n        /* \"#utility.yul\":6727:6836   */\n    tag_148:\n        /* \"#utility.yul\":6808:6829   */\n      tag_244\n        /* \"#utility.yul\":6823:6828   */\n      dup2\n        /* \"#utility.yul\":6808:6829   */\n      tag_147\n      jump\t// in\n    tag_244:\n        /* \"#utility.yul\":6803:6806   */\n      dup3\n        /* \"#utility.yul\":6796:6830   */\n      mstore\n        /* \"#utility.yul\":6727:6836   */\n      pop\n      pop\n      jump\t// out\n        /* \"#utility.yul\":6842:7162   */\n    tag_33:\n        /* \"#utility.yul\":6957:6961   */\n      0x00\n        /* \"#utility.yul\":6995:6997   */\n      0x40\n        /* \"#utility.yul\":6984:6993   */\n      dup3\n        /* \"#utility.yul\":6980:6998   */\n      add\n        /* \"#utility.yul\":6972:6998   */\n      swap1\n      pop\n        /* \"#utility.yul\":7008:7073   */\n      tag_246\n        /* \"#utility.yul\":7070:7071   */\n      0x00\n        /* \"#utility.yul\":7059:7068   */\n      dup4\n        /* \"#utility.yul\":7055:7072   */\n      add\n        /* \"#utility.yul\":7046:7052   */\n      dup6\n        /* \"#utility.yul\":7008:7073   */\n      tag_148\n      jump\t// in\n    tag_246:\n        /* \"#utility.yul\":7083:7155   */\n      tag_247\n        /* \"#utility.yul\":7151:7153   */\n      0x20\n        /* \"#utility.yul\":7140:7149   */\n      dup4\n        /* \"#utility.yul\":7136:7154   */\n      add\n        /* \"#utility.yul\":7127:7133   */\n      dup5\n        /* \"#utility.yul\":7083:7155   */\n      tag_132\n      jump\t// in\n    tag_247:\n        /* \"#utility.yul\":6842:7162   */\n      swap4\n      swap3\n      pop\n      pop\n      pop\n      jump\t// out\n        /* \"#utility.yul\":7168:7820   */\n    tag_36:\n        /* \"#utility.yul\":7245:7251   */\n      0x00\n        /* \"#utility.yul\":7253:7259   */\n      dup1\n        /* \"#utility.yul\":7302:7304   */\n      0x40\n        /* \"#utility.yul\":7290:7299   */\n      dup4\n        /* \"#utility.yul\":7281:7288   */\n      dup6\n        /* \"#utility.yul\":7277:7300   */\n      sub\n        /* \"#utility.yul\":7273:7305   */\n      slt\n        /* \"#utility.yul\":7270:7389   */\n      iszero\n      tag_249\n      jumpi\n        /* \"#utility.yul\":7308:7387   */\n      tag_250\n      tag_122\n      jump\t// in\n    tag_250:\n        /* \"#utility.yul\":7270:7389   */\n    tag_249:\n        /* \"#utility.yul\":7428:7429   */\n      0x00\n        /* \"#utility.yul\":7453:7506   */\n      tag_251\n        /* \"#utility.yul\":7498:7505   */\n      dup6\n        /* \"#utility.yul\":7489:7495   */\n      dup3\n        /* \"#utility.yul\":7478:7487   */\n      dup7\n        /* \"#utility.yul\":7474:7496   */\n      add\n        /* \"#utility.yul\":7453:7506   */\n      tag_146\n      jump\t// in\n    tag_251:\n        /* \"#utility.yul\":7443:7506   */\n      swap3\n      pop\n        /* \"#utility.yul\":7399:7516   */\n      pop\n        /* \"#utility.yul\":7583:7585   */\n      0x20\n        /* \"#utility.yul\":7572:7581   */\n      dup4\n        /* \"#utility.yul\":7568:7586   */\n      add\n        /* \"#utility.yul\":7555:7587   */\n      calldataload\n        /* \"#utility.yul\":7614:7632   */\n      0xffffffffffffffff\n        /* \"#utility.yul\":7606:7612   */\n      dup2\n        /* \"#utility.yul\":7603:7633   */\n      gt\n        /* \"#utility.yul\":7600:7717   */\n      iszero\n      tag_252\n      jumpi\n        /* \"#utility.yul\":7636:7715   */\n      tag_253\n      tag_123\n      jump\t// in\n    tag_253:\n        /* \"#utility.yul\":7600:7717   */\n    tag_252:\n        /* \"#utility.yul\":7741:7803   */\n      tag_254\n        /* \"#utility.yul\":7795:7802   */\n      dup6\n        /* \"#utility.yul\":7786:7792   */\n      dup3\n        /* \"#utility.yul\":7775:7784   */\n      dup7\n        /* \"#utility.yul\":7771:7793   */\n      add\n        /* \"#utility.yul\":7741:7803   */\n      tag_141\n      jump\t// in\n    tag_254:\n        /* \"#utility.yul\":7731:7803   */\n      swap2\n      pop\n        /* \"#utility.yul\":7526:7813   */\n      pop\n        /* \"#utility.yul\":7168:7820   */\n      swap3\n      pop\n      swap3\n      swap1\n      pop\n      jump\t// out\n        /* \"#utility.yul\":7826:8135   */\n    tag_41:\n        /* \"#utility.yul\":7937:7941   */\n      0x00\n        /* \"#utility.yul\":7975:7977   */\n      0x20\n        /* \"#utility.yul\":7964:7973   */\n      dup3\n        /* \"#utility.yul\":7960:7978   */\n      add\n        /* \"#utility.yul\":7952:7978   */\n      swap1\n      pop\n        /* \"#utility.yul\":8024:8033   */\n      dup2\n        /* \"#utility.yul\":8018:8022   */\n      dup2\n        /* \"#utility.yul\":8014:8034   */\n      sub\n        /* \"#utility.yul\":8010:8011   */\n      0x00\n        /* \"#utility.yul\":7999:8008   */\n      dup4\n        /* \"#utility.yul\":7995:8012   */\n      add\n        /* \"#utility.yul\":7988:8035   */\n      mstore\n        /* \"#utility.yul\":8052:8128   */\n      tag_256\n        /* \"#utility.yul\":8123:8127   */\n      dup2\n        /* \"#utility.yul\":8114:8120   */\n      dup5\n        /* \"#utility.yul\":8052:8128   */\n      tag_131\n      jump\t// in\n    tag_256:\n        /* \"#utility.yul\":8044:8128   */\n      swap1\n      pop\n        /* \"#utility.yul\":7826:8135   */\n      swap3\n      swap2\n      pop\n      pop\n      jump\t// out\n        /* \"#utility.yul\":8141:8321   */\n    tag_149:\n        /* \"#utility.yul\":8189:8266   */\n      0x4e487b7100000000000000000000000000000000000000000000000000000000\n        /* \"#utility.yul\":8186:8187   */\n      0x00\n        /* \"#utility.yul\":8179:8267   */\n      mstore\n        /* \"#utility.yul\":8286:8290   */\n      0x22\n        /* \"#utility.yul\":8283:8284   */\n      0x04\n        /* \"#utility.yul\":8276:8291   */\n      mstore\n        /* \"#utility.yul\":8310:8314   */\n      0x24\n        /* \"#utility.yul\":8307:8308   */\n      0x00\n        /* \"#utility.yul\":8300:8315   */\n      revert\n        /* \"#utility.yul\":8327:8647   */\n    tag_48:\n        /* \"#utility.yul\":8371:8377   */\n      0x00\n        /* \"#utility.yul\":8408:8409   */\n      0x02\n        /* \"#utility.yul\":8402:8406   */\n      dup3\n        /* \"#utility.yul\":8398:8410   */\n      div\n        /* \"#utility.yul\":8388:8410   */\n      swap1\n      pop\n        /* \"#utility.yul\":8455:8456   */\n      0x01\n        /* \"#utility.yul\":8449:8453   */\n      dup3\n        /* \"#utility.yul\":8445:8457   */\n      and\n        /* \"#utility.yul\":8476:8494   */\n      dup1\n        /* \"#utility.yul\":8466:8547   */\n      tag_259\n      jumpi\n        /* \"#utility.yul\":8532:8536   */\n      0x7f\n        /* \"#utility.yul\":8524:8530   */\n      dup3\n        /* \"#utility.yul\":8520:8537   */\n      and\n        /* \"#utility.yul\":8510:8537   */\n      swap2\n      pop\n        /* \"#utility.yul\":8466:8547   */\n    tag_259:\n        /* \"#utility.yul\":8594:8596   */\n      0x20\n        /* \"#utility.yul\":8586:8592   */\n      dup3\n        /* \"#utility.yul\":8583:8597   */\n      lt\n        /* \"#utility.yul\":8563:8581   */\n      dup2\n        /* \"#utility.yul\":8560:8598   */\n      sub\n        /* \"#utility.yul\":8557:8641   */\n      tag_260\n      jumpi\n        /* \"#utility.yul\":8613:8631   */\n      tag_261\n      tag_149\n      jump\t// in\n    tag_261:\n        /* \"#utility.yul\":8557:8641   */\n    tag_260:\n        /* \"#utility.yul\":8378:8647   */\n      pop\n        /* \"#utility.yul\":8327:8647   */\n      swap2\n      swap1\n      pop\n      jump\t// out\n        /* \"#utility.yul\":8653:8833   */\n    tag_58:\n        /* \"#utility.yul\":8701:8778   */\n      0x4e487b7100000000000000000000000000000000000000000000000000000000\n        /* \"#utility.yul\":8698:8699   */\n      0x00\n        /* \"#utility.yul\":8691:8779   */\n      mstore\n        /* \"#utility.yul\":8798:8802   */\n      0x32\n        /* \"#utility.yul\":8795:8796   */\n      0x04\n        /* \"#utility.yul\":8788:8803   */\n      mstore\n        /* \"#utility.yul\":8822:8826   */\n      0x24\n        /* \"#utility.yul\":8819:8820   */\n      0x00\n        /* \"#utility.yul\":8812:8827   */\n      revert\n        /* \"#utility.yul\":8839:9008   */\n    tag_150:\n        /* \"#utility.yul\":8923:8934   */\n      0x00\n        /* \"#utility.yul\":8957:8963   */\n      dup3\n        /* \"#utility.yul\":8952:8955   */\n      dup3\n        /* \"#utility.yul\":8945:8964   */\n      mstore\n        /* \"#utility.yul\":8997:9001   */\n      0x20\n        /* \"#utility.yul\":8992:8995   */\n      dup3\n        /* \"#utility.yul\":8988:9002   */\n      add\n        /* \"#utility.yul\":8973:9002   */\n      swap1\n      pop\n        /* \"#utility.yul\":8839:9008   */\n      swap3\n      swap2\n      pop\n      pop\n      jump\t// out\n        /* \"#utility.yul\":9014:9187   */\n    tag_151:\n        /* \"#utility.yul\":9154:9179   */\n      0x596f75206861766520616c726561647920766f7465642e000000000000000000\n        /* \"#utility.yul\":9150:9151   */\n      0x00\n        /* \"#utility.yul\":9142:9148   */\n      dup3\n        /* \"#utility.yul\":9138:9152   */\n      add\n        /* \"#utility.yul\":9131:9180   */\n      mstore\n        /* \"#utility.yul\":9014:9187   */\n      pop\n      jump\t// out\n        /* \"#utility.yul\":9193:9559   */\n    tag_152:\n        /* \"#utility.yul\":9335:9338   */\n      0x00\n        /* \"#utility.yul\":9356:9423   */\n      tag_266\n        /* \"#utility.yul\":9420:9422   */\n      0x17\n        /* \"#utility.yul\":9415:9418   */\n      dup4\n        /* \"#utility.yul\":9356:9423   */\n      tag_150\n      jump\t// in\n    tag_266:\n        /* \"#utility.yul\":9349:9423   */\n      swap2\n      pop\n        /* \"#utility.yul\":9432:9525   */\n      tag_267\n        /* \"#utility.yul\":9521:9524   */\n      dup3\n        /* \"#utility.yul\":9432:9525   */\n      tag_151\n      jump\t// in\n    tag_267:\n        /* \"#utility.yul\":9550:9552   */\n      0x20\n        /* \"#utility.yul\":9545:9548   */\n      dup3\n        /* \"#utility.yul\":9541:9553   */\n      add\n        /* \"#utility.yul\":9534:9553   */\n      swap1\n      pop\n        /* \"#utility.yul\":9193:9559   */\n      swap2\n      swap1\n      pop\n      jump\t// out\n        /* \"#utility.yul\":9565:9984   */\n    tag_65:\n        /* \"#utility.yul\":9731:9735   */\n      0x00\n        /* \"#utility.yul\":9769:9771   */\n      0x20\n        /* \"#utility.yul\":9758:9767   */\n      dup3\n        /* \"#utility.yul\":9754:9772   */\n      add\n        /* \"#utility.yul\":9746:9772   */\n      swap1\n      pop\n        /* \"#utility.yul\":9818:9827   */\n      dup2\n        /* \"#utility.yul\":9812:9816   */\n      dup2\n        /* \"#utility.yul\":9808:9828   */\n      sub\n        /* \"#utility.yul\":9804:9805   */\n      0x00\n        /* \"#utility.yul\":9793:9802   */\n      dup4\n        /* \"#utility.yul\":9789:9806   */\n      add\n        /* \"#utility.yul\":9782:9829   */\n      mstore\n        /* \"#utility.yul\":9846:9977   */\n      tag_269\n        /* \"#utility.yul\":9972:9976   */\n      dup2\n        /* \"#utility.yul\":9846:9977   */\n      tag_152\n      jump\t// in\n    tag_269:\n        /* \"#utility.yul\":9838:9977   */\n      swap1\n      pop\n        /* \"#utility.yul\":9565:9984   */\n      swap2\n      swap1\n      pop\n      jump\t// out\n        /* \"#utility.yul\":9990:10169   */\n    tag_153:\n        /* \"#utility.yul\":10130:10161   */\n      0x596f7520617265206e6f7420656c696769626c6520746f20766f74652e000000\n        /* \"#utility.yul\":10126:10127   */\n      0x00\n        /* \"#utility.yul\":10118:10124   */\n      dup3\n        /* \"#utility.yul\":10114:10128   */\n      add\n        /* \"#utility.yul\":10107:10162   */\n      mstore\n        /* \"#utility.yul\":9990:10169   */\n      pop\n      jump\t// out\n        /* \"#utility.yul\":10175:10541   */\n    tag_154:\n        /* \"#utility.yul\":10317:10320   */\n      0x00\n        /* \"#utility.yul\":10338:10405   */\n      tag_272\n        /* \"#utility.yul\":10402:10404   */\n      0x1d\n        /* \"#utility.yul\":10397:10400   */\n      dup4\n        /* \"#utility.yul\":10338:10405   */\n      tag_150\n      jump\t// in\n    tag_272:\n        /* \"#utility.yul\":10331:10405   */\n      swap2\n      pop\n        /* \"#utility.yul\":10414:10507   */\n      tag_273\n        /* \"#utility.yul\":10503:10506   */\n      dup3\n        /* \"#utility.yul\":10414:10507   */\n      tag_153\n      jump\t// in\n    tag_273:\n        /* \"#utility.yul\":10532:10534   */\n      0x20\n        /* \"#utility.yul\":10527:10530   */\n      dup3\n        /* \"#utility.yul\":10523:10535   */\n      add\n        /* \"#utility.yul\":10516:10535   */\n      swap1\n      pop\n        /* \"#utility.yul\":10175:10541   */\n      swap2\n      swap1\n      pop\n      jump\t// out\n        /* \"#utility.yul\":10547:10966   */\n    tag_70:\n        /* \"#utility.yul\":10713:10717   */\n      0x00\n        /* \"#utility.yul\":10751:10753   */\n      0x20\n        /* \"#utility.yul\":10740:10749   */\n      dup3\n        /* \"#utility.yul\":10736:10754   */\n      add\n        /* \"#utility.yul\":10728:10754   */\n      swap1\n      pop\n        /* \"#utility.yul\":10800:10809   */\n      dup2\n        /* \"#utility.yul\":10794:10798   */\n      dup2\n        /* \"#utility.yul\":10790:10810   */\n      sub\n        /* \"#utility.yul\":10786:10787   */\n      0x00\n        /* \"#utility.yul\":10775:10784   */\n      dup4\n        /* \"#utility.yul\":10771:10788   */\n      add\n        /* \"#utility.yul\":10764:10811   */\n      mstore\n        /* \"#utility.yul\":10828:10959   */\n      tag_275\n        /* \"#utility.yul\":10954:10958   */\n      dup2\n        /* \"#utility.yul\":10828:10959   */\n      tag_154\n      jump\t// in\n    tag_275:\n        /* \"#utility.yul\":10820:10959   */\n      swap1\n      pop\n        /* \"#utility.yul\":10547:10966   */\n      swap2\n      swap1\n      pop\n      jump\t// out\n        /* \"#utility.yul\":10972:11152   */\n    tag_155:\n        /* \"#utility.yul\":11020:11097   */\n      0x4e487b7100000000000000000000000000000000000000000000000000000000\n        /* \"#utility.yul\":11017:11018   */\n      0x00\n        /* \"#utility.yul\":11010:11098   */\n      mstore\n        /* \"#utility.yul\":11117:11121   */\n      0x11\n        /* \"#utility.yul\":11114:11115   */\n      0x04\n        /* \"#utility.yul\":11107:11122   */\n      mstore\n        /* \"#utility.yul\":11141:11145   */\n      0x24\n        /* \"#utility.yul\":11138:11139   */\n      0x00\n        /* \"#utility.yul\":11131:11146   */\n      revert\n        /* \"#utility.yul\":11158:11391   */\n    tag_78:\n        /* \"#utility.yul\":11197:11200   */\n      0x00\n        /* \"#utility.yul\":11220:11244   */\n      tag_278\n        /* \"#utility.yul\":11238:11243   */\n      dup3\n        /* \"#utility.yul\":11220:11244   */\n      tag_124\n      jump\t// in\n    tag_278:\n        /* \"#utility.yul\":11211:11244   */\n      swap2\n      pop\n        /* \"#utility.yul\":11266:11332   */\n      0xffffffffffffffffffffffffffffffffffffffffffffffffffffffffffffffff\n        /* \"#utility.yul\":11259:11264   */\n      dup3\n        /* \"#utility.yul\":11256:11333   */\n      sub\n        /* \"#utility.yul\":11253:11356   */\n      tag_279\n      jumpi\n        /* \"#utility.yul\":11336:11354   */\n      tag_280\n      tag_155\n      jump\t// in\n    tag_280:\n        /* \"#utility.yul\":11253:11356   */\n    tag_279:\n        /* \"#utility.yul\":11383:11384   */\n      0x01\n        /* \"#utility.yul\":11376:11381   */\n      dup3\n        /* \"#utility.yul\":11372:11385   */\n      add\n        /* \"#utility.yul\":11365:11385   */\n      swap1\n      pop\n        /* \"#utility.yul\":11158:11391   */\n      swap2\n      swap1\n      pop\n      jump\t// out\n        /* \"#utility.yul\":11397:11544   */\n    tag_156:\n        /* \"#utility.yul\":11498:11509   */\n      0x00\n        /* \"#utility.yul\":11535:11538   */\n      dup2\n        /* \"#utility.yul\":11520:11538   */\n      swap1\n      pop\n        /* \"#utility.yul\":11397:11544   */\n      swap3\n      swap2\n      pop\n      pop\n      jump\t// out\n        /* \"#utility.yul\":11550:11936   */\n    tag_157:\n        /* \"#utility.yul\":11654:11657   */\n      0x00\n        /* \"#utility.yul\":11682:11720   */\n      tag_283\n        /* \"#utility.yul\":11714:11719   */\n      dup3\n        /* \"#utility.yul\":11682:11720   */\n      tag_127\n      jump\t// in\n    tag_283:\n        /* \"#utility.yul\":11736:11824   */\n      tag_284\n        /* \"#utility.yul\":11817:11823   */\n      dup2\n        /* \"#utility.yul\":11812:11815   */\n      dup6\n        /* \"#utility.yul\":11736:11824   */\n      tag_156\n      jump\t// in\n    tag_284:\n        /* \"#utility.yul\":11729:11824   */\n      swap4\n      pop\n        /* \"#utility.yul\":11833:11898   */\n      tag_285\n        /* \"#utility.yul\":11891:11897   */\n      dup2\n        /* \"#utility.yul\":11886:11889   */\n      dup6\n        /* \"#utility.yul\":11879:11883   */\n      0x20\n        /* \"#utility.yul\":11872:11877   */\n      dup7\n        /* \"#utility.yul\":11868:11884   */\n      add\n        /* \"#utility.yul\":11833:11898   */\n      tag_129\n      jump\t// in\n    tag_285:\n        /* \"#utility.yul\":11923:11929   */\n      dup1\n        /* \"#utility.yul\":11918:11921   */\n      dup5\n        /* \"#utility.yul\":11914:11930   */\n      add\n        /* \"#utility.yul\":11907:11930   */\n      swap2\n      pop\n        /* \"#utility.yul\":11658:11936   */\n      pop\n        /* \"#utility.yul\":11550:11936   */\n      swap3\n      swap2\n      pop\n      pop\n      jump\t// out\n        /* \"#utility.yul\":11942:12213   */\n    tag_81:\n        /* \"#utility.yul\":12072:12075   */\n      0x00\n        /* \"#utility.yul\":12094:12187   */\n      tag_287\n        /* \"#utility.yul\":12183:12186   */\n      dup3\n        /* \"#utility.yul\":12174:12180   */\n      dup5\n        /* \"#utility.yul\":12094:12187   */\n      tag_157\n      jump\t// in\n    tag_287:\n        /* \"#utility.yul\":12087:12187   */\n      swap2\n      pop\n        /* \"#utility.yul\":12204:12207   */\n      dup2\n        /* \"#utility.yul\":12197:12207   */\n      swap1\n      pop\n        /* \"#utility.yul\":11942:12213   */\n      swap3\n      swap2\n      pop\n      pop\n      jump\t// out\n        /* \"#utility.yul\":12219:12359   */\n    tag_158:\n        /* \"#utility.yul\":12267:12271   */\n      0x00\n        /* \"#utility.yul\":12290:12293   */\n      dup2\n        /* \"#utility.yul\":12282:12293   */\n      swap1\n      pop\n        /* \"#utility.yul\":12313:12316   */\n      dup2\n        /* \"#utility.yul\":12310:12311   */\n      0x00\n        /* \"#utility.yul\":12303:12317   */\n      mstore\n        /* \"#utility.yul\":12347:12351   */\n      0x20\n        /* \"#utility.yul\":12344:12345   */\n      0x00\n        /* \"#utility.yul\":12334:12352   */\n      keccak256\n        /* \"#utility.yul\":12326:12352   */\n      swap1\n      pop\n        /* \"#utility.yul\":12219:12359   */\n      swap2\n      swap1\n      pop\n      jump\t// out\n        /* \"#utility.yul\":12387:13257   */\n    tag_159:\n        /* \"#utility.yul\":12488:12491   */\n      0x00\n        /* \"#utility.yul\":12525:12530   */\n      dup2\n        /* \"#utility.yul\":12519:12531   */\n      sload\n        /* \"#utility.yul\":12554:12590   */\n      tag_290\n        /* \"#utility.yul\":12580:12589   */\n      dup2\n        /* \"#utility.yul\":12554:12590   */\n      tag_48\n      jump\t// in\n    tag_290:\n        /* \"#utility.yul\":12606:12694   */\n      tag_291\n        /* \"#utility.yul\":12687:12693   */\n      dup2\n        /* \"#utility.yul\":12682:12685   */\n      dup7\n        /* \"#utility.yul\":12606:12694   */\n      tag_156\n      jump\t// in\n    tag_291:\n        /* \"#utility.yul\":12599:12694   */\n      swap5\n      pop\n        /* \"#utility.yul\":12725:12726   */\n      0x01\n        /* \"#utility.yul\":12714:12723   */\n      dup3\n        /* \"#utility.yul\":12710:12727   */\n      and\n        /* \"#utility.yul\":12741:12742   */\n      0x00\n        /* \"#utility.yul\":12736:12902   */\n      dup2\n      eq\n      tag_293\n      jumpi\n        /* \"#utility.yul\":12916:12917   */\n      0x01\n        /* \"#utility.yul\":12911:13251   */\n      dup2\n      eq\n      tag_294\n      jumpi\n        /* \"#utility.yul\":12703:13251   */\n      jump(tag_292)\n        /* \"#utility.yul\":12736:12902   */\n    tag_293:\n        /* \"#utility.yul\":12820:12824   */\n      0xff\n        /* \"#utility.yul\":12816:12825   */\n      not\n        /* \"#utility.yul\":12805:12814   */\n      dup4\n        /* \"#utility.yul\":12801:12826   */\n      and\n        /* \"#utility.yul\":12796:12799   */\n      dup7\n        /* \"#utility.yul\":12789:12827   */\n      mstore\n        /* \"#utility.yul\":12882:12888   */\n      dup2\n        /* \"#utility.yul\":12875:12889   */\n      iszero\n        /* \"#utility.yul\":12868:12890   */\n      iszero\n        /* \"#utility.yul\":12860:12866   */\n      dup3\n        /* \"#utility.yul\":12856:12891   */\n      mul\n        /* \"#utility.yul\":12851:12854   */\n      dup7\n        /* \"#utility.yul\":12847:12892   */\n      add\n        /* \"#utility.yul\":12840:12892   */\n      swap4\n      pop\n        /* \"#utility.yul\":12736:12902   */\n      jump(tag_292)\n        /* \"#utility.yul\":12911:13251   */\n    tag_294:\n        /* \"#utility.yul\":12978:13015   */\n      tag_295\n        /* \"#utility.yul\":13009:13014   */\n      dup6\n        /* \"#utility.yul\":12978:13015   */\n      tag_158\n      jump\t// in\n    tag_295:\n        /* \"#utility.yul\":13037:13038   */\n      0x00\n        /* \"#utility.yul\":13051:13205   */\n    tag_296:\n        /* \"#utility.yul\":13065:13071   */\n      dup4\n        /* \"#utility.yul\":13062:13063   */\n      dup2\n        /* \"#utility.yul\":13059:13072   */\n      lt\n        /* \"#utility.yul\":13051:13205   */\n      iszero\n      tag_298\n      jumpi\n        /* \"#utility.yul\":13139:13146   */\n      dup2\n        /* \"#utility.yul\":13133:13147   */\n      sload\n        /* \"#utility.yul\":13129:13130   */\n      dup2\n        /* \"#utility.yul\":13124:13127   */\n      dup10\n        /* \"#utility.yul\":13120:13131   */\n      add\n        /* \"#utility.yul\":13113:13148   */\n      mstore\n        /* \"#utility.yul\":13189:13190   */\n      0x01\n        /* \"#utility.yul\":13180:13187   */\n      dup3\n        /* \"#utility.yul\":13176:13191   */\n      add\n        /* \"#utility.yul\":13165:13191   */\n      swap2\n      pop\n        /* \"#utility.yul\":13087:13091   */\n      0x20\n        /* \"#utility.yul\":13084:13085   */\n      dup2\n        /* \"#utility.yul\":13080:13092   */\n      add\n        /* \"#utility.yul\":13075:13092   */\n      swap1\n      pop\n        /* \"#utility.yul\":13051:13205   */\n      jump(tag_296)\n    tag_298:\n        /* \"#utility.yul\":13234:13240   */\n      dup4\n        /* \"#utility.yul\":13229:13232   */\n      dup9\n        /* \"#utility.yul\":13225:13241   */\n      add\n        /* \"#utility.yul\":13218:13241   */\n      swap6\n      pop\n        /* \"#utility.yul\":12918:13251   */\n      pop\n      pop\n        /* \"#utility.yul\":12703:13251   */\n    tag_292:\n      pop\n        /* \"#utility.yul\":12492:13257   */\n      pop\n      pop\n        /* \"#utility.yul\":12387:13257   */\n      swap3\n      swap2\n      pop\n      pop\n      jump\t// out\n        /* \"#utility.yul\":13263:13528   */\n    tag_109:\n        /* \"#utility.yul\":13390:13393   */\n      0x00\n        /* \"#utility.yul\":13412:13502   */\n      tag_300\n        /* \"#utility.yul\":13498:13501   */\n      dup3\n        /* \"#utility.yul\":13489:13495   */\n      dup5\n        /* \"#utility.yul\":13412:13502   */\n      tag_159\n      jump\t// in\n    tag_300:\n        /* \"#utility.yul\":13405:13502   */\n      swap2\n      pop\n        /* \"#utility.yul\":13519:13522   */\n      dup2\n        /* \"#utility.yul\":13512:13522   */\n      swap1\n      pop\n        /* \"#utility.yul\":13263:13528   */\n      swap3\n      swap2\n      pop\n      pop\n      jump\t// out\n        /* \"#utility.yul\":13534:13703   */\n    tag_160:\n        /* \"#utility.yul\":13674:13695   */\n      0x43616e646964617465206e6f7420666f756e6400000000000000000000000000\n        /* \"#utility.yul\":13670:13671   */\n      0x00\n        /* \"#utility.yul\":13662:13668   */\n      dup3\n        /* \"#utility.yul\":13658:13672   */\n      add\n        /* \"#utility.yul\":13651:13696   */\n      mstore\n        /* \"#utility.yul\":13534:13703   */\n      pop\n      jump\t// out\n        /* \"#utility.yul\":13709:14075   */\n    tag_161:\n        /* \"#utility.yul\":13851:13854   */\n      0x00\n        /* \"#utility.yul\":13872:13939   */\n      tag_303\n        /* \"#utility.yul\":13936:13938   */\n      0x13\n        /* \"#utility.yul\":13931:13934   */\n      dup4\n        /* \"#utility.yul\":13872:13939   */\n      tag_150\n      jump\t// in\n    tag_303:\n        /* \"#utility.yul\":13865:13939   */\n      swap2\n      pop\n        /* \"#utility.yul\":13948:14041   */\n      tag_304\n        /* \"#utility.yul\":14037:14040   */\n      dup3\n        /* \"#utility.yul\":13948:14041   */\n      tag_160\n      jump\t// in\n    tag_304:\n        /* \"#utility.yul\":14066:14068   */\n      0x20\n        /* \"#utility.yul\":14061:14064   */\n      dup3\n        /* \"#utility.yul\":14057:14069   */\n      add\n        /* \"#utility.yul\":14050:14069   */\n      swap1\n      pop\n        /* \"#utility.yul\":13709:14075   */\n      swap2\n      swap1\n      pop\n      jump\t// out\n        /* \"#utility.yul\":14081:14500   */\n    tag_112:\n        /* \"#utility.yul\":14247:14251   */\n      0x00\n        /* \"#utility.yul\":14285:14287   */\n      0x20\n        /* \"#utility.yul\":14274:14283   */\n      dup3\n        /* \"#utility.yul\":14270:14288   */\n      add\n        /* \"#utility.yul\":14262:14288   */\n      swap1\n      pop\n        /* \"#utility.yul\":14334:14343   */\n      dup2\n        /* \"#utility.yul\":14328:14332   */\n      dup2\n        /* \"#utility.yul\":14324:14344   */\n      sub\n        /* \"#utility.yul\":14320:14321   */\n      0x00\n        /* \"#utility.yul\":14309:14318   */\n      dup4\n        /* \"#utility.yul\":14305:14322   */\n      add\n        /* \"#utility.yul\":14298:14345   */\n      mstore\n        /* \"#utility.yul\":14362:14493   */\n      tag_306\n        /* \"#utility.yul\":14488:14492   */\n      dup2\n        /* \"#utility.yul\":14362:14493   */\n      tag_161\n      jump\t// in\n    tag_306:\n        /* \"#utility.yul\":14354:14493   */\n      swap1\n      pop\n        /* \"#utility.yul\":14081:14500   */\n      swap2\n      swap1\n      pop\n      jump\t// out\n\n    auxdata: 0xa26469706673582212203e6b0cce7929a7414500a0e287895a83cfc16dd7be0e3b410d0b5479decedf4964736f6c63430008180033\n}\n","bytecode":{"linkReferences":{},"object":"608060405234801562000010575f80fd5b506040516200199038038062001990833981810160405281019062000036919062000663565b805f806101000a81548173ffffffffffffffffffffffffffffffffffffffff021916908373ffffffffffffffffffffffffffffffffffffffff1602179055505f5b83518110156200010b5760026040518060400160405280868481518110620000a457620000a3620006fa565b5b602002602001015181526020015f815250908060018154018082558091505060019003905f5260205f2090600202015f909190919091505f820151815f019081620000f091906200095e565b50602082015181600101555050808060010191505062000077565b5081600390805190602001906200012492919062000209565b505f5b600380549050811015620001ff5760405180604001604052805f151581526020015f81525060015f60038481548110620001665762000165620006fa565b5b905f5260205f20015f9054906101000a900473ffffffffffffffffffffffffffffffffffffffff1673ffffffffffffffffffffffffffffffffffffffff1673ffffffffffffffffffffffffffffffffffffffff1681526020019081526020015f205f820151815f015f6101000a81548160ff02191690831515021790555060208201518160010155905050808060010191505062000127565b5050505062000a42565b828054828255905f5260205f2090810192821562000282579160200282015b8281111562000281578251825f6101000a81548173ffffffffffffffffffffffffffffffffffffffff021916908373ffffffffffffffffffffffffffffffffffffffff1602179055509160200191906001019062000228565b5b50905062000291919062000295565b5090565b5b80821115620002ae575f815f90555060010162000296565b5090565b5f604051905090565b5f80fd5b5f80fd5b5f80fd5b5f601f19601f8301169050919050565b7f4e487b71000000000000000000000000000000000000000000000000000000005f52604160045260245ffd5b6200030f82620002c7565b810181811067ffffffffffffffff82111715620003315762000330620002d7565b5b80604052505050565b5f62000345620002b2565b905062000353828262000304565b919050565b5f67ffffffffffffffff821115620003755762000374620002d7565b5b602082029050602081019050919050565b5f80fd5b5f80fd5b5f67ffffffffffffffff821115620003ab57620003aa620002d7565b5b620003b682620002c7565b9050602081019050919050565b5f5b83811015620003e2578082015181840152602081019050620003c5565b5f8484015250505050565b5f62000403620003fd846200038e565b6200033a565b9050828152602081018484840111156200042257620004216200038a565b5b6200042f848285620003c3565b509392505050565b5f82601f8301126200044e576200044d620002c3565b5b815162000460848260208601620003ed565b91505092915050565b5f6200047f620004798462000358565b6200033a565b90508083825260208201905060208402830185811115620004a557620004a462000386565b5b835b81811015620004f357805167ffffffffffffffff811115620004ce57620004cd620002c3565b5b808601620004dd898262000437565b85526020850194505050602081019050620004a7565b5050509392505050565b5f82601f830112620005145762000513620002c3565b5b81516200052684826020860162000469565b91505092915050565b5f67ffffffffffffffff8211156200054c576200054b620002d7565b5b602082029050602081019050919050565b5f73ffffffffffffffffffffffffffffffffffffffff82169050919050565b5f62000588826200055d565b9050919050565b6200059a816200057c565b8114620005a5575f80fd5b50565b5f81519050620005b8816200058f565b92915050565b5f620005d4620005ce846200052f565b6200033a565b90508083825260208201905060208402830185811115620005fa57620005f962000386565b5b835b81811015620006275780620006128882620005a8565b845260208401935050602081019050620005fc565b5050509392505050565b5f82601f830112620006485762000647620002c3565b5b81516200065a848260208601620005be565b91505092915050565b5f805f606084860312156200067d576200067c620002bb565b5b5f84015167ffffffffffffffff8111156200069d576200069c620002bf565b5b620006ab86828701620004fd565b935050602084015167ffffffffffffffff811115620006cf57620006ce620002bf565b5b620006dd8682870162000631565b9250506040620006f086828701620005a8565b9150509250925092565b7f4e487b71000000000000000000000000000000000000000000000000000000005f52603260045260245ffd5b5f81519050919050565b7f4e487b71000000000000000000000000000000000000000000000000000000005f52602260045260245ffd5b5f60028204905060018216806200077657607f821691505b6020821081036200078c576200078b62000731565b5b50919050565b5f819050815f5260205f209050919050565b5f6020601f8301049050919050565b5f82821b905092915050565b5f60088302620007f07fffffffffffffffffffffffffffffffffffffffffffffffffffffffffffffffff82620007b3565b620007fc8683620007b3565b95508019841693508086168417925050509392505050565b5f819050919050565b5f819050919050565b5f62000846620008406200083a8462000814565b6200081d565b62000814565b9050919050565b5f819050919050565b620008618362000826565b6200087962000870826200084d565b848454620007bf565b825550505050565b5f90565b6200088f62000881565b6200089c81848462000856565b505050565b5b81811015620008c357620008b75f8262000885565b600181019050620008a2565b5050565b601f8211156200091257620008dc8162000792565b620008e784620007a4565b81016020851015620008f7578190505b6200090f6200090685620007a4565b830182620008a1565b50505b505050565b5f82821c905092915050565b5f620009345f198460080262000917565b1980831691505092915050565b5f6200094e838362000923565b9150826002028217905092915050565b620009698262000727565b67ffffffffffffffff811115620009855762000984620002d7565b5b6200099182546200075e565b6200099e828285620008c7565b5f60209050601f831160018114620009d4575f8415620009bf578287015190505b620009cb858262000941565b86555062000a3a565b601f198416620009e48662000792565b5f5b8281101562000a0d57848901518255600182019150602085019450602081019050620009e6565b8683101562000a2d578489015162000a29601f89168262000923565b8355505b6001600288020188555050505b505050505050565b610f408062000a505f395ff3fe608060405234801561000f575f80fd5b506004361061007b575f3560e01c8063a3ec138d11610059578063a3ec138d14610110578063d3ae3e1d14610141578063de2927891461015d578063f851a4401461017b5761007b565b80633477ee2e1461007f5780636241aed9146100b057806390caf298146100e0575b5f80fd5b610099600480360381019061009491906107e6565b610199565b6040516100a79291906108aa565b60405180910390f35b6100ca60048036038101906100c59190610a04565b61024e565b6040516100d79190610a4b565b60405180910390f35b6100fa60048036038101906100f591906107e6565b610287565b6040516101079190610aa3565b60405180910390f35b61012a60048036038101906101259190610ae6565b6102c2565b604051610138929190610b2b565b60405180910390f35b61015b60048036038101906101569190610b52565b6102ee565b005b61016561050e565b6040516101729190610bac565b60405180910390f35b61018361062f565b6040516101909190610aa3565b60405180910390f35b600281815481106101a8575f80fd5b905f5260205f2090600202015f91509050805f0180546101c790610bf9565b80601f01602080910402602001604051908101604052809291908181526020018280546101f390610bf9565b801561023e5780601f106102155761010080835404028352916020019161023e565b820191905f5260205f20905b81548152906001019060200180831161022157829003601f168201915b5050505050908060010154905082565b5f8061025983610652565b90506002818154811061026f5761026e610c29565b5b905f5260205f20906002020160010154915050919050565b60038181548110610296575f80fd5b905f5260205f20015f915054906101000a900473ffffffffffffffffffffffffffffffffffffffff1681565b6001602052805f5260405f205f91509050805f015f9054906101000a900460ff16908060010154905082565b8160015f8273ffffffffffffffffffffffffffffffffffffffff1673ffffffffffffffffffffffffffffffffffffffff1681526020019081526020015f205f015f9054906101000a900460ff161561037b576040517f08c379a000000000000000000000000000000000000000000000000000000000815260040161037290610cb0565b60405180910390fd5b61038481610700565b6103c3576040517f08c379a00000000000000000000000000000000000000000000000000000000081526004016103ba90610d18565b60405180910390fd5b6103cc8261024e565b5060026103d883610652565b815481106103e9576103e8610c29565b5b905f5260205f2090600202016001015f81548092919061040890610d63565b91905055506001805f8573ffffffffffffffffffffffffffffffffffffffff1673ffffffffffffffffffffffffffffffffffffffff1681526020019081526020015f205f015f6101000a81548160ff02191690831515021790555061046c82610652565b60015f8573ffffffffffffffffffffffffffffffffffffffff1673ffffffffffffffffffffffffffffffffffffffff1681526020019081526020015f2060010181905550816040516104be9190610de4565b60405180910390208373ffffffffffffffffffffffffffffffffffffffff167f1bacfd660758a6eee44b9973ba8e452aad60edbcffc67bbae34e8cb3fa3e52da60405160405180910390a3505050565b60605f805b60028054905081101561062a57816002828154811061053557610534610c29565b5b905f5260205f20906002020160010154111561061d576002818154811061055f5761055e610c29565b5b905f5260205f2090600202016001015491506002818154811061058557610584610c29565b5b905f5260205f2090600202015f01805461059e90610bf9565b80601f01602080910402602001604051908101604052809291908181526020018280546105ca90610bf9565b80156106155780601f106105ec57610100808354040283529160200191610615565b820191905f5260205f20905b8154815290600101906020018083116105f857829003601f168201915b505050505092505b8080600101915050610513565b505090565b5f8054906101000a900473ffffffffffffffffffffffffffffffffffffffff1681565b5f805f90505b6002805490508110156106bf5782805190602001206002828154811061068157610680610c29565b5b905f5260205f2090600202015f0160405161069c9190610e8c565b6040518091039020036106b257809150506106fb565b8080600101915050610658565b506040517f08c379a00000000000000000000000000000000000000000000000000000000081526004016106f290610eec565b60405180910390fd5b919050565b5f805f90505b600380549050811015610798578273ffffffffffffffffffffffffffffffffffffffff166003828154811061073e5761073d610c29565b5b905f5260205f20015f9054906101000a900473ffffffffffffffffffffffffffffffffffffffff1673ffffffffffffffffffffffffffffffffffffffff160361078b57600191505061079d565b8080600101915050610706565b505f90505b919050565b5f604051905090565b5f80fd5b5f80fd5b5f819050919050565b6107c5816107b3565b81146107cf575f80fd5b50565b5f813590506107e0816107bc565b92915050565b5f602082840312156107fb576107fa6107ab565b5b5f610808848285016107d2565b91505092915050565b5f81519050919050565b5f82825260208201905092915050565b5f5b8381101561084857808201518184015260208101905061082d565b5f8484015250505050565b5f601f19601f8301169050919050565b5f61086d82610811565b610877818561081b565b935061088781856020860161082b565b61089081610853565b840191505092915050565b6108a4816107b3565b82525050565b5f6040820190508181035f8301526108c28185610863565b90506108d1602083018461089b565b9392505050565b5f80fd5b5f80fd5b7f4e487b71000000000000000000000000000000000000000000000000000000005f52604160045260245ffd5b61091682610853565b810181811067ffffffffffffffff82111715610935576109346108e0565b5b80604052505050565b5f6109476107a2565b9050610953828261090d565b919050565b5f67ffffffffffffffff821115610972576109716108e0565b5b61097b82610853565b9050602081019050919050565b828183375f83830152505050565b5f6109a86109a384610958565b61093e565b9050828152602081018484840111156109c4576109c36108dc565b5b6109cf848285610988565b509392505050565b5f82601f8301126109eb576109ea6108d8565b5b81356109fb848260208601610996565b91505092915050565b5f60208284031215610a1957610a186107ab565b5b5f82013567ffffffffffffffff811115610a3657610a356107af565b5b610a42848285016109d7565b91505092915050565b5f602082019050610a5e5f83018461089b565b92915050565b5f73ffffffffffffffffffffffffffffffffffffffff82169050919050565b5f610a8d82610a64565b9050919050565b610a9d81610a83565b82525050565b5f602082019050610ab65f830184610a94565b92915050565b610ac581610a83565b8114610acf575f80fd5b50565b5f81359050610ae081610abc565b92915050565b5f60208284031215610afb57610afa6107ab565b5b5f610b0884828501610ad2565b91505092915050565b5f8115159050919050565b610b2581610b11565b82525050565b5f604082019050610b3e5f830185610b1c565b610b4b602083018461089b565b9392505050565b5f8060408385031215610b6857610b676107ab565b5b5f610b7585828601610ad2565b925050602083013567ffffffffffffffff811115610b9657610b956107af565b5b610ba2858286016109d7565b9150509250929050565b5f6020820190508181035f830152610bc48184610863565b905092915050565b7f4e487b71000000000000000000000000000000000000000000000000000000005f52602260045260245ffd5b5f6002820490506001821680610c1057607f821691505b602082108103610c2357610c22610bcc565b5b50919050565b7f4e487b71000000000000000000000000000000000000000000000000000000005f52603260045260245ffd5b5f82825260208201905092915050565b7f596f75206861766520616c726561647920766f7465642e0000000000000000005f82015250565b5f610c9a601783610c56565b9150610ca582610c66565b602082019050919050565b5f6020820190508181035f830152610cc781610c8e565b9050919050565b7f596f7520617265206e6f7420656c696769626c6520746f20766f74652e0000005f82015250565b5f610d02601d83610c56565b9150610d0d82610cce565b602082019050919050565b5f6020820190508181035f830152610d2f81610cf6565b9050919050565b7f4e487b71000000000000000000000000000000000000000000000000000000005f52601160045260245ffd5b5f610d6d826107b3565b91507fffffffffffffffffffffffffffffffffffffffffffffffffffffffffffffffff8203610d9f57610d9e610d36565b5b600182019050919050565b5f81905092915050565b5f610dbe82610811565b610dc88185610daa565b9350610dd881856020860161082b565b80840191505092915050565b5f610def8284610db4565b915081905092915050565b5f819050815f5260205f209050919050565b5f8154610e1881610bf9565b610e228186610daa565b9450600182165f8114610e3c5760018114610e5157610e83565b60ff1983168652811515820286019350610e83565b610e5a85610dfa565b5f5b83811015610e7b57815481890152600182019150602081019050610e5c565b838801955050505b50505092915050565b5f610e978284610e0c565b915081905092915050565b7f43616e646964617465206e6f7420666f756e64000000000000000000000000005f82015250565b5f610ed6601383610c56565b9150610ee182610ea2565b602082019050919050565b5f6020820190508181035f830152610f0381610eca565b905091905056fea26469706673582212203e6b0cce7929a7414500a0e287895a83cfc16dd7be0e3b410d0b5479decedf4964736f6c63430008180033","opcodes":"PUSH1 0x80 PUSH1 0x40 MSTORE CALLVALUE DUP1 ISZERO PUSH3 0x10 JUMPI PUSH0 DUP1 REVERT JUMPDEST POP PUSH1 0x40 MLOAD PUSH3 0x1990 CODESIZE SUB DUP1 PUSH3 0x1990 DUP4 CODECOPY DUP2 DUP2 ADD PUSH1 0x40 MSTORE DUP2 ADD SWAP1 PUSH3 0x36 SWAP2 SWAP1 PUSH3 0x663 JUMP JUMPDEST DUP1 PUSH0 DUP1 PUSH2 0x100 EXP DUP2 SLOAD DUP2 PUSH20 0xFFFFFFFFFFFFFFFFFFFFFFFFFFFFFFFFFFFFFFFF MUL NOT AND SWAP1 DUP4 PUSH20 0xFFFFFFFFFFFFFFFFFFFFFFFFFFFFFFFFFFFFFFFF AND MUL OR SWAP1 SSTORE POP PUSH0 JUMPDEST DUP4 MLOAD DUP2 LT ISZERO PUSH3 0x10B JUMPI PUSH1 0x2 PUSH1 0x40 MLOAD DUP1 PUSH1 0x40 ADD PUSH1 0x40 MSTORE DUP1 DUP7 DUP5 DUP2 MLOAD DUP2 LT PUSH3 0xA4 JUMPI PUSH3 0xA3 PUSH3 0x6FA JUMP JUMPDEST JUMPDEST PUSH1 0x20 MUL PUSH1 0x20 ADD ADD MLOAD DUP2 MSTORE PUSH1 0x20 ADD PUSH0 DUP2 MSTORE POP SWAP1 DUP1 PUSH1 0x1 DUP2 SLOAD ADD DUP1 DUP3 SSTORE DUP1 SWAP2 POP POP PUSH1 0x1 SWAP1 SUB SWAP1 PUSH0 MSTORE PUSH1 0x20 PUSH0 KECCAK256 SWAP1 PUSH1 0x2 MUL ADD PUSH0 SWAP1 SWAP2 SWAP1 SWAP2 SWAP1 SWAP2 POP PUSH0 DUP3 ADD MLOAD DUP2 PUSH0 ADD SWAP1 DUP2 PUSH3 0xF0 SWAP2 SWAP1 PUSH3 0x95E JUMP JUMPDEST POP PUSH1 0x20 DUP3 ADD MLOAD DUP2 PUSH1 0x1 ADD SSTORE POP POP DUP1 DUP1 PUSH1 0x1 ADD SWAP2 POP POP PUSH3 0x77 JUMP JUMPDEST POP DUP2 PUSH1 0x3 SWAP1 DUP1 MLOAD SWAP1 PUSH1 0x20 ADD SWAP1 PUSH3 0x124 SWAP3 SWAP2 SWAP1 PUSH3 0x209 JUMP JUMPDEST POP PUSH0 JUMPDEST PUSH1 0x3 DUP1 SLOAD SWAP1 POP DUP2 LT ISZERO PUSH3 0x1FF JUMPI PUSH1 0x40 MLOAD DUP1 PUSH1 0x40 ADD PUSH1 0x40 MSTORE DUP1 PUSH0 ISZERO ISZERO DUP2 MSTORE PUSH1 0x20 ADD PUSH0 DUP2 MSTORE POP PUSH1 0x1 PUSH0 PUSH1 0x3 DUP5 DUP2 SLOAD DUP2 LT PUSH3 0x166 JUMPI PUSH3 0x165 PUSH3 0x6FA JUMP JUMPDEST JUMPDEST SWAP1 PUSH0 MSTORE PUSH1 0x20 PUSH0 KECCAK256 ADD PUSH0 SWAP1 SLOAD SWAP1 PUSH2 0x100 EXP SWAP1 DIV PUSH20 0xFFFFFFFFFFFFFFFFFFFFFFFFFFFFFFFFFFFFFFFF AND PUSH20 0xFFFFFFFFFFFFFFFFFFFFFFFFFFFFFFFFFFFFFFFF AND PUSH20 0xFFFFFFFFFFFFFFFFFFFFFFFFFFFFFFFFFFFFFFFF AND DUP2 MSTORE PUSH1 0x20 ADD SWAP1 DUP2 MSTORE PUSH1 0x20 ADD PUSH0 KECCAK256 PUSH0 DUP3 ADD MLOAD DUP2 PUSH0 ADD PUSH0 PUSH2 0x100 EXP DUP2 SLOAD DUP2 PUSH1 0xFF MUL NOT AND SWAP1 DUP4 ISZERO ISZERO MUL OR SWAP1 SSTORE POP PUSH1 0x20 DUP3 ADD MLOAD DUP2 PUSH1 0x1 ADD SSTORE SWAP1 POP POP DUP1 DUP1 PUSH1 0x1 ADD SWAP2 POP POP PUSH3 0x127 JUMP JUMPDEST POP POP POP POP PUSH3 0xA42 JUMP JUMPDEST DUP3 DUP1 SLOAD DUP3 DUP3 SSTORE SWAP1 PUSH0 MSTORE PUSH1 0x20 PUSH0 KECCAK256 SWAP1 DUP2 ADD SWAP3 DUP3 ISZERO PUSH3 0x282 JUMPI SWAP2 PUSH1 0x20 MUL DUP3 ADD JUMPDEST DUP3 DUP2 GT ISZERO PUSH3 0x281 JUMPI DUP3 MLOAD DUP3 PUSH0 PUSH2 0x100 EXP DUP2 SLOAD DUP2 PUSH20 0xFFFFFFFFFFFFFFFFFFFFFFFFFFFFFFFFFFFFFFFF MUL NOT AND SWAP1 DUP4 PUSH20 0xFFFFFFFFFFFFFFFFFFFFFFFFFFFFFFFFFFFFFFFF AND MUL OR SWAP1 SSTORE POP SWAP2 PUSH1 0x20 ADD SWAP2 SWAP1 PUSH1 0x1 ADD SWAP1 PUSH3 0x228 JUMP JUMPDEST JUMPDEST POP SWAP1 POP PUSH3 0x291 SWAP2 SWAP1 PUSH3 0x295 JUMP JUMPDEST POP SWAP1 JUMP JUMPDEST JUMPDEST DUP1 DUP3 GT ISZERO PUSH3 0x2AE JUMPI PUSH0 DUP2 PUSH0 SWAP1 SSTORE POP PUSH1 0x1 ADD PUSH3 0x296 JUMP JUMPDEST POP SWAP1 JUMP JUMPDEST PUSH0 PUSH1 0x40 MLOAD SWAP1 POP SWAP1 JUMP JUMPDEST PUSH0 DUP1 REVERT JUMPDEST PUSH0 DUP1 REVERT JUMPDEST PUSH0 DUP1 REVERT JUMPDEST PUSH0 PUSH1 0x1F NOT PUSH1 0x1F DUP4 ADD AND SWAP1 POP SWAP2 SWAP1 POP JUMP JUMPDEST PUSH32 0x4E487B7100000000000000000000000000000000000000000000000000000000 PUSH0 MSTORE PUSH1 0x41 PUSH1 0x4 MSTORE PUSH1 0x24 PUSH0 REVERT JUMPDEST PUSH3 0x30F DUP3 PUSH3 0x2C7 JUMP JUMPDEST DUP2 ADD DUP2 DUP2 LT PUSH8 0xFFFFFFFFFFFFFFFF DUP3 GT OR ISZERO PUSH3 0x331 JUMPI PUSH3 0x330 PUSH3 0x2D7 JUMP JUMPDEST JUMPDEST DUP1 PUSH1 0x40 MSTORE POP POP POP JUMP JUMPDEST PUSH0 PUSH3 0x345 PUSH3 0x2B2 JUMP JUMPDEST SWAP1 POP PUSH3 0x353 DUP3 DUP3 PUSH3 0x304 JUMP JUMPDEST SWAP2 SWAP1 POP JUMP JUMPDEST PUSH0 PUSH8 0xFFFFFFFFFFFFFFFF DUP3 GT ISZERO PUSH3 0x375 JUMPI PUSH3 0x374 PUSH3 0x2D7 JUMP JUMPDEST JUMPDEST PUSH1 0x20 DUP3 MUL SWAP1 POP PUSH1 0x20 DUP2 ADD SWAP1 POP SWAP2 SWAP1 POP JUMP JUMPDEST PUSH0 DUP1 REVERT JUMPDEST PUSH0 DUP1 REVERT JUMPDEST PUSH0 PUSH8 0xFFFFFFFFFFFFFFFF DUP3 GT ISZERO PUSH3 0x3AB JUMPI PUSH3 0x3AA PUSH3 0x2D7 JUMP JUMPDEST JUMPDEST PUSH3 0x3B6 DUP3 PUSH3 0x2C7 JUMP JUMPDEST SWAP1 POP PUSH1 0x20 DUP2 ADD SWAP1 POP SWAP2 SWAP1 POP JUMP JUMPDEST PUSH0 JUMPDEST DUP4 DUP2 LT ISZERO PUSH3 0x3E2 JUMPI DUP1 DUP3 ADD MLOAD DUP2 DUP5 ADD MSTORE PUSH1 0x20 DUP2 ADD SWAP1 POP PUSH3 0x3C5 JUMP JUMPDEST PUSH0 DUP5 DUP5 ADD MSTORE POP POP POP POP JUMP JUMPDEST PUSH0 PUSH3 0x403 PUSH3 0x3FD DUP5 PUSH3 0x38E JUMP JUMPDEST PUSH3 0x33A JUMP JUMPDEST SWAP1 POP DUP3 DUP2 MSTORE PUSH1 0x20 DUP2 ADD DUP5 DUP5 DUP5 ADD GT ISZERO PUSH3 0x422 JUMPI PUSH3 0x421 PUSH3 0x38A JUMP JUMPDEST JUMPDEST PUSH3 0x42F DUP5 DUP3 DUP6 PUSH3 0x3C3 JUMP JUMPDEST POP SWAP4 SWAP3 POP POP POP JUMP JUMPDEST PUSH0 DUP3 PUSH1 0x1F DUP4 ADD SLT PUSH3 0x44E JUMPI PUSH3 0x44D PUSH3 0x2C3 JUMP JUMPDEST JUMPDEST DUP2 MLOAD PUSH3 0x460 DUP5 DUP3 PUSH1 0x20 DUP7 ADD PUSH3 0x3ED JUMP JUMPDEST SWAP2 POP POP SWAP3 SWAP2 POP POP JUMP JUMPDEST PUSH0 PUSH3 0x47F PUSH3 0x479 DUP5 PUSH3 0x358 JUMP JUMPDEST PUSH3 0x33A JUMP JUMPDEST SWAP1 POP DUP1 DUP4 DUP3 MSTORE PUSH1 0x20 DUP3 ADD SWAP1 POP PUSH1 0x20 DUP5 MUL DUP4 ADD DUP6 DUP2 GT ISZERO PUSH3 0x4A5 JUMPI PUSH3 0x4A4 PUSH3 0x386 JUMP JUMPDEST JUMPDEST DUP4 JUMPDEST DUP2 DUP2 LT ISZERO PUSH3 0x4F3 JUMPI DUP1 MLOAD PUSH8 0xFFFFFFFFFFFFFFFF DUP2 GT ISZERO PUSH3 0x4CE JUMPI PUSH3 0x4CD PUSH3 0x2C3 JUMP JUMPDEST JUMPDEST DUP1 DUP7 ADD PUSH3 0x4DD DUP10 DUP3 PUSH3 0x437 JUMP JUMPDEST DUP6 MSTORE PUSH1 0x20 DUP6 ADD SWAP5 POP POP POP PUSH1 0x20 DUP2 ADD SWAP1 POP PUSH3 0x4A7 JUMP JUMPDEST POP POP POP SWAP4 SWAP3 POP POP POP JUMP JUMPDEST PUSH0 DUP3 PUSH1 0x1F DUP4 ADD SLT PUSH3 0x514 JUMPI PUSH3 0x513 PUSH3 0x2C3 JUMP JUMPDEST JUMPDEST DUP2 MLOAD PUSH3 0x526 DUP5 DUP3 PUSH1 0x20 DUP7 ADD PUSH3 0x469 JUMP JUMPDEST SWAP2 POP POP SWAP3 SWAP2 POP POP JUMP JUMPDEST PUSH0 PUSH8 0xFFFFFFFFFFFFFFFF DUP3 GT ISZERO PUSH3 0x54C JUMPI PUSH3 0x54B PUSH3 0x2D7 JUMP JUMPDEST JUMPDEST PUSH1 0x20 DUP3 MUL SWAP1 POP PUSH1 0x20 DUP2 ADD SWAP1 POP SWAP2 SWAP1 POP JUMP JUMPDEST PUSH0 PUSH20 0xFFFFFFFFFFFFFFFFFFFFFFFFFFFFFFFFFFFFFFFF DUP3 AND SWAP1 POP SWAP2 SWAP1 POP JUMP JUMPDEST PUSH0 PUSH3 0x588 DUP3 PUSH3 0x55D JUMP JUMPDEST SWAP1 POP SWAP2 SWAP1 POP JUMP JUMPDEST PUSH3 0x59A DUP2 PUSH3 0x57C JUMP JUMPDEST DUP2 EQ PUSH3 0x5A5 JUMPI PUSH0 DUP1 REVERT JUMPDEST POP JUMP JUMPDEST PUSH0 DUP2 MLOAD SWAP1 POP PUSH3 0x5B8 DUP2 PUSH3 0x58F JUMP JUMPDEST SWAP3 SWAP2 POP POP JUMP JUMPDEST PUSH0 PUSH3 0x5D4 PUSH3 0x5CE DUP5 PUSH3 0x52F JUMP JUMPDEST PUSH3 0x33A JUMP JUMPDEST SWAP1 POP DUP1 DUP4 DUP3 MSTORE PUSH1 0x20 DUP3 ADD SWAP1 POP PUSH1 0x20 DUP5 MUL DUP4 ADD DUP6 DUP2 GT ISZERO PUSH3 0x5FA JUMPI PUSH3 0x5F9 PUSH3 0x386 JUMP JUMPDEST JUMPDEST DUP4 JUMPDEST DUP2 DUP2 LT ISZERO PUSH3 0x627 JUMPI DUP1 PUSH3 0x612 DUP9 DUP3 PUSH3 0x5A8 JUMP JUMPDEST DUP5 MSTORE PUSH1 0x20 DUP5 ADD SWAP4 POP POP PUSH1 0x20 DUP2 ADD SWAP1 POP PUSH3 0x5FC JUMP JUMPDEST POP POP POP SWAP4 SWAP3 POP POP POP JUMP JUMPDEST PUSH0 DUP3 PUSH1 0x1F DUP4 ADD SLT PUSH3 0x648 JUMPI PUSH3 0x647 PUSH3 0x2C3 JUMP JUMPDEST JUMPDEST DUP2 MLOAD PUSH3 0x65A DUP5 DUP3 PUSH1 0x20 DUP7 ADD PUSH3 0x5BE JUMP JUMPDEST SWAP2 POP POP SWAP3 SWAP2 POP POP JUMP JUMPDEST PUSH0 DUP1 PUSH0 PUSH1 0x60 DUP5 DUP7 SUB SLT ISZERO PUSH3 0x67D JUMPI PUSH3 0x67C PUSH3 0x2BB JUMP JUMPDEST JUMPDEST PUSH0 DUP5 ADD MLOAD PUSH8 0xFFFFFFFFFFFFFFFF DUP2 GT ISZERO PUSH3 0x69D JUMPI PUSH3 0x69C PUSH3 0x2BF JUMP JUMPDEST JUMPDEST PUSH3 0x6AB DUP7 DUP3 DUP8 ADD PUSH3 0x4FD JUMP JUMPDEST SWAP4 POP POP PUSH1 0x20 DUP5 ADD MLOAD PUSH8 0xFFFFFFFFFFFFFFFF DUP2 GT ISZERO PUSH3 0x6CF JUMPI PUSH3 0x6CE PUSH3 0x2BF JUMP JUMPDEST JUMPDEST PUSH3 0x6DD DUP7 DUP3 DUP8 ADD PUSH3 0x631 JUMP JUMPDEST SWAP3 POP POP PUSH1 0x40 PUSH3 0x6F0 DUP7 DUP3 DUP8 ADD PUSH3 0x5A8 JUMP JUMPDEST SWAP2 POP POP SWAP3 POP SWAP3 POP SWAP3 JUMP JUMPDEST PUSH32 0x4E487B7100000000000000000000000000000000000000000000000000000000 PUSH0 MSTORE PUSH1 0x32 PUSH1 0x4 MSTORE PUSH1 0x24 PUSH0 REVERT JUMPDEST PUSH0 DUP2 MLOAD SWAP1 POP SWAP2 SWAP1 POP JUMP JUMPDEST PUSH32 0x4E487B7100000000000000000000000000000000000000000000000000000000 PUSH0 MSTORE PUSH1 0x22 PUSH1 0x4 MSTORE PUSH1 0x24 PUSH0 REVERT JUMPDEST PUSH0 PUSH1 0x2 DUP3 DIV SWAP1 POP PUSH1 0x1 DUP3 AND DUP1 PUSH3 0x776 JUMPI PUSH1 0x7F DUP3 AND SWAP2 POP JUMPDEST PUSH1 0x20 DUP3 LT DUP2 SUB PUSH3 0x78C JUMPI PUSH3 0x78B PUSH3 0x731 JUMP JUMPDEST JUMPDEST POP SWAP2 SWAP1 POP JUMP JUMPDEST PUSH0 DUP2 SWAP1 POP DUP2 PUSH0 MSTORE PUSH1 0x20 PUSH0 KECCAK256 SWAP1 POP SWAP2 SWAP1 POP JUMP JUMPDEST PUSH0 PUSH1 0x20 PUSH1 0x1F DUP4 ADD DIV SWAP1 POP SWAP2 SWAP1 POP JUMP JUMPDEST PUSH0 DUP3 DUP3 SHL SWAP1 POP SWAP3 SWAP2 POP POP JUMP JUMPDEST PUSH0 PUSH1 0x8 DUP4 MUL PUSH3 0x7F0 PUSH32 0xFFFFFFFFFFFFFFFFFFFFFFFFFFFFFFFFFFFFFFFFFFFFFFFFFFFFFFFFFFFFFFFF DUP3 PUSH3 0x7B3 JUMP JUMPDEST PUSH3 0x7FC DUP7 DUP4 PUSH3 0x7B3 JUMP JUMPDEST SWAP6 POP DUP1 NOT DUP5 AND SWAP4 POP DUP1 DUP7 AND DUP5 OR SWAP3 POP POP POP SWAP4 SWAP3 POP POP POP JUMP JUMPDEST PUSH0 DUP2 SWAP1 POP SWAP2 SWAP1 POP JUMP JUMPDEST PUSH0 DUP2 SWAP1 POP SWAP2 SWAP1 POP JUMP JUMPDEST PUSH0 PUSH3 0x846 PUSH3 0x840 PUSH3 0x83A DUP5 PUSH3 0x814 JUMP JUMPDEST PUSH3 0x81D JUMP JUMPDEST PUSH3 0x814 JUMP JUMPDEST SWAP1 POP SWAP2 SWAP1 POP JUMP JUMPDEST PUSH0 DUP2 SWAP1 POP SWAP2 SWAP1 POP JUMP JUMPDEST PUSH3 0x861 DUP4 PUSH3 0x826 JUMP JUMPDEST PUSH3 0x879 PUSH3 0x870 DUP3 PUSH3 0x84D JUMP JUMPDEST DUP5 DUP5 SLOAD PUSH3 0x7BF JUMP JUMPDEST DUP3 SSTORE POP POP POP POP JUMP JUMPDEST PUSH0 SWAP1 JUMP JUMPDEST PUSH3 0x88F PUSH3 0x881 JUMP JUMPDEST PUSH3 0x89C DUP2 DUP5 DUP5 PUSH3 0x856 JUMP JUMPDEST POP POP POP JUMP JUMPDEST JUMPDEST DUP2 DUP2 LT ISZERO PUSH3 0x8C3 JUMPI PUSH3 0x8B7 PUSH0 DUP3 PUSH3 0x885 JUMP JUMPDEST PUSH1 0x1 DUP2 ADD SWAP1 POP PUSH3 0x8A2 JUMP JUMPDEST POP POP JUMP JUMPDEST PUSH1 0x1F DUP3 GT ISZERO PUSH3 0x912 JUMPI PUSH3 0x8DC DUP2 PUSH3 0x792 JUMP JUMPDEST PUSH3 0x8E7 DUP5 PUSH3 0x7A4 JUMP JUMPDEST DUP2 ADD PUSH1 0x20 DUP6 LT ISZERO PUSH3 0x8F7 JUMPI DUP2 SWAP1 POP JUMPDEST PUSH3 0x90F PUSH3 0x906 DUP6 PUSH3 0x7A4 JUMP JUMPDEST DUP4 ADD DUP3 PUSH3 0x8A1 JUMP JUMPDEST POP POP JUMPDEST POP POP POP JUMP JUMPDEST PUSH0 DUP3 DUP3 SHR SWAP1 POP SWAP3 SWAP2 POP POP JUMP JUMPDEST PUSH0 PUSH3 0x934 PUSH0 NOT DUP5 PUSH1 0x8 MUL PUSH3 0x917 JUMP JUMPDEST NOT DUP1 DUP4 AND SWAP2 POP POP SWAP3 SWAP2 POP POP JUMP JUMPDEST PUSH0 PUSH3 0x94E DUP4 DUP4 PUSH3 0x923 JUMP JUMPDEST SWAP2 POP DUP3 PUSH1 0x2 MUL DUP3 OR SWAP1 POP SWAP3 SWAP2 POP POP JUMP JUMPDEST PUSH3 0x969 DUP3 PUSH3 0x727 JUMP JUMPDEST PUSH8 0xFFFFFFFFFFFFFFFF DUP2 GT ISZERO PUSH3 0x985 JUMPI PUSH3 0x984 PUSH3 0x2D7 JUMP JUMPDEST JUMPDEST PUSH3 0x991 DUP3 SLOAD PUSH3 0x75E JUMP JUMPDEST PUSH3 0x99E DUP3 DUP3 DUP6 PUSH3 0x8C7 JUMP JUMPDEST PUSH0 PUSH1 0x20 SWAP1 POP PUSH1 0x1F DUP4 GT PUSH1 0x1 DUP2 EQ PUSH3 0x9D4 JUMPI PUSH0 DUP5 ISZERO PUSH3 0x9BF JUMPI DUP3 DUP8 ADD MLOAD SWAP1 POP JUMPDEST PUSH3 0x9CB DUP6 DUP3 PUSH3 0x941 JUMP JUMPDEST DUP7 SSTORE POP PUSH3 0xA3A JUMP JUMPDEST PUSH1 0x1F NOT DUP5 AND PUSH3 0x9E4 DUP7 PUSH3 0x792 JUMP JUMPDEST PUSH0 JUMPDEST DUP3 DUP2 LT ISZERO PUSH3 0xA0D JUMPI DUP5 DUP10 ADD MLOAD DUP3 SSTORE PUSH1 0x1 DUP3 ADD SWAP2 POP PUSH1 0x20 DUP6 ADD SWAP5 POP PUSH1 0x20 DUP2 ADD SWAP1 POP PUSH3 0x9E6 JUMP JUMPDEST DUP7 DUP4 LT ISZERO PUSH3 0xA2D JUMPI DUP5 DUP10 ADD MLOAD PUSH3 0xA29 PUSH1 0x1F DUP10 AND DUP3 PUSH3 0x923 JUMP JUMPDEST DUP4 SSTORE POP JUMPDEST PUSH1 0x1 PUSH1 0x2 DUP9 MUL ADD DUP9 SSTORE POP POP POP JUMPDEST POP POP POP POP POP POP JUMP JUMPDEST PUSH2 0xF40 DUP1 PUSH3 0xA50 PUSH0 CODECOPY PUSH0 RETURN INVALID PUSH1 0x80 PUSH1 0x40 MSTORE CALLVALUE DUP1 ISZERO PUSH2 0xF JUMPI PUSH0 DUP1 REVERT JUMPDEST POP PUSH1 0x4 CALLDATASIZE LT PUSH2 0x7B JUMPI PUSH0 CALLDATALOAD PUSH1 0xE0 SHR DUP1 PUSH4 0xA3EC138D GT PUSH2 0x59 JUMPI DUP1 PUSH4 0xA3EC138D EQ PUSH2 0x110 JUMPI DUP1 PUSH4 0xD3AE3E1D EQ PUSH2 0x141 JUMPI DUP1 PUSH4 0xDE292789 EQ PUSH2 0x15D JUMPI DUP1 PUSH4 0xF851A440 EQ PUSH2 0x17B JUMPI PUSH2 0x7B JUMP JUMPDEST DUP1 PUSH4 0x3477EE2E EQ PUSH2 0x7F JUMPI DUP1 PUSH4 0x6241AED9 EQ PUSH2 0xB0 JUMPI DUP1 PUSH4 0x90CAF298 EQ PUSH2 0xE0 JUMPI JUMPDEST PUSH0 DUP1 REVERT JUMPDEST PUSH2 0x99 PUSH1 0x4 DUP1 CALLDATASIZE SUB DUP2 ADD SWAP1 PUSH2 0x94 SWAP2 SWAP1 PUSH2 0x7E6 JUMP JUMPDEST PUSH2 0x199 JUMP JUMPDEST PUSH1 0x40 MLOAD PUSH2 0xA7 SWAP3 SWAP2 SWAP1 PUSH2 0x8AA JUMP JUMPDEST PUSH1 0x40 MLOAD DUP1 SWAP2 SUB SWAP1 RETURN JUMPDEST PUSH2 0xCA PUSH1 0x4 DUP1 CALLDATASIZE SUB DUP2 ADD SWAP1 PUSH2 0xC5 SWAP2 SWAP1 PUSH2 0xA04 JUMP JUMPDEST PUSH2 0x24E JUMP JUMPDEST PUSH1 0x40 MLOAD PUSH2 0xD7 SWAP2 SWAP1 PUSH2 0xA4B JUMP JUMPDEST PUSH1 0x40 MLOAD DUP1 SWAP2 SUB SWAP1 RETURN JUMPDEST PUSH2 0xFA PUSH1 0x4 DUP1 CALLDATASIZE SUB DUP2 ADD SWAP1 PUSH2 0xF5 SWAP2 SWAP1 PUSH2 0x7E6 JUMP JUMPDEST PUSH2 0x287 JUMP JUMPDEST PUSH1 0x40 MLOAD PUSH2 0x107 SWAP2 SWAP1 PUSH2 0xAA3 JUMP JUMPDEST PUSH1 0x40 MLOAD DUP1 SWAP2 SUB SWAP1 RETURN JUMPDEST PUSH2 0x12A PUSH1 0x4 DUP1 CALLDATASIZE SUB DUP2 ADD SWAP1 PUSH2 0x125 SWAP2 SWAP1 PUSH2 0xAE6 JUMP JUMPDEST PUSH2 0x2C2 JUMP JUMPDEST PUSH1 0x40 MLOAD PUSH2 0x138 SWAP3 SWAP2 SWAP1 PUSH2 0xB2B JUMP JUMPDEST PUSH1 0x40 MLOAD DUP1 SWAP2 SUB SWAP1 RETURN JUMPDEST PUSH2 0x15B PUSH1 0x4 DUP1 CALLDATASIZE SUB DUP2 ADD SWAP1 PUSH2 0x156 SWAP2 SWAP1 PUSH2 0xB52 JUMP JUMPDEST PUSH2 0x2EE JUMP JUMPDEST STOP JUMPDEST PUSH2 0x165 PUSH2 0x50E JUMP JUMPDEST PUSH1 0x40 MLOAD PUSH2 0x172 SWAP2 SWAP1 PUSH2 0xBAC JUMP JUMPDEST PUSH1 0x40 MLOAD DUP1 SWAP2 SUB SWAP1 RETURN JUMPDEST PUSH2 0x183 PUSH2 0x62F JUMP JUMPDEST PUSH1 0x40 MLOAD PUSH2 0x190 SWAP2 SWAP1 PUSH2 0xAA3 JUMP JUMPDEST PUSH1 0x40 MLOAD DUP1 SWAP2 SUB SWAP1 RETURN JUMPDEST PUSH1 0x2 DUP2 DUP2 SLOAD DUP2 LT PUSH2 0x1A8 JUMPI PUSH0 DUP1 REVERT JUMPDEST SWAP1 PUSH0 MSTORE PUSH1 0x20 PUSH0 KECCAK256 SWAP1 PUSH1 0x2 MUL ADD PUSH0 SWAP2 POP SWAP1 POP DUP1 PUSH0 ADD DUP1 SLOAD PUSH2 0x1C7 SWAP1 PUSH2 0xBF9 JUMP JUMPDEST DUP1 PUSH1 0x1F ADD PUSH1 0x20 DUP1 SWAP2 DIV MUL PUSH1 0x20 ADD PUSH1 0x40 MLOAD SWAP1 DUP2 ADD PUSH1 0x40 MSTORE DUP1 SWAP3 SWAP2 SWAP1 DUP2 DUP2 MSTORE PUSH1 0x20 ADD DUP3 DUP1 SLOAD PUSH2 0x1F3 SWAP1 PUSH2 0xBF9 JUMP JUMPDEST DUP1 ISZERO PUSH2 0x23E JUMPI DUP1 PUSH1 0x1F LT PUSH2 0x215 JUMPI PUSH2 0x100 DUP1 DUP4 SLOAD DIV MUL DUP4 MSTORE SWAP2 PUSH1 0x20 ADD SWAP2 PUSH2 0x23E JUMP JUMPDEST DUP3 ADD SWAP2 SWAP1 PUSH0 MSTORE PUSH1 0x20 PUSH0 KECCAK256 SWAP1 JUMPDEST DUP2 SLOAD DUP2 MSTORE SWAP1 PUSH1 0x1 ADD SWAP1 PUSH1 0x20 ADD DUP1 DUP4 GT PUSH2 0x221 JUMPI DUP3 SWAP1 SUB PUSH1 0x1F AND DUP3 ADD SWAP2 JUMPDEST POP POP POP POP POP SWAP1 DUP1 PUSH1 0x1 ADD SLOAD SWAP1 POP DUP3 JUMP JUMPDEST PUSH0 DUP1 PUSH2 0x259 DUP4 PUSH2 0x652 JUMP JUMPDEST SWAP1 POP PUSH1 0x2 DUP2 DUP2 SLOAD DUP2 LT PUSH2 0x26F JUMPI PUSH2 0x26E PUSH2 0xC29 JUMP JUMPDEST JUMPDEST SWAP1 PUSH0 MSTORE PUSH1 0x20 PUSH0 KECCAK256 SWAP1 PUSH1 0x2 MUL ADD PUSH1 0x1 ADD SLOAD SWAP2 POP POP SWAP2 SWAP1 POP JUMP JUMPDEST PUSH1 0x3 DUP2 DUP2 SLOAD DUP2 LT PUSH2 0x296 JUMPI PUSH0 DUP1 REVERT JUMPDEST SWAP1 PUSH0 MSTORE PUSH1 0x20 PUSH0 KECCAK256 ADD PUSH0 SWAP2 POP SLOAD SWAP1 PUSH2 0x100 EXP SWAP1 DIV PUSH20 0xFFFFFFFFFFFFFFFFFFFFFFFFFFFFFFFFFFFFFFFF AND DUP2 JUMP JUMPDEST PUSH1 0x1 PUSH1 0x20 MSTORE DUP1 PUSH0 MSTORE PUSH1 0x40 PUSH0 KECCAK256 PUSH0 SWAP2 POP SWAP1 POP DUP1 PUSH0 ADD PUSH0 SWAP1 SLOAD SWAP1 PUSH2 0x100 EXP SWAP1 DIV PUSH1 0xFF AND SWAP1 DUP1 PUSH1 0x1 ADD SLOAD SWAP1 POP DUP3 JUMP JUMPDEST DUP2 PUSH1 0x1 PUSH0 DUP3 PUSH20 0xFFFFFFFFFFFFFFFFFFFFFFFFFFFFFFFFFFFFFFFF AND PUSH20 0xFFFFFFFFFFFFFFFFFFFFFFFFFFFFFFFFFFFFFFFF AND DUP2 MSTORE PUSH1 0x20 ADD SWAP1 DUP2 MSTORE PUSH1 0x20 ADD PUSH0 KECCAK256 PUSH0 ADD PUSH0 SWAP1 SLOAD SWAP1 PUSH2 0x100 EXP SWAP1 DIV PUSH1 0xFF AND ISZERO PUSH2 0x37B JUMPI PUSH1 0x40 MLOAD PUSH32 0x8C379A000000000000000000000000000000000000000000000000000000000 DUP2 MSTORE PUSH1 0x4 ADD PUSH2 0x372 SWAP1 PUSH2 0xCB0 JUMP JUMPDEST PUSH1 0x40 MLOAD DUP1 SWAP2 SUB SWAP1 REVERT JUMPDEST PUSH2 0x384 DUP2 PUSH2 0x700 JUMP JUMPDEST PUSH2 0x3C3 JUMPI PUSH1 0x40 MLOAD PUSH32 0x8C379A000000000000000000000000000000000000000000000000000000000 DUP2 MSTORE PUSH1 0x4 ADD PUSH2 0x3BA SWAP1 PUSH2 0xD18 JUMP JUMPDEST PUSH1 0x40 MLOAD DUP1 SWAP2 SUB SWAP1 REVERT JUMPDEST PUSH2 0x3CC DUP3 PUSH2 0x24E JUMP JUMPDEST POP PUSH1 0x2 PUSH2 0x3D8 DUP4 PUSH2 0x652 JUMP JUMPDEST DUP2 SLOAD DUP2 LT PUSH2 0x3E9 JUMPI PUSH2 0x3E8 PUSH2 0xC29 JUMP JUMPDEST JUMPDEST SWAP1 PUSH0 MSTORE PUSH1 0x20 PUSH0 KECCAK256 SWAP1 PUSH1 0x2 MUL ADD PUSH1 0x1 ADD PUSH0 DUP2 SLOAD DUP1 SWAP3 SWAP2 SWAP1 PUSH2 0x408 SWAP1 PUSH2 0xD63 JUMP JUMPDEST SWAP2 SWAP1 POP SSTORE POP PUSH1 0x1 DUP1 PUSH0 DUP6 PUSH20 0xFFFFFFFFFFFFFFFFFFFFFFFFFFFFFFFFFFFFFFFF AND PUSH20 0xFFFFFFFFFFFFFFFFFFFFFFFFFFFFFFFFFFFFFFFF AND DUP2 MSTORE PUSH1 0x20 ADD SWAP1 DUP2 MSTORE PUSH1 0x20 ADD PUSH0 KECCAK256 PUSH0 ADD PUSH0 PUSH2 0x100 EXP DUP2 SLOAD DUP2 PUSH1 0xFF MUL NOT AND SWAP1 DUP4 ISZERO ISZERO MUL OR SWAP1 SSTORE POP PUSH2 0x46C DUP3 PUSH2 0x652 JUMP JUMPDEST PUSH1 0x1 PUSH0 DUP6 PUSH20 0xFFFFFFFFFFFFFFFFFFFFFFFFFFFFFFFFFFFFFFFF AND PUSH20 0xFFFFFFFFFFFFFFFFFFFFFFFFFFFFFFFFFFFFFFFF AND DUP2 MSTORE PUSH1 0x20 ADD SWAP1 DUP2 MSTORE PUSH1 0x20 ADD PUSH0 KECCAK256 PUSH1 0x1 ADD DUP2 SWAP1 SSTORE POP DUP2 PUSH1 0x40 MLOAD PUSH2 0x4BE SWAP2 SWAP1 PUSH2 0xDE4 JUMP JUMPDEST PUSH1 0x40 MLOAD DUP1 SWAP2 SUB SWAP1 KECCAK256 DUP4 PUSH20 0xFFFFFFFFFFFFFFFFFFFFFFFFFFFFFFFFFFFFFFFF AND PUSH32 0x1BACFD660758A6EEE44B9973BA8E452AAD60EDBCFFC67BBAE34E8CB3FA3E52DA PUSH1 0x40 MLOAD PUSH1 0x40 MLOAD DUP1 SWAP2 SUB SWAP1 LOG3 POP POP POP JUMP JUMPDEST PUSH1 0x60 PUSH0 DUP1 JUMPDEST PUSH1 0x2 DUP1 SLOAD SWAP1 POP DUP2 LT ISZERO PUSH2 0x62A JUMPI DUP2 PUSH1 0x2 DUP3 DUP2 SLOAD DUP2 LT PUSH2 0x535 JUMPI PUSH2 0x534 PUSH2 0xC29 JUMP JUMPDEST JUMPDEST SWAP1 PUSH0 MSTORE PUSH1 0x20 PUSH0 KECCAK256 SWAP1 PUSH1 0x2 MUL ADD PUSH1 0x1 ADD SLOAD GT ISZERO PUSH2 0x61D JUMPI PUSH1 0x2 DUP2 DUP2 SLOAD DUP2 LT PUSH2 0x55F JUMPI PUSH2 0x55E PUSH2 0xC29 JUMP JUMPDEST JUMPDEST SWAP1 PUSH0 MSTORE PUSH1 0x20 PUSH0 KECCAK256 SWAP1 PUSH1 0x2 MUL ADD PUSH1 0x1 ADD SLOAD SWAP2 POP PUSH1 0x2 DUP2 DUP2 SLOAD DUP2 LT PUSH2 0x585 JUMPI PUSH2 0x584 PUSH2 0xC29 JUMP JUMPDEST JUMPDEST SWAP1 PUSH0 MSTORE PUSH1 0x20 PUSH0 KECCAK256 SWAP1 PUSH1 0x2 MUL ADD PUSH0 ADD DUP1 SLOAD PUSH2 0x59E SWAP1 PUSH2 0xBF9 JUMP JUMPDEST DUP1 PUSH1 0x1F ADD PUSH1 0x20 DUP1 SWAP2 DIV MUL PUSH1 0x20 ADD PUSH1 0x40 MLOAD SWAP1 DUP2 ADD PUSH1 0x40 MSTORE DUP1 SWAP3 SWAP2 SWAP1 DUP2 DUP2 MSTORE PUSH1 0x20 ADD DUP3 DUP1 SLOAD PUSH2 0x5CA SWAP1 PUSH2 0xBF9 JUMP JUMPDEST DUP1 ISZERO PUSH2 0x615 JUMPI DUP1 PUSH1 0x1F LT PUSH2 0x5EC JUMPI PUSH2 0x100 DUP1 DUP4 SLOAD DIV MUL DUP4 MSTORE SWAP2 PUSH1 0x20 ADD SWAP2 PUSH2 0x615 JUMP JUMPDEST DUP3 ADD SWAP2 SWAP1 PUSH0 MSTORE PUSH1 0x20 PUSH0 KECCAK256 SWAP1 JUMPDEST DUP2 SLOAD DUP2 MSTORE SWAP1 PUSH1 0x1 ADD SWAP1 PUSH1 0x20 ADD DUP1 DUP4 GT PUSH2 0x5F8 JUMPI DUP3 SWAP1 SUB PUSH1 0x1F AND DUP3 ADD SWAP2 JUMPDEST POP POP POP POP POP SWAP3 POP JUMPDEST DUP1 DUP1 PUSH1 0x1 ADD SWAP2 POP POP PUSH2 0x513 JUMP JUMPDEST POP POP SWAP1 JUMP JUMPDEST PUSH0 DUP1 SLOAD SWAP1 PUSH2 0x100 EXP SWAP1 DIV PUSH20 0xFFFFFFFFFFFFFFFFFFFFFFFFFFFFFFFFFFFFFFFF AND DUP2 JUMP JUMPDEST PUSH0 DUP1 PUSH0 SWAP1 POP JUMPDEST PUSH1 0x2 DUP1 SLOAD SWAP1 POP DUP2 LT ISZERO PUSH2 0x6BF JUMPI DUP3 DUP1 MLOAD SWAP1 PUSH1 0x20 ADD KECCAK256 PUSH1 0x2 DUP3 DUP2 SLOAD DUP2 LT PUSH2 0x681 JUMPI PUSH2 0x680 PUSH2 0xC29 JUMP JUMPDEST JUMPDEST SWAP1 PUSH0 MSTORE PUSH1 0x20 PUSH0 KECCAK256 SWAP1 PUSH1 0x2 MUL ADD PUSH0 ADD PUSH1 0x40 MLOAD PUSH2 0x69C SWAP2 SWAP1 PUSH2 0xE8C JUMP JUMPDEST PUSH1 0x40 MLOAD DUP1 SWAP2 SUB SWAP1 KECCAK256 SUB PUSH2 0x6B2 JUMPI DUP1 SWAP2 POP POP PUSH2 0x6FB JUMP JUMPDEST DUP1 DUP1 PUSH1 0x1 ADD SWAP2 POP POP PUSH2 0x658 JUMP JUMPDEST POP PUSH1 0x40 MLOAD PUSH32 0x8C379A000000000000000000000000000000000000000000000000000000000 DUP2 MSTORE PUSH1 0x4 ADD PUSH2 0x6F2 SWAP1 PUSH2 0xEEC JUMP JUMPDEST PUSH1 0x40 MLOAD DUP1 SWAP2 SUB SWAP1 REVERT JUMPDEST SWAP2 SWAP1 POP JUMP JUMPDEST PUSH0 DUP1 PUSH0 SWAP1 POP JUMPDEST PUSH1 0x3 DUP1 SLOAD SWAP1 POP DUP2 LT ISZERO PUSH2 0x798 JUMPI DUP3 PUSH20 0xFFFFFFFFFFFFFFFFFFFFFFFFFFFFFFFFFFFFFFFF AND PUSH1 0x3 DUP3 DUP2 SLOAD DUP2 LT PUSH2 0x73E JUMPI PUSH2 0x73D PUSH2 0xC29 JUMP JUMPDEST JUMPDEST SWAP1 PUSH0 MSTORE PUSH1 0x20 PUSH0 KECCAK256 ADD PUSH0 SWAP1 SLOAD SWAP1 PUSH2 0x100 EXP SWAP1 DIV PUSH20 0xFFFFFFFFFFFFFFFFFFFFFFFFFFFFFFFFFFFFFFFF AND PUSH20 0xFFFFFFFFFFFFFFFFFFFFFFFFFFFFFFFFFFFFFFFF AND SUB PUSH2 0x78B JUMPI PUSH1 0x1 SWAP2 POP POP PUSH2 0x79D JUMP JUMPDEST DUP1 DUP1 PUSH1 0x1 ADD SWAP2 POP POP PUSH2 0x706 JUMP JUMPDEST POP PUSH0 SWAP1 POP JUMPDEST SWAP2 SWAP1 POP JUMP JUMPDEST PUSH0 PUSH1 0x40 MLOAD SWAP1 POP SWAP1 JUMP JUMPDEST PUSH0 DUP1 REVERT JUMPDEST PUSH0 DUP1 REVERT JUMPDEST PUSH0 DUP2 SWAP1 POP SWAP2 SWAP1 POP JUMP JUMPDEST PUSH2 0x7C5 DUP2 PUSH2 0x7B3 JUMP JUMPDEST DUP2 EQ PUSH2 0x7CF JUMPI PUSH0 DUP1 REVERT JUMPDEST POP JUMP JUMPDEST PUSH0 DUP2 CALLDATALOAD SWAP1 POP PUSH2 0x7E0 DUP2 PUSH2 0x7BC JUMP JUMPDEST SWAP3 SWAP2 POP POP JUMP JUMPDEST PUSH0 PUSH1 0x20 DUP3 DUP5 SUB SLT ISZERO PUSH2 0x7FB JUMPI PUSH2 0x7FA PUSH2 0x7AB JUMP JUMPDEST JUMPDEST PUSH0 PUSH2 0x808 DUP5 DUP3 DUP6 ADD PUSH2 0x7D2 JUMP JUMPDEST SWAP2 POP POP SWAP3 SWAP2 POP POP JUMP JUMPDEST PUSH0 DUP2 MLOAD SWAP1 POP SWAP2 SWAP1 POP JUMP JUMPDEST PUSH0 DUP3 DUP3 MSTORE PUSH1 0x20 DUP3 ADD SWAP1 POP SWAP3 SWAP2 POP POP JUMP JUMPDEST PUSH0 JUMPDEST DUP4 DUP2 LT ISZERO PUSH2 0x848 JUMPI DUP1 DUP3 ADD MLOAD DUP2 DUP5 ADD MSTORE PUSH1 0x20 DUP2 ADD SWAP1 POP PUSH2 0x82D JUMP JUMPDEST PUSH0 DUP5 DUP5 ADD MSTORE POP POP POP POP JUMP JUMPDEST PUSH0 PUSH1 0x1F NOT PUSH1 0x1F DUP4 ADD AND SWAP1 POP SWAP2 SWAP1 POP JUMP JUMPDEST PUSH0 PUSH2 0x86D DUP3 PUSH2 0x811 JUMP JUMPDEST PUSH2 0x877 DUP2 DUP6 PUSH2 0x81B JUMP JUMPDEST SWAP4 POP PUSH2 0x887 DUP2 DUP6 PUSH1 0x20 DUP7 ADD PUSH2 0x82B JUMP JUMPDEST PUSH2 0x890 DUP2 PUSH2 0x853 JUMP JUMPDEST DUP5 ADD SWAP2 POP POP SWAP3 SWAP2 POP POP JUMP JUMPDEST PUSH2 0x8A4 DUP2 PUSH2 0x7B3 JUMP JUMPDEST DUP3 MSTORE POP POP JUMP JUMPDEST PUSH0 PUSH1 0x40 DUP3 ADD SWAP1 POP DUP2 DUP2 SUB PUSH0 DUP4 ADD MSTORE PUSH2 0x8C2 DUP2 DUP6 PUSH2 0x863 JUMP JUMPDEST SWAP1 POP PUSH2 0x8D1 PUSH1 0x20 DUP4 ADD DUP5 PUSH2 0x89B JUMP JUMPDEST SWAP4 SWAP3 POP POP POP JUMP JUMPDEST PUSH0 DUP1 REVERT JUMPDEST PUSH0 DUP1 REVERT JUMPDEST PUSH32 0x4E487B7100000000000000000000000000000000000000000000000000000000 PUSH0 MSTORE PUSH1 0x41 PUSH1 0x4 MSTORE PUSH1 0x24 PUSH0 REVERT JUMPDEST PUSH2 0x916 DUP3 PUSH2 0x853 JUMP JUMPDEST DUP2 ADD DUP2 DUP2 LT PUSH8 0xFFFFFFFFFFFFFFFF DUP3 GT OR ISZERO PUSH2 0x935 JUMPI PUSH2 0x934 PUSH2 0x8E0 JUMP JUMPDEST JUMPDEST DUP1 PUSH1 0x40 MSTORE POP POP POP JUMP JUMPDEST PUSH0 PUSH2 0x947 PUSH2 0x7A2 JUMP JUMPDEST SWAP1 POP PUSH2 0x953 DUP3 DUP3 PUSH2 0x90D JUMP JUMPDEST SWAP2 SWAP1 POP JUMP JUMPDEST PUSH0 PUSH8 0xFFFFFFFFFFFFFFFF DUP3 GT ISZERO PUSH2 0x972 JUMPI PUSH2 0x971 PUSH2 0x8E0 JUMP JUMPDEST JUMPDEST PUSH2 0x97B DUP3 PUSH2 0x853 JUMP JUMPDEST SWAP1 POP PUSH1 0x20 DUP2 ADD SWAP1 POP SWAP2 SWAP1 POP JUMP JUMPDEST DUP3 DUP2 DUP4 CALLDATACOPY PUSH0 DUP4 DUP4 ADD MSTORE POP POP POP JUMP JUMPDEST PUSH0 PUSH2 0x9A8 PUSH2 0x9A3 DUP5 PUSH2 0x958 JUMP JUMPDEST PUSH2 0x93E JUMP JUMPDEST SWAP1 POP DUP3 DUP2 MSTORE PUSH1 0x20 DUP2 ADD DUP5 DUP5 DUP5 ADD GT ISZERO PUSH2 0x9C4 JUMPI PUSH2 0x9C3 PUSH2 0x8DC JUMP JUMPDEST JUMPDEST PUSH2 0x9CF DUP5 DUP3 DUP6 PUSH2 0x988 JUMP JUMPDEST POP SWAP4 SWAP3 POP POP POP JUMP JUMPDEST PUSH0 DUP3 PUSH1 0x1F DUP4 ADD SLT PUSH2 0x9EB JUMPI PUSH2 0x9EA PUSH2 0x8D8 JUMP JUMPDEST JUMPDEST DUP2 CALLDATALOAD PUSH2 0x9FB DUP5 DUP3 PUSH1 0x20 DUP7 ADD PUSH2 0x996 JUMP JUMPDEST SWAP2 POP POP SWAP3 SWAP2 POP POP JUMP JUMPDEST PUSH0 PUSH1 0x20 DUP3 DUP5 SUB SLT ISZERO PUSH2 0xA19 JUMPI PUSH2 0xA18 PUSH2 0x7AB JUMP JUMPDEST JUMPDEST PUSH0 DUP3 ADD CALLDATALOAD PUSH8 0xFFFFFFFFFFFFFFFF DUP2 GT ISZERO PUSH2 0xA36 JUMPI PUSH2 0xA35 PUSH2 0x7AF JUMP JUMPDEST JUMPDEST PUSH2 0xA42 DUP5 DUP3 DUP6 ADD PUSH2 0x9D7 JUMP JUMPDEST SWAP2 POP POP SWAP3 SWAP2 POP POP JUMP JUMPDEST PUSH0 PUSH1 0x20 DUP3 ADD SWAP1 POP PUSH2 0xA5E PUSH0 DUP4 ADD DUP5 PUSH2 0x89B JUMP JUMPDEST SWAP3 SWAP2 POP POP JUMP JUMPDEST PUSH0 PUSH20 0xFFFFFFFFFFFFFFFFFFFFFFFFFFFFFFFFFFFFFFFF DUP3 AND SWAP1 POP SWAP2 SWAP1 POP JUMP JUMPDEST PUSH0 PUSH2 0xA8D DUP3 PUSH2 0xA64 JUMP JUMPDEST SWAP1 POP SWAP2 SWAP1 POP JUMP JUMPDEST PUSH2 0xA9D DUP2 PUSH2 0xA83 JUMP JUMPDEST DUP3 MSTORE POP POP JUMP JUMPDEST PUSH0 PUSH1 0x20 DUP3 ADD SWAP1 POP PUSH2 0xAB6 PUSH0 DUP4 ADD DUP5 PUSH2 0xA94 JUMP JUMPDEST SWAP3 SWAP2 POP POP JUMP JUMPDEST PUSH2 0xAC5 DUP2 PUSH2 0xA83 JUMP JUMPDEST DUP2 EQ PUSH2 0xACF JUMPI PUSH0 DUP1 REVERT JUMPDEST POP JUMP JUMPDEST PUSH0 DUP2 CALLDATALOAD SWAP1 POP PUSH2 0xAE0 DUP2 PUSH2 0xABC JUMP JUMPDEST SWAP3 SWAP2 POP POP JUMP JUMPDEST PUSH0 PUSH1 0x20 DUP3 DUP5 SUB SLT ISZERO PUSH2 0xAFB JUMPI PUSH2 0xAFA PUSH2 0x7AB JUMP JUMPDEST JUMPDEST PUSH0 PUSH2 0xB08 DUP5 DUP3 DUP6 ADD PUSH2 0xAD2 JUMP JUMPDEST SWAP2 POP POP SWAP3 SWAP2 POP POP JUMP JUMPDEST PUSH0 DUP2 ISZERO ISZERO SWAP1 POP SWAP2 SWAP1 POP JUMP JUMPDEST PUSH2 0xB25 DUP2 PUSH2 0xB11 JUMP JUMPDEST DUP3 MSTORE POP POP JUMP JUMPDEST PUSH0 PUSH1 0x40 DUP3 ADD SWAP1 POP PUSH2 0xB3E PUSH0 DUP4 ADD DUP6 PUSH2 0xB1C JUMP JUMPDEST PUSH2 0xB4B PUSH1 0x20 DUP4 ADD DUP5 PUSH2 0x89B JUMP JUMPDEST SWAP4 SWAP3 POP POP POP JUMP JUMPDEST PUSH0 DUP1 PUSH1 0x40 DUP4 DUP6 SUB SLT ISZERO PUSH2 0xB68 JUMPI PUSH2 0xB67 PUSH2 0x7AB JUMP JUMPDEST JUMPDEST PUSH0 PUSH2 0xB75 DUP6 DUP3 DUP7 ADD PUSH2 0xAD2 JUMP JUMPDEST SWAP3 POP POP PUSH1 0x20 DUP4 ADD CALLDATALOAD PUSH8 0xFFFFFFFFFFFFFFFF DUP2 GT ISZERO PUSH2 0xB96 JUMPI PUSH2 0xB95 PUSH2 0x7AF JUMP JUMPDEST JUMPDEST PUSH2 0xBA2 DUP6 DUP3 DUP7 ADD PUSH2 0x9D7 JUMP JUMPDEST SWAP2 POP POP SWAP3 POP SWAP3 SWAP1 POP JUMP JUMPDEST PUSH0 PUSH1 0x20 DUP3 ADD SWAP1 POP DUP2 DUP2 SUB PUSH0 DUP4 ADD MSTORE PUSH2 0xBC4 DUP2 DUP5 PUSH2 0x863 JUMP JUMPDEST SWAP1 POP SWAP3 SWAP2 POP POP JUMP JUMPDEST PUSH32 0x4E487B7100000000000000000000000000000000000000000000000000000000 PUSH0 MSTORE PUSH1 0x22 PUSH1 0x4 MSTORE PUSH1 0x24 PUSH0 REVERT JUMPDEST PUSH0 PUSH1 0x2 DUP3 DIV SWAP1 POP PUSH1 0x1 DUP3 AND DUP1 PUSH2 0xC10 JUMPI PUSH1 0x7F DUP3 AND SWAP2 POP JUMPDEST PUSH1 0x20 DUP3 LT DUP2 SUB PUSH2 0xC23 JUMPI PUSH2 0xC22 PUSH2 0xBCC JUMP JUMPDEST JUMPDEST POP SWAP2 SWAP1 POP JUMP JUMPDEST PUSH32 0x4E487B7100000000000000000000000000000000000000000000000000000000 PUSH0 MSTORE PUSH1 0x32 PUSH1 0x4 MSTORE PUSH1 0x24 PUSH0 REVERT JUMPDEST PUSH0 DUP3 DUP3 MSTORE PUSH1 0x20 DUP3 ADD SWAP1 POP SWAP3 SWAP2 POP POP JUMP JUMPDEST PUSH32 0x596F75206861766520616C726561647920766F7465642E000000000000000000 PUSH0 DUP3 ADD MSTORE POP JUMP JUMPDEST PUSH0 PUSH2 0xC9A PUSH1 0x17 DUP4 PUSH2 0xC56 JUMP JUMPDEST SWAP2 POP PUSH2 0xCA5 DUP3 PUSH2 0xC66 JUMP JUMPDEST PUSH1 0x20 DUP3 ADD SWAP1 POP SWAP2 SWAP1 POP JUMP JUMPDEST PUSH0 PUSH1 0x20 DUP3 ADD SWAP1 POP DUP2 DUP2 SUB PUSH0 DUP4 ADD MSTORE PUSH2 0xCC7 DUP2 PUSH2 0xC8E JUMP JUMPDEST SWAP1 POP SWAP2 SWAP1 POP JUMP JUMPDEST PUSH32 0x596F7520617265206E6F7420656C696769626C6520746F20766F74652E000000 PUSH0 DUP3 ADD MSTORE POP JUMP JUMPDEST PUSH0 PUSH2 0xD02 PUSH1 0x1D DUP4 PUSH2 0xC56 JUMP JUMPDEST SWAP2 POP PUSH2 0xD0D DUP3 PUSH2 0xCCE JUMP JUMPDEST PUSH1 0x20 DUP3 ADD SWAP1 POP SWAP2 SWAP1 POP JUMP JUMPDEST PUSH0 PUSH1 0x20 DUP3 ADD SWAP1 POP DUP2 DUP2 SUB PUSH0 DUP4 ADD MSTORE PUSH2 0xD2F DUP2 PUSH2 0xCF6 JUMP JUMPDEST SWAP1 POP SWAP2 SWAP1 POP JUMP JUMPDEST PUSH32 0x4E487B7100000000000000000000000000000000000000000000000000000000 PUSH0 MSTORE PUSH1 0x11 PUSH1 0x4 MSTORE PUSH1 0x24 PUSH0 REVERT JUMPDEST PUSH0 PUSH2 0xD6D DUP3 PUSH2 0x7B3 JUMP JUMPDEST SWAP2 POP PUSH32 0xFFFFFFFFFFFFFFFFFFFFFFFFFFFFFFFFFFFFFFFFFFFFFFFFFFFFFFFFFFFFFFFF DUP3 SUB PUSH2 0xD9F JUMPI PUSH2 0xD9E PUSH2 0xD36 JUMP JUMPDEST JUMPDEST PUSH1 0x1 DUP3 ADD SWAP1 POP SWAP2 SWAP1 POP JUMP JUMPDEST PUSH0 DUP2 SWAP1 POP SWAP3 SWAP2 POP POP JUMP JUMPDEST PUSH0 PUSH2 0xDBE DUP3 PUSH2 0x811 JUMP JUMPDEST PUSH2 0xDC8 DUP2 DUP6 PUSH2 0xDAA JUMP JUMPDEST SWAP4 POP PUSH2 0xDD8 DUP2 DUP6 PUSH1 0x20 DUP7 ADD PUSH2 0x82B JUMP JUMPDEST DUP1 DUP5 ADD SWAP2 POP POP SWAP3 SWAP2 POP POP JUMP JUMPDEST PUSH0 PUSH2 0xDEF DUP3 DUP5 PUSH2 0xDB4 JUMP JUMPDEST SWAP2 POP DUP2 SWAP1 POP SWAP3 SWAP2 POP POP JUMP JUMPDEST PUSH0 DUP2 SWAP1 POP DUP2 PUSH0 MSTORE PUSH1 0x20 PUSH0 KECCAK256 SWAP1 POP SWAP2 SWAP1 POP JUMP JUMPDEST PUSH0 DUP2 SLOAD PUSH2 0xE18 DUP2 PUSH2 0xBF9 JUMP JUMPDEST PUSH2 0xE22 DUP2 DUP7 PUSH2 0xDAA JUMP JUMPDEST SWAP5 POP PUSH1 0x1 DUP3 AND PUSH0 DUP2 EQ PUSH2 0xE3C JUMPI PUSH1 0x1 DUP2 EQ PUSH2 0xE51 JUMPI PUSH2 0xE83 JUMP JUMPDEST PUSH1 0xFF NOT DUP4 AND DUP7 MSTORE DUP2 ISZERO ISZERO DUP3 MUL DUP7 ADD SWAP4 POP PUSH2 0xE83 JUMP JUMPDEST PUSH2 0xE5A DUP6 PUSH2 0xDFA JUMP JUMPDEST PUSH0 JUMPDEST DUP4 DUP2 LT ISZERO PUSH2 0xE7B JUMPI DUP2 SLOAD DUP2 DUP10 ADD MSTORE PUSH1 0x1 DUP3 ADD SWAP2 POP PUSH1 0x20 DUP2 ADD SWAP1 POP PUSH2 0xE5C JUMP JUMPDEST DUP4 DUP9 ADD SWAP6 POP POP POP JUMPDEST POP POP POP SWAP3 SWAP2 POP POP JUMP JUMPDEST PUSH0 PUSH2 0xE97 DUP3 DUP5 PUSH2 0xE0C JUMP JUMPDEST SWAP2 POP DUP2 SWAP1 POP SWAP3 SWAP2 POP POP JUMP JUMPDEST PUSH32 0x43616E646964617465206E6F7420666F756E6400000000000000000000000000 PUSH0 DUP3 ADD MSTORE POP JUMP JUMPDEST PUSH0 PUSH2 0xED6 PUSH1 0x13 DUP4 PUSH2 0xC56 JUMP JUMPDEST SWAP2 POP PUSH2 0xEE1 DUP3 PUSH2 0xEA2 JUMP JUMPDEST PUSH1 0x20 DUP3 ADD SWAP1 POP SWAP2 SWAP1 POP JUMP JUMPDEST PUSH0 PUSH1 0x20 DUP3 ADD SWAP1 POP DUP2 DUP2 SUB PUSH0 DUP4 ADD MSTORE PUSH2 0xF03 DUP2 PUSH2 0xECA JUMP JUMPDEST SWAP1 POP SWAP2 SWAP1 POP JUMP INVALID LOG2 PUSH5 0x6970667358 0x22 SLT KECCAK256 RETURNDATACOPY PUSH12 0xCCE7929A7414500A0E28789 GAS DUP4 0xCF 0xC1 PUSH14 0xD7BE0E3B410D0B5479DECEDF4964 PUSH20 0x6F6C634300081800330000000000000000000000 "},"gasEstimates":{"creation":{"codeDepositCost":"780800","executionCost":"infinite","totalCost":"infinite"},"external":{"admin()":"2571","candidates(uint256)":"infinite","candidatesVotesCount(bytes)":"infinite","eligibleVoters(uint256)":"4989","getResult()":"infinite","vote(address,bytes)":"infinite","voters(address)":"5067"},"internal":{"getCandidateIndex(bytes memory)":"infinite","isVoterEligible(address)":"infinite"}},"methodIdentifiers":{"admin()":"f851a440","candidates(uint256)":"3477ee2e","candidatesVotesCount(bytes)":"6241aed9","eligibleVoters(uint256)":"90caf298","getResult()":"de292789","vote(address,bytes)":"d3ae3e1d","voters(address)":"a3ec138d"}},"storageLayout":{"storage":[{"astId":46,"contract":"Election.sol:Election","label":"admin","offset":0,"slot":"0","type":"t_address"},{"astId":61,"contract":"Election.sol:Election","label":"voters","offset":0,"slot":"1","type":"t_mapping(t_address,t_struct(Voters)51_storage)"},{"astId":65,"contract":"Election.sol:Election","label":"candidates","offset":0,"slot":"2","type":"t_array(t_struct(Candidates)56_storage)dyn_storage"},{"astId":68,"contract":"Election.sol:Election","label":"eligibleVoters","offset":0,"slot":"3","type":"t_array(t_address)dyn_storage"}],"types":{"t_address":{"encoding":"inplace","label":"address","numberOfBytes":"20"},"t_array(t_address)dyn_storage":{"base":"t_address","encoding":"dynamic_array","label":"address[]","numberOfBytes":"32"},"t_array(t_struct(Candidates)56_storage)dyn_storage":{"base":"t_struct(Candidates)56_storage","encoding":"dynamic_array","label":"struct Election.Candidates[]","numberOfBytes":"32"},"t_bool":{"encoding":"inplace","label":"bool","numberOfBytes":"1"},"t_bytes_storage":{"encoding":"bytes","label":"bytes","numberOfBytes":"32"},"t_mapping(t_address,t_struct(Voters)51_storage)":{"encoding":"mapping","key":"t_address","label":"mapping(address => struct Election.Voters)","numberOfBytes":"32","value":"t_struct(Voters)51_storage"},"t_struct(Candidates)56_storage":{"encoding":"inplace","label":"struct Election.Candidates","members":[{"astId":53,"contract":"Election.sol:Election","label":"name","offset":0,"slot":"0","type":"t_bytes_storage"},{"astId":55,"contract":"Election.sol:Election","label":"voteCount","offset":0,"slot":"1","type":"t_uint256"}],"numberOfBytes":"64"},"t_struct(Voters)51_storage":{"encoding":"inplace","label":"struct Election.Voters","members":[{"astId":48,"contract":"Election.sol:Election","label":"hasVoted","offset":0,"slot":"0","type":"t_bool"},{"astId":50,"contract":"Election.sol:Election","label":"vote","offset":0,"slot":"1","type":"t_uint256"}],"numberOfBytes":"64"},"t_uint256":{"encoding":"inplace","label":"uint256","numberOfBytes":"32"}}},"userdoc":{"kind":"user","methods":{},"version":1}}